:04000000DAEF0DF036
:1000080000C01EF001C01DF002C01CF003C01BF0B0
:1000180004C01AF005C019F008C018F009C017F09C
:100028000AC016F00BC015F0E1CF27F0E2CF28F098
:10003800E9CF25F0EACF26F0F3CF23F0F4CF24F070
:10004800F5CF22F0F8CF1FF0F7CF20F0F6CF21F050
:10005800E1EC0BF022C0F5FF1FC0F8FF20C0F7FF4E
:1000680021C0F6FF23C0F3FF24C0F4FF1EC000F038
:100078001DC001F01CC002F01BC003F01AC004F040
:1000880019C005F018C008F017C009F016C00AF02A
:1000980015C00BF025C0E9FF26C0EAFF27C0E1FF25
:0600A80028C0E2FF110078
:1000AE001E0E716E100E476E040E486E47C0E1FFB5
:1000BE0048C0E2FFE69E47C0E1FF48C0E2FFE69C73
:1000CE00040E4724E16E000E4820E26EE68C180EF8
:1000DE004B6E040E4C6E4BC0E1FF4CC0E2FFE69E31
:1000EE004BC0E1FF4CC0E2FFE69C040E4B24E16ED8
:1000FE00000E4C20E26EE68C020E4724E16E000EDE
:10010E004820E26E41C0E6FF42C0E6FF010E4724E2
:10011E00E16E000E4820E26E400EE66E47C0E9FF2B
:10012E0048C0EAFFEECF00F047C0E1FF48C0E2FF53
:10013E00400E0014E66E47C0E9FF48C0EAFFEECF5E
:10014E0000F047C0E1FF48C0E2FF880E0010E66EE7
:10015E0047C043F048C044F0040E4718006E00C07C
:04016E0047F0120044
:100172000B6A0A6A096A00500402F4CF09F0F3CF4D
:1001820008F001500502F4CF0BF0F3CF0AF0005053
:100192000502F3500926F4500A22E86A0B220150A4
:1001A2000402F3500926F4500A22E86A0B2208C01E
:1001B20000F009C001F00AC002F00BC003F0120007
:1001C2000401286B296B42D0548E28813E50010ACB
:1001D200D8B4288350D0548E4ED0548E24BF16D01B
:1001E20024C403F00F0E031603C000F0000E016ECC
:1001F200003600900136450E0024E96E000E012003
:10020200EA6EEECF04F0EECF05F015D024C403F071
:100212000F0E031603C000F0000E016E00360090B0
:100222000136490E0024E96E000E0120EA6EEECF7F
:1002320004F0EECF05F004C0E9FF05C0EAFFEECFFF
:1002420001F001A402D0010E286F15D020C401F0E4
:100252001F0E01160150000AB7E020C401F01F0E64
:1002620001160150010AB7E020C401F01F0E011669
:100272000150020AB2E054AE07D0280E516E040EAD
:0A028200526E5480020E556E1200F9
:10028C0004012251010A0FE120C401F01F0E0116D6
:10029C000150000A08E1548E2151030A03E1010EBA
:1002AC003E6E01D03E6A2251000AD8A48BD020C4E5
:1002BC0001F01F0E01160150020AD8A483D024C4E9
:1002CC0001F00F0E01160150000AD8B47BD0548EE9
:1002DC0024BF16D024C403F00F0E031603C000F085
:1002EC00000E016E003600900136450E0024E96EBA
:1002FC00000E0120EA6EEECF04F0EECF05F015D023
:10030C0024C403F00F0E031603C000F0000E016EA0
:10031C00003600900136490E0024E96E000E0120D3
:10032C00EA6EEECF04F0EECF05F02151030A07E19F
:10033C0004C0E1FF05C0E2FF840EE66E43D024C486
:10034C0000F00F0E0016700E026E0F0E036E0050B2
:10035C000226D8B0032A02C0E9FF03C0EAFFFE0E52
:10036C00EE14006EEECF01F0FF0E011602C0E1FF9D
:10037C0003C0E2FF00C0E6FF01C0E6FF24AF11D0CE
:10038C0004C0E1FF05C0E2FFE66A040E0418006E2B
:10039C0000C004F004C0E1FF05C0E2FF400EE66EB1
:1003AC0011D004C0E1FF05C0E2FF880EE66E040E1A
:1003BC000418006E00C004F004C0E1FF05C0E2FFA9
:0603CC00C80EE66E1200EF
:1003D200548E716A3F6A22C440F04050000A03E121
:0E03E200100E3D6E03D0200E3D6E60DE120048
:1003F00004012051800AD8A473D0C00E546E65D079
:100400001C0E006E1D0E016E000E026E00C051F03B
:1004100001C052F002C053F0120E556E000E566E1F
:100420005FD0030E006E000E016E22C404F0000EB9
:10043000056E9FDE4D0E0024E96E000E0120EA6E6F
:10044000EECF51F0EECF52F0EECF53F0020E51242A
:10045000F66E000E5220F76E000E5320F86E090063
:10046000F5CF00F00900F5CF01F000C055F001C054
:1004700056F036D0225100016F5D23E3030E006E6B
:10048000000E016E22C404F0000E056E72DE570EDF
:100490000024E96E000E0120EA6EEECF51F0EECF9F
:1004A00052F0EECF53F051C0F6FF52C0F7FF53C0E9
:1004B000F8FF0900F5CF00F000C055F0000E566EB1
:1004C00001D0546A0DD0546A0BD004012351010AA3
:1004D00097E02351020AA5E02351030ACBE0F3D7AA
:0204E000120008
:1004E20020C401F01F0E01160150010A01E08DD057
:1004F20004012451000A01E088D02151060A3FE19B
:1005020034D04050010A17E17C0E006E1C0E016EC1
:10051200000E026E120E0026000E0122022200C000
:1005220051F001C052F002C053F0090E556E000E98
:10053200566EC00E546E23D04050010A12E1C70E0F
:10054200006E1C0E016E000E026E00C051F001C062
:1005520052F002C053F0210E556E000E566EC00EC0
:10056200546E0DD0800E546E0AD004012351210A1C
:10057200C8E02351220AE0E02351230AF3E020C419
:1005820001F0600E0116050E006E005004E001320B
:10059200019EFF0FFBD70150010A01E036D022D0A5
:1005A20034D033D0650E516E000E526E010E556E70
:1005B200000E566EC10E546E28D0800E546E23C4A7
:1005C20065F023D0680E516E000E526E010E556E0C
:1005D200000E566E810E546E18D0800E546E22C4D8
:1005E20068F013D004012151010ADAE02151090A0D
:1005F200D8E02151020AD6E021510A0ADEE0215157
:0C060200030AE0E021510B0AE8E01200BE
:10060E00000E565C02E1080E555C11E255C003F077
:10061E0056C004F000017051000A03E1010E706F24
:10062E0005D07051010A02E1020E706F04D0080E5F
:10063E00036E000E046E000149C0E1FF4AC0E2FFE6
:10064E00E69249C0E1FF4AC0E2FFE69049C0E9FFE9
:10065E004AC0EAFFEECF00F049C0E1FF4AC0E2FF18
:10066E0004500010E66E010E4924E16E000E4A2081
:10067E00E26E03C0E6FF0350555C006E0450565800
:10068E00016E00C055F001C056F0280E636F040EC7
:10069E00646F54B02FD0035004102BE051C0F6FFFE
:1006AE0052C0F7FF53C0F8FF0900F5CF00F063C04A
:1006BE00E1FF64C0E2FF00C0E6FF634B642B010E56
:1006CE005124006E000E5220016E000E5320026E59
:1006DE0000C051F001C052F002C053F0010E035C95
:1006EE00006E000E0458016E00C003F001C004F04D
:1006FE00D2D724D00350041021E051C0E9FF52C0DC
:10070E00EAFF63C0E1FF64C0E2FFEECFE6FF634B9A
:10071E00642B010E5124006E000E5220016E00C09B
:10072E0051F001C052F0010E035C006E000E045831
:0E073E00016E00C003F001C004F0DCD7120011
:0E074C00160E6F6E9F0E6B6E3B0E696E1200E6
:10075A006D9854BE4AD000017AAF28D0020E736F4A
:10076A00010E4924E16E000E4A20E26EE66A49C093
:10077A00E1FF4AC0E2FFC80EE66E010E7125E16E86
:10078A00000E7221E26E080EE66E020E7125E16E0F
:10079A00000E7221E26E280EE66E040EE66E71C03D
:1007AA00E1FF72C0E2FFC80EE66E1ED0010E71258F
:1007BA00E16E000E7221E26E080EE66E020E7125DF
:1007CA00E16E000E7221E26E200EE66E040EE66EF7
:1007DA0071C0E1FF72C0E2FF8C0EE66E49C0E1FF14
:1007EA004AC0E2FF840EE66E80D000017ABF7DD057
:1007FA00040120AF52D05650275D02E15550265DC4
:10080A0004E226C455F027C456F0FCDE010E0001AE
:10081A00736F010E7125E16E000E7221E26E080EF1
:10082A00E66E020E7125E16E000E7221E26E200E56
:10083A00E66E040EE66E71C0E1FF72C0E2FF800E42
:10084A00E66E746B010E7525E16E000E7621E26E7E
:10085A00080EE66E020E7525E16E000E7621E26E36
:10086A00200EE66E040EE66E75C0E1FF76C0E2FF6A
:10087A00840EE66E010E746F020E4924E16E000EBC
:10088A004A20E26E280EE66E040EE66E49C0E1FFCB
:10089A004AC0E2FFC80EE66E28D00001020E736F4E
:1008AA00010E4924E16E000E4A20E26EE66A49C052
:1008BA00E1FF4AC0E2FFC80EE66E010E7125E16E45
:1008CA00000E7221E26E080EE66E020E7125E16ECE
:1008DA00000E7221E26E280EE66E040EE66E71C0FC
:0C08EA00E1FF72C0E2FFC80EE66E1200D3
:1008F6007C0E4D6E1C0E4E6E000E4F6E2E0E576EFB
:100906001D0E586E000E596EA50E5A6E1C0E5B6EAD
:10091600000E5C6EE80E5D6E1C0E5E6E000E5F6E67
:020926001200BD
:100928000001736B49C0E1FF4AC0E2FFE66A040EAA
:100938004918E16E4AC0E2FF000EE21AE66A7AAF91
:0609480001D07A9F1200AD
:10094E00010E00017525E96E000E7621EA6EEECFDE
:10095E0000F000C002F0000E7C5D02E102507B5DF3
:10096E0003E27BC002F00AD002507B5D006E000EE7
:10097E007C59016E00C07BF001C07CF0036A02500E
:10098E00035C1CE2280EE96E040EEA6E0350E926A3
:10099E00D8B0EA2AEECF00F078C0E1FF79C0E2FFCE
:1009AE0000C0E6FF010E7825006E000E7921016E63
:1009BE0000C078F001C079F0032AE1D7000E006E76
:1009CE007C51005C02E17B51000828E2010E71258A
:1009DE00E16E000E7221E26E080EE66E020E7125B9
:1009EE00E16E000E7221E26E280EE66E040EE66EC9
:1009FE0075C0E9FF76C0EAFFEECF00F000BC07D06D
:100A0E0071C0E1FF72C0E2FFC80EE66E06D071C083
:100A1E00E1FF72C0E2FF880EE66E19D0010E71255D
:100A2E00E16E000E7221E26E080EE66E020E712568
:100A3E00E16E000E7221E26E200EE66E040EE66E80
:100A4E0071C0E1FF72C0E2FF840EE66E7A9F120063
:0A0A5E000001775301E03EDD1200B5
:100A680020C401F0600E0116050E006E005004E06F
:100A78000132019EFF0FFBD70150000A01E05AD056
:100A880036D0548E080E3D6E55D0AEDC53D09DDC6A
:100A980051D0400E516E000E526E5480010E556EAC
:100AA800548E48D0E1EC00F045D046EC01F042D03D
:100AB8003F0E006E000E016E24510026D8B0012AA8
:100AC80000C051F001C052F05480010E556E548E92
:100AD80031D0548E3F0EE16E000EE26E2451E126B5
:100AE800D8B0E22A22C4E6FF25D024D023D00401BE
:100AF8002151050AC6E02151060AC7E02151090A19
:100B0800C6E02151080AC5E02151000ACBE0215175
:100B1800010ACBE02151030AC8E021510A0AC8E0C2
:100B280021510B0AD6E02151070ADFE021510C0AB6
:060B3800DDE0DCD7120035
:100B3E00040E4918006E00C049F03D50080A0AE143
:100B4E0022C46EFF6E50000803E2100E3D6E02D0FE
:100B5E00040E3D6E00017351010A3BE1020E492461
:100B6E00E16E000E4A20E26E280EE66E040EE66E70
:100B7E0047DD00017051020A07E149C0E1FF4AC09A
:100B8E00E2FF840EE66E24D0040E4918006E00C0FB
:100B9E0049F049C0E9FF4AC0EAFFEECF00F000BCC1
:100BAE000CD0040E4918006E00C049F049C0E1FF98
:100BBE004AC0E2FFC80EE66E0BD0040E4918006E56
:100BCE0000C049F049C0E1FF4AC0E2FF880EE66E60
:060BDE0001D0A3DE1200AD
:100BE40070A019D075C0E9FF76C0EAFFEECF01F01E
:100BF4000150800A0FE149C0E9FF4AC0EAFFEECF85
:100C040001F00150840A06E175C0E1FF76C0E2FFFD
:0C0C14008C0EE66E7090DF0E6816120069
:040C2000A19A120083
:100C240068DE436A446A00016D6B6E6B6A6A686AC7
:100C34008BDD6D8C6E6A716A6D9C616B626B000EEC
:100C4400625D02E1080E615D17E261C000F062C0FE
:100C540001F0003600900136003600900136000E97
:100C64000024E16E040E0120E26EE66AE66AE66A9A
:100C7400E66A614B622BE3D7160E706E68A603D04A
:100C8400F70E6816FBD7546A7A6B7B6B7C6B6D9896
:0E0C9400080E496E040E4A6E406A3D6A120058
:0A0CA2006984EF0E68166D821200DF
:100CAC0000017351020A02E14CDE1ED037DE745192
:100CBC00000A19E1010E7125E16E000E7221E26E3F
:100CCC00080EE66E020E7125E16E000E7221E26EC8
:100CDC00200EE66E040EE66E71C0E1FF72C0E2FFFC
:0A0CEC008C0EE66E01D0746B12004E
:100CF60049C0E9FF4AC0EAFFEECF00F000AE05D0DA
:100D060049C0E1FF4AC0E2FFE66A0001706B736BFF
:0E0D1600556A566A546AA5DE9FDE1CDD120087
:0E0D2400630E0D6E0D2EFED7000000001200B3
:100D32002B0E0C6EDA0E0D6E0D2EFED70C2EFCD77E
:040D4200000012009B
:100D46006D92699468A403D0FB0E6816FBD7120057
:0E0D560000000000000000000000000012007D
:100D6400000E00019D1902E1000E9C1902E1016AC6
:100D74000AD09CC0E9FF9DC0EAFFEECF00F0000E50
:0C0D840000BE010E016E01C000F0120064
:100D900000019D51000A12E09CC000F0000E016E9F
:100DA000003600900136490E0024E96E000E012045
:100DB000EA6EEECF04F0EECF05F011D09CC000F04B
:100DC000000E016E003600900136450E0024E96EDB
:100DD000000E0120EA6EEECF04F0EECF05F0020E19
:100DE0000424E16E000E0520E26E9EC0E6FF9FC067
:100DF000E6FF010E0424E16E000E0520E26EA0C0A5
:100E0000E6FF04C0E9FF05C0EAFFEECF00F004C032
:100E1000E1FF05C0E2FF400E0014E66E04C0E9FFEA
:100E200005C0EAFFEECF00F004C0E1FF05C0E2FF1D
:100E3000880E0010E66E9D51000A1BE09CC000F079
:100E4000000E016E003600900136490E0024026E3D
:100E5000000E0120036E02C0E9FF03C0EAFF040E8A
:100E6000EE18006E02C0E1FF03C0E2FF00C0E6FF23
:100E70001AD09CC000F0000E016E003600900136C2
:100E8000450E0024026E000E0120036E02C0E9FF31
:100E900003C0EAFF040EEE18006E02C0E1FF03C0BB
:100EA000E2FF00C0E6FF04C000F005C001F0120040
:100EB00000019F6BA06BA16B020E9C25F66E000ECD
:100EC0009D21F76E000E9E21F86E0900F5CF05F00A
:100ED000030E9C25F66E000E9D21F76E000E9E21DE
:100EE000F86E0900F5CF00F000C003F0000E046EAC
:100EF00003C001F0006A05500024066E000E0120B8
:100F0000076E9CC008F09DC009F09EC00AF0010E5B
:100F10000824F66E000E0920F76E000E0A20F86E07
:100F20000900F5CF01F00150020A1BE1060E08246A
:100F3000F66E000E0920F76E000E0A20F86E09000A
:100F4000F5CF01F001509F5D0CE2060E0824F66E0D
:100F5000000E0920F76E000E0A20F86E0900F5CF8A
:100F60009FF0010E0824F66E000E0920F76E000EA9
:100F70000A20F86E0900F5CF01F00150040A1BE1C8
:100F8000080E0824F66E000E0920F76E000E0A20E7
:100F9000F86E0900F5CF01F001509F5D0CE2080EDC
:100FA0000824F66E000E0920F76E000E0A20F86E77
:100FB0000900F5CF9FF008C0F6FF09C0F7FF0AC08F
:100FC000F8FF0900F5CF00F00050A025016E000EDB
:100FD000A121026E01C0A0F002C0A1F00750025C86
:100FE00002E10650015C01E30FD008C0F6FF09C022
:100FF000F7FF0AC0F8FF0900F5CF00F000500826FF
:0E100000000E09220A2283D79FC000F01200C2
:0A100E00D08EA28AA08AF28E120092
:101018001C0E006E1D0E016E000E026E0E0E0024D8
:10102800F66E000E0120F76E000E0220F86E090021
:10103800F5CF03F003C004F00F0E0024F66E000E87
:101048000120F76E000E0220F86E0900F5CF01F0BE
:101058000150035C12E21C0E006E1D0E016E000EA4
:10106800026E0F0E0024F66E000E0120F76E000EC1
:101078000220F86E0900F5CF04F01C0E006E1D0E5C
:10108800016E000E026E100E0024F66E000E012096
:10109800F76E000E0220F86E0900F5CF01F001503E
:1010A800045C12E21C0E006E1D0E016E000E026E34
:1010B800100E0024F66E000E0120F76E000E0220BE
:0E10C800F86E0900F5CF04F004C000F012002D
:1010D6000FEE82F0EF50EFCF00F0009E00C0EFFF62
:0210E6001200F6
:1010E80000019CBF02D08A9A01D08A8A9CBD02D096
:1010F8008A9801D08A889CBB02D08A9601D08A86B9
:101108009CB902D08A9401D08A8450B202D08A8CC9
:1011180001D08A9C8A8E1BDE8A9E9CB702D08A9A4E
:1011280001D08A8A9CB502D08A9801D08A889CB35B
:1011380002D08A9601D08A869CB102D08A9401D0C6
:101148008A8450B202D08A8C01D08A9C8A8EFFDDB4
:0E1158008A9E50A202D0E9DD01D0E0DD120037
:101166003D50000A0AE16D6A696AA6EC03F06DB6A5
:1011760002D06D86FCD7010E3D6E3D50010A08E196
:101186006DBA06D0686A696A69806988020E3D6E22
:1011960068A405D069A403D0FB0E6816D1DD6DA244
:1011A60002D03BDDD6D068A018D069A016D037DDB6
:1011B600040E3D6E200E0401026F040E036F080E2E
:1011C600016F000E0015006E00C000F48C0E0011B9
:1011D600006E00C000F4FE0E681668A805D069A867
:1011E60003D05CDDEF0E681668AC04D069AC02D0A3
:1011F600BF0E681668AA03D069AA01D0F0DC68A2FF
:1012060002D069B26A6A040E3D5C02E206DDA1D034
:1012160069A69ED000019D6B040E9D5DD8B098D046
:1012260068A692D06CCF60F0F70E6816780E60153F
:10123600016E0150000AD8A486D0FD0E6015016E1D
:10124600026AFF0E0216000E021802E1000E0118D5
:101256006BE17E0E6015016E01C003F00332039E42
:1012660003C000F0000E016E003600900136003615
:1012760000900136000E0024026E040E0120036E5B
:1012860002C075F003C076F002C071F003C072F0C0
:10129600040E7119006E00C071F002C0E9FF03C0B0
:1012A600EAFFEECF00F000C001F03C0E011601325D
:1012B600019E0132019E01500D0A34E1020E752590
:1012C600E96E000E7621EA6EEECF01F0EECF02F067
:1012D6000250040A02E1280E011822E1020E7525C9
:1012E600E16E000E7621E26E200EE66E040EE66ECC
:1012F6009C6B080E9C5D14E2200EE16E040EE26EFD
:101306009C51E126D8B0E22A280EE96E040EEA6E58
:101316009C51E926D8B0EA2AEECFE6FF9C2BE9D706
:10132600E7DC01D0C0DC0ED0FD0E6015016E026A4E
:10133600FF0E0216000E021802E1040E011802E169
:101346009FEC05F000D001D003D000019D2B64D79F
:0413560064DC120041
:10135A000FEE82F0EF50EFCF00F0009C00C0EFFFDD
:02136A0012006F
:10136C00086A096A100E0C6E0134083609360450EE
:10137C00085E0550D8A0053C095ED8B007D00450D3
:10138C0008260550D8B0053C0926D8900036013601
:06139C000C2EEAD712003E
:1013A200010E0001986F000E996F800E966F000E6D
:1013B200976F9651971123E0CDDCCCDCCBDCCADCF5
:1013C20089DE949EC7DCC6DC96519515006E000E30
:1013D2009715016E0050011002E0948C02D0BCDF20
:1013E200949CB8DCB7DC948E509082BE04D050A09E
:1013F20001D001D0FAD797339633979FDAD7986BFB
:10140200996BA8DCA7DC66DE949EA4DCA3DC948C3A
:10141200A1DCA0DC9FDC9EDC948E509082BE04D0C6
:1014220050A001D001D0FAD7986B996B93DC92DC73
:1014320082BC98818FDC8EDC8DDC8CDC8BDC8ADCE0
:1014420089DC88DC87DC86DC85DC84DC83DC82DC8E
:1014520081DC80DC3FDE949E7FDF949C98C000F0AC
:02146200120076
:10146400D9DD00C095F07C0E00019C6F1C0E9D6FB1
:10147400000E9E6F1BDD00C096F09551005C03E2E8
:0C14840095C000F002D096C000F01200ED
:10149000948C61DC60DC948E5EDC5DDC5EDF949CB1
:0A14A0005ADC59DC18DE949E12009D
:1014AA0057DF949C53DC52DC948E509082BE04D059
:1014BA0050A001D001D0FAD749DC48DC47DC46DC31
:1014CA0045DC44DC43DC42DC948C40DC3FDC12002B
:0C14DA00509295C09CF003DE508212007E
:1014E6000001996B050E995D0AE299519725E16E07
:1014F600000E9821E26E200EE66E992BF3D79951D5
:101506009725E16E000E9821E26EE66A99079951D9
:1015160097259A6F000E98219B6F0A0E046E000E97
:10152600056E95C000F096C001F01DDF08C000F002
:1015360009C001F0300E00269AC0E1FF9BC0E2FF11
:1015460000C0E6FF0A0E046E000E056E95C000F0A0
:1015560096C001F008DF00C095F001C096F0000EBD
:10156600011802E1000E001801E102D09907CFD759
:02157600120061
:10157800200E3D5C03E36DB201D002D0006A49D071
:101588006DC09CF06EC09DF0B2EC06F0005240E1D8
:1015980098C09CF0010E9D6F95C09EF096C09FF07C
:1015A80097C0A0F0C8EC06F000C06DF001C06EF066
:1015B800696B6A6B6B6B6C6B6DC09CF06EC09DF059
:1015C800B2EC06F000520FE0010E016E0150000A65
:1015D80001E1C5DD000169516A116B116C1102E06E
:1015E800006A17D0E9D76DC099F06EC09AF0000E66
:1015F8006E1902E1000E6D1909E0010E9925E96ED8
:10160800000E9A21EA6EEECF00F003D0006A01D0F6
:04161800006A120052
:10161C003D50000A0BE16D6A696AA6EC03F0F1DC3F
:0E162C006DB602D06D86FCD7010E3D6E120029
:10163A000001976B986B800E996F000E9A6F995103
:10164A009A1121E0ABEC06F0ABEC06F0948CABEC13
:10165A0006F0ABEC06F0948E509082BE04D050A0F7
:10166A0001D001D0FAD782AC04D0995197139A517C
:10167A009813ABEC06F0ABEC06F028DD949E9A3397
:10168A0099339A9FDCD7948CABEC06F0ABEC06F05E
:10169A009551961102E05CDE949CABEC06F0ABEC43
:1016AA0006F0948E509082BE04D050A001D001D092
:1016BA00FAD7ABEC06F0ABEC06F008DD949EABEC87
:1016CA0006F0ABEC06F044DE949C97C000F01200E2
:1016DA000900F5CFE6FF0006FBE10106F9E1120079
:1016EA00939E939C939493969398939A8A9E8A9C9A
:1016FA008A9A8A988A968A9499EC06F099EC06F066
:10170A0099EC06F08A868A848A8EABEC06F08A9E69
:10171A0099EC06F08A8EABEC06F08A9E99EC06F0FC
:10172A008A8EABEC06F08A9E99EC06F08A948A8E31
:10173A00ABEC06F08A9E99EC06F08A8EABEC06F0CA
:10174A008A9E8A968A8A8A8EABEC06F08A9E99ECE1
:10175A0006F08A9A8A848A8EABEC06F08A9E8A946C
:10176A008A8EABEC06F08A9E99EC06F08A8EABEC78
:10177A0006F08A9E8A848A8EABEC06F08A9E99ECE1
:10178A0006F08A948A8EABEC06F08A9E8A8A8A8848
:10179A008A868A848A8EABEC06F08A9E99EC06F0D9
:0417AA005082120057
:1017AE00948E948C509082BE04D050A001D001D063
:0417BE00FAD7120044
:1017C2003D50010A07E16DBA05D0686A69806988EF
:1017D200020E3D6E68A406D069A404D0FB0E681602
:1017E200A3EC06F06DA203D010EC06F0DDD068A0E9
:1017F20019D069A017D012EC06F0040E3D6E200E2F
:101802000401026F040E036F080E016F000E001533
:10181200006E00C000F48C0E0011006E00C000F4D7
:10182200FE0E681668A806D069A804D051EC06F02E
:10183200EF0E681668AC04D069AC02D0BF0E681611
:1018420068AA04D069AA02D0F2EC05F068A202D01C
:1018520069B26A6A040E3D5C03E210EC06F0A4D0A1
:1018620069A6A0D00001A36B040EA35DD8B09AD0E4
:1018720068A694D06CCF60F0F70E6816780E6015EB
:10188200016E0150000AD8A488D0FD0E6015016EC9
:10189200026AFF0E0216000E021802E1000E011883
:1018A2006DE17E0E6015016E01C003F00332039EEE
:1018B20003C000F0000E016E0036009001360036C3
:1018C20000900136000E0024026E040E0120036E09
:1018D20002C075F003C076F002C071F003C072F06E
:1018E200040E7119006E00C071F002C0E9FF03C05E
:1018F200EAFFEECF00F000C001F03C0E011601320B
:10190200019E0132019E01500D0A35E1020E75253C
:10191200E96E000E7621EA6EEECF01F0EECF02F014
:101922000250040A02E1280E011822E1020E752576
:10193200E16E000E7621E26E200EE66E040EE66E79
:10194200A26B080EA25D14E2200EE16E040EE26E9E
:10195200A251E126D8B0E22A280EE96E040EEA6E00
:10196200A251E926D8B0EA2AEECFE6FFA22BE9D7A8
:101972007BEC06F002D056EC06F00ED0FD0E6015A0
:10198200016E026AFF0E0216000E021802E1040E38
:10199200011802E19FEC05F000D001D003D0000154
:0A19A200A32B62D710EC06F0120030
:1019AC00806A816A826A81929392819093801200FC
:0A19BC00060EC16E070EB46E120095
:0419C600F26A1200AF
:1019CA0010D0800E00018B6F1AD0C00E8B6F17D00B
:1019DA00940E8B6F14D0D40E8B6F11D0800E8B6F38
:1019EA000ED000018B51010AECE08B51020AEDE0A6
:1019FA008B51030AEDE08B51040AEDE0EFD78C0519
:101A0A00006E8B51002600C08BF000C09CF074EC75
:101A1A0008F050928F6B8F518D25E96E000E8E2142
:101A2A00EA6EEE520BE08F518D25E96E000E8E2183
:101A3A00EA6EEECF95F04CDD8F2BEDD75082120077
:101A4A00F29E21DDD00E0001956FA6DC100E956F77
:081A5A00A3DC26DDF28E120070
:101A62008BC095F08CC096F08DC097F0010E0001EE
:061A7200986F81DD1200F7
:101A7800F5DC00C06FF0010E776F8BC041F08CC0B1
:101A880042F08DC066F08EC067F012EC06F0010ED1
:0C1A9800016E0150010A01E1BDDD1200E9
:101AA400F29EF4DCD10E0001956F79DC130E0D6EFD
:101AB4000D2EFED700000000010E956F000E966FEC
:101AC400BADD00C02CF0956B966BB5DD00C02BF031
:061AD400EADCF28E1200B4
:101ADA000001916B926B8BC093F08CC094F0800ED6
:101AEA008C19006E800E005C02E1000E8B5D0BE229
:101AFA00010E916F000E926F8B510008936F8CC08C
:101B0A0094F0000E945793C095F094C096F08DC04F
:101B1A0097F08EC098F0E2DC060E8F6F000E906F81
:101B2A00000E006E9051005C02E18F51000819E22C
:101B3A008F518D25E16E90518E21E26E010E8F5DDF
:101B4A00006E000E9059016E00508D25E96E01500D
:101B5A008E21EA6EEECFE6FF010E8F5F000E905BDC
:101B6A00DFD78DC0E1FF8EC0E2FF200EE66E9151F5
:101B7A0092111AE08F6B906B8F518D25E96E9051FF
:101B8A008E21EA6EEE50200A03E18F4B902BF4D798
:101B9A00010E8F5F000E905B8F518D25E16E905183
:0A1BAA008E21E26E2D0EE66E120091
:101BB40099EC0EF0F9DE00DF04DF95DD010E000183
:101BC4009C6F74EC08F00C0E9C6F74EC08F0EDDD67
:101BD400000E00018B6F050E8C6F400E8D6F050E8D
:101BE4008E6F48DF30DF010E00018B6F010E8C6FAA
:101BF4002D0E8D6F000E8E6FE6DE52DF29C08BF046
:101C04002AC08CF0810E00018D6F000E8E6F63DF91
:101C1400020E8B6F010E8C6F810E8D6F000E8E6F16
:101C2400D2DE2BC08BF02CC08CF0810E8D6F000E99
:101C34008E6F51DF020E8B6F080E8C6F810E8D6FCD
:101C4400000E8E6FC0DE2AC041F529C042F52CC0BB
:101C540043F52BC044F5400E8B6F050E8C6F080EB8
:101C64008D6FFDDE4E0E0C6EEB0E0D6E0D2EFED73F
:081C74000C2EFCD7C2D7FFD7EC
:101D320010EE29F0140E006E010E016E080EF66E02
:0E1D42001D0EF76E000EF86E6DEC0BF0120029
:101C7C00090229000101008032090400000203005E
:101C8C000000092101010001222100070581034008
:091C9C00000507050103400005E5
:101CA500220350006500610072006C0020004500B1
:101CB5006E007400650072007000720069007300A8
:021CC5006500B8
:101CC7000600FF0901A10119012940150026FF009F
:101CD7007508950881021901294075089508910230
:011CE700C03C
:101CE800200345006E00670069006E006500200053
:101CF80041006E0061006C0079007A006500720096
:021D08000000D9
:021D0A000000D7
:101D0C00566F6C746167652043757272656E7400F2
:101D1C001201000200000008BD1F030001000102B7
:021D2C000001B4
:041D2E00040309049D
:020000040030CA
:0E000000340E3E1EFF0081FF0FC00FE00F40C8
:00000001FF
