:1000000036EF10F00000000004EF11F000000000D7
:0C0010000000000000000000F8EF10F0FD
:10001C0040C204F041C205F03EC202F03FC203F000
:10002C0042C200F00201420700520FE004C0E9FF97
:10003C0005C0EAFF02C0E1FF03C0E2FFEECFE6FF1E
:10004C00024A032A044A052AEBD73EC200F03FC2FB
:04005C0001F012009D
:1000600002013A6B3B6B35C201F036C202F037C277
:1000700003F0000E046E000E006E041808E100503C
:10008000031805E10050021802E10150000A65E082
:1000900035C205F036C206F037C207F005C0F6FFDC
:1000A00006C0F7FF07C0F8FF0900F5CF01F00150C7
:1000B000000A07E03B2B010E0526000E0622072250
:1000C000EDD73BC200F000360090020E002600C0C3
:1000D0003BF235C205F036C206F037C207F03A519E
:1000E0003825E16E000E3921E26E00C0E6FF3A2BA2
:1000F0003A513825E16E000E3921E26E030EE66EAC
:100100003A2B05C0F6FF06C0F7FF07C0F8FF09004D
:10011000F5CF01F00150000A20E03A513825E16E98
:10012000000E3921E26E05C0F6FF06C0F7FF07C0DA
:10013000F8FF0900F5CF00F000C0E6FF3A2B010EF2
:100140000526000E062207223A513825E16E000EE0
:0C0150003921E26EE66A3A2BD4D7120087
:10015C000B6A0A6A096A00500402F4CF09F0F3CF63
:10016C0008F001500502F4CF0BF0F3CF0AF0005069
:10017C000502F3500926F4500A22E86A0B220150BA
:10018C000402F3500926F4500A22E86A0B2208C034
:10019C0000F009C001F00AC002F00BC003F012001D
:1001AC00020135AF07D0E80E396F000E3A6F020E20
:1001BC003B6F05D0640E396F000E3A6F3B6B0A0E25
:1001CC003925D96E000E3A21DA6EDE503B25036ECE
:1001DC00046A000E042203C000F004C001F00036D3
:1001EC0000900136003600900136000E0024376F67
:1001FC00040E0120386F050E3925E96E000E3A21E8
:10020C00EA6EEECF01F0EECF02F0000E006E02505F
:10021C00005C03E101500001605D06E260C03CF24D
:10022C00000E02013D6F0BD00201050E3925E96E5F
:10023C00000E3A21EA6EEECF3CF2EECF3DF2C00E4C
:10024C003E6F040E3F6F010E3925E96E000E3A2108
:10025C00EA6EEECF40F2EECF41F23CC242F2D8DE73
:10026C00020E3725E16E000E3821E26EC00E006ED4
:10027C00040E016E00C0E6FF01C0E6FF010E37253B
:10028C00E16E000E3821E26E3CC2E6FF030E3D1516
:10029C00036E39C2E9FF3AC2EAFFEECF02F0060E56
:1002AC00016E02C000F0015004E000360090FF0F18
:1002BC00FBD70350001237C2E1FF38C2E2FF3651C0
:0602CC000010E66E1200B6
:1002D200016A026A02013B51025C02E13A51015C8D
:1002E20017E201503825E16E02503921E26E0150C9
:1002F2003525F66E02503621F76E000E3721F86E64
:100302000900F5CF00F000C0E6FF014A022AE2D759
:020312001200D7
:100314000B0E006E000E016E2EC204F0000E056E70
:100324001BDF640E0026000E012200C031F201C062
:1003340032F2010E0024E16E000E0120E26E2FC2A3
:10034400E6FF30C2E6FF030E02013125E16E000E26
:100354003221E26E080E3125E96E000E3221EA6E7A
:10036400EECFE6FFEECFE6FF050E3125E16E000E7F
:100374003221E26E080E3125E96E000E3221EA6E5A
:10038400EECFE6FFEECFE6FF2EC200F0000E016EC8
:100394000036013600900036013600900A0E3125F1
:1003A400D96E000E3221DA6EDE500024036E000E88
:1003B4000120046E03C000F004C001F00036009078
:1003C4000136003600900136000E0026040E01228C
:1003D40000C033F201C034F2020E0024E16E000EBC
:1003E4000120E26E010E3125E96E000E3221EA6E23
:1003F400EECFE6FFEECFE6FF010E3325E16E000EF1
:100404003421E26E080E3125E96E000E3221EA6EC7
:10041400EECFE6FF080E3125E96E000E3221EA6EBA
:10042400EECF03F0EECF04F004C000F0016A030E37
:100434000014036E31C2E9FF32C2EAFFEECF02F0CC
:10044400060E016E02C000F0015004E00036009078
:10045400FF0FFBD70350001233C2E1FF34C2E2FFA7
:08046400880E0010E66E120084
:10046C00C00E0001656F040E666F080E676F000EFC
:10047C00686F080E696F000E6A6F646B0201356B52
:08048C008C0E366F8DDE1200AC
:1004940075D0590E006E230E016E000E026E00C060
:1004A40035F201C036F202C037F26D0E0201386F28
:1004B400010E396F00C0F6FF01C0F7FF02C0F8FF5C
:1004C4000900F5CF3AF2000E3B6F01DF6D0E006EAE
:1004D400010E016E67D0490E356F230E366F000E84
:1004E400376F6D0E386F010E396FB8DD6D0E006E0B
:1004F400010E016E57D0160E356F230E366F000EA7
:10050400376F6D0E386F010E396FA8DD6D0E006EFA
:10051400010E016E47D03D0E356F230E366F000E6F
:10052400376F6D0E386F010E396F98DD6D0E006EEA
:10053400010E016E37D05E0E356F230E366F000E3E
:10054400376F6D0E386F010E396F88DD6D0E006EDA
:10055400010E016E27D05D0E356F230E366F000E2F
:10056400376F6D0E386F010E396F78DD6D0E006ECA
:10057400010E016E17D0006A016A14D002012E51D7
:10058400000A87E02E51010AA6E02E51020AB3E0C8
:100594002E51030AC0E02E51040ACDE02E51050A63
:0605A400DAE0E9D71200C5
:0605AA00040E5E6E12005B
:1005B000E80E006E000E016E010E0024E16E000ECA
:1005C0000120E26E25C2E6FF26C2E6FF030E0024EC
:1005D000E16E000E0120E26E27C2E6FF28C2E6FFB0
:1005E000050E0024E16E000E0120E26E27C2E6FF38
:1005F00028C2E6FF00C0E1FF01C0E2FF010EE66E87
:06060000020E5E6E120006
:100606000001E96BEA6BEB6BEC6BED6BEE6B010ECD
:10061600E86F800E0201356F840E366FC4DD23DF6E
:020626001200C0
:1006280060D02B0E006E230E016E000E026E00C00D
:1006380035F201C036F202C037F26D0E0201386F92
:10064800010E396F00C0F6FF01C0F7FF02C0F8FFC6
:100658000900F5CF3AF2000E3B6F37DE6D0E006EE3
:10066800010E016E49D0CC0E006E220E016E000EF6
:10067800026E00C035F201C036F202C037F26D0ECC
:10068800386F010E396F020E0024F66E000E01203D
:10069800F76E000E0220F86E0900F5CF04F0030E85
:1006A8000024F66E000E0120F76E000E0220F86E90
:1006B8000900F5CF03F003C001F0006A04500024DC
:1006C8003A6F000E01203B6F00DE6D0E006E010ECA
:1006D800016E12D026C22EF2D9DE0ED0006A016A4F
:1006E8000BD002012551010A9CE02551020ABBE00A
:0A06F8002551030AEFE0F2D71200CB
:1007020009D0010E02012E6F000E2F6F050E306F01
:0E07120000DE04D002012551050AF3E01200BA
:100720000F0E020125152B6F2C6B2D6B25AF06D0FC
:10073000E80E296F000E2A6F2C8305D0640E296FF6
:10074000000E2A6F2C850B0E006E000E016E2BC260
:1007500004F0000E056E02DD295100262A51012207
:1007600000C029F201C02AF2070E0024E16E000E3B
:100770000120E26E26C2E6FF29C2E1FF2AC2E2FFA3
:10078000E66A080E2925E16E000E2A21E26E27C2D4
:10079000E6FF28C2E6FF2C872651010AD8A42C893F
:1007A000700E016E0F0E026E2B510126D8B0022A78
:1007B00001C0E9FF02C0EAFF2C51EE10006E01C03B
:0C07C000E1FF02C0E2FF00C0E6FF1200F3
:1007CC00020E0201256F1EC226F2000E276F286B47
:1007DC00296B24DF00C021F201C022F2020E00249A
:1007EC00E96E000E0120EA6EEECF05F0030E002438
:1007FC00E96E000E0120EA6EEECF03F0000E046EDF
:10080C0003C001F0006A055000241F6F000E012088
:10081C00206F010E2125E96E000E2221EA6EEE50AA
:10082C00050A2FE1020E2125E96E000E2221EA6E47
:10083C00EECF25F2030E2125E96E000E2221EA6E81
:10084C00EECF06F0040E2125E96E000E2221EA6E91
:10085C00EECF05F0050E2125E96E000E2221EA6E81
:10086C00EECF03F0000E046E03C001F0006A0550D9
:10087C000024276F000E0120286F030E0614266F2C
:10088C0049DF21C2D9FF22C2DAFFDE501F5D006EA4
:10089C00000E2059016E00C01FF201C020F2005062
:1008AC0001100AE021C2E9FF22C2EAFFEECF00F0FC
:1008BC0000502127000E22231F512011AAE1100EF7
:0A08CC005C6E050E256F17DF1200A9
:1008D6000201206B216B1EC2E9FF1FC2EAFFEECFA9
:1008E60000F0600E0014246F2ED1010E1E25226F1B
:1008F600000E1F21236F31D0020E1E25E96E000E59
:100906001F21EA6EEECF34F04DDE58D0340E256F3F
:10091600000E266F010E276F000E286F46DE4ED0A2
:10092600020E1E25E96E000E1F21EA6EEECF03F0C1
:10093600EECF04F004C000F0016A00C033F032DEEE
:100946003DD0330E256F000E266F010E276F000E69
:10095600286F2BDE33D054DEFED022C2E9FF23C23D
:10096600EAFFEECF01F0000E000A02E10B0E0118BD
:10097600C3E022C2E9FF23C2EAFFEECF01F0000E78
:10098600000A02E1030E0118C1E022C2E9FF23C2F8
:10099600EAFFEECF01F0000E000A02E10A0E01188E
:1009A600BFE022C2E9FF23C2EAFFEECF01F0000E4C
:1009B600000A02E1020E0118C4E0CDD7CCD0010E28
:1009C6001E25226F000E1F21236FA6D0020E1E25A4
:1009D600E96E000E1F21EA6EEECF03F0EECF04F0B3
:1009E60004C001F0026A0250000A02E1220E011858
:1009F60033E1060E1E25E96E000E1F21EA6EEECFCC
:100A060001F0EECF02F001C020F202C021F2000E8A
:100A1600006E0250005C02E10150210804E2210E42
:100A2600206F000E216FF50E356F220E366F000E09
:100A3600376F6D0E386F010E396F20C23AF221C240
:100A46003BF244DC6D0E256F010E266F20C227F2A5
:100A560021C228F2AADD4BD0020E1E25E96E000E39
:100A66001F21EA6EEECF03F0EECF04F004C001F0D2
:100A7600026A000E021802E1210E011838E1060E84
:100A86001E25E96E000E1F21EA6EEECF01F0EECFB5
:100A960002F001C020F202C021F2000E006E0250E8
:100AA600005C02E10150090804E2090E206F000E05
:100AB600216FCC0E356F220E366F000E376F120E79
:100AC6003527000E362337236D0E386F010E396F2A
:100AD60020C23AF221C23BF269EC01F06D0E256F9D
:100AE600010E266F20C227F221C228F25EDD2AD02F
:100AF600320E256F000E266F010E276F000E286F2F
:100B060054DD20D0020E1E25E96E000E1F21EA6E6E
:100B1600EECF32F047DD16D022C2E9FF23C2EAFF4C
:100B2600EE50060AD8B452D722C2E9FF23C2EAFF22
:100B3600EE500A0ADDE022C2E9FF23C2EAFFEE50C8
:100B46000B0AE0E008D02451200AD8B4CED62451AE
:080B5600000AD8B434D71200E4
:100B5E001EC2E9F01FC2EAF020C2EBF021C2ECF097
:0E0B6E0020C2EDF021C2EEF0020E5E6E12000B
:100B7C0014C2E9FF15C2EAFFEECF00F01F0E0014FD
:100B8C0002011D6F7ED06CC11BF2000E1C6F85D054
:100B9C001B6B1C6B82D0040E1425056E000E1521E8
:100BAC00066E05C0E9FF06C0EAFF0F0EEE14016EDB
:100BBC0001C016F201C003F0000E046E03360436B9
:100BCC00039003360436039003C000F004C001F018
:100BDC00003600900136003600900136000E0024DD
:100BEC00176F040E0120186F05C0E9FF06C0EAFF5D
:100BFC00EECF02F0EECF03F002AE09D0E80E196F83
:100C0C00000E1A6F080E1727000E182304D0640E5E
:100C1C00196F000E1A6F0B0E006E000E016E16C2CD
:100C2C0004F0000E056EAEEC00F0195100261A51BE
:100C3C00012200C019F201C01AF200C0E9FF01C084
:100C4C00EAFFEECF03F003C000F0000E016E003699
:100C5C0000900136003600900136175100261851CD
:100C6C00012200C017F201C018F200C0E9FF01C058
:100C7C00EAFFEECF00F01B6B00B41B2B000E1C6FB9
:100C8C000CD01D51000AD8B47ED71D51010AD8B41E
:100C9C007FD71D51020AD8B47ED71B0E1E6F020ED1
:0E0CAC001F6F020E206F000E216F53DF12002B
:100CBA00010E02011425E96E000E1521EA6EEE50AE
:100CCA00030A03E1010E1B6F01D01B6B14C2E9FF7B
:100CDA0015C2EAFFEECF00F01F0E00141C6F1CD1E4
:100CEA00020E1425E96E000E1521EA6EEECF01F010
:100CFA00EECF02F0000E021802E1010E011817E110
:100D0A00040E5E6E1B5307E0020E01016C11006EA9
:100D1A0000C06CF10BD00101FD0E6C15006E00C015
:100D2A006CF114C21EF215C21FF2D0DD1BD00201F3
:100D3A001B5316E0020E1425E96E000E1521EA6E09
:100D4A00EECF01F0EECF02F0000E021802E1020E21
:100D5A00011805E114C21EF215C21FF2B7DD02D056
:100D6A00060E5E6EE5D014C21EF215C21FF2AEDD8B
:100D7A00DFD0020E1425E96E000E1521EA6EEECFC1
:100D8A0001F0EECF02F0000E021802E1000E011887
:100D9A00D8A4BCD0040E1425E96E000E1521EA6E03
:100DAA000F0EEE14006EEECF01F0000E0116005089
:100DBA000110D8B4A8D0040E1425056E000E152112
:100DCA00066E05C0E9FF06C0EAFF0F0EEE14016EBB
:100DDA0001C016F201C003F0000E046E0336043699
:100DEA00039003360436039003C000F004C001F0F8
:100DFA00003600900136003600900136000E0024BD
:100E0A00176F040E0120186F05C0E9FF06C0EAFF3C
:100E1A00EECF02F0EECF03F002AE04D0080E172791
:100E2A00000E18231B5322E017C2E9FF18C2EAFF7B
:100E3A0017C2E1FF18C2E2FF840EEE12040E172554
:100E4A00016E000E1821026E01C017F202C018F2DC
:100E5A0001C0E9FF02C0EAFF840EEE10006E01C075
:100E6A00E1FF02C0E2FF00C0E6FF4DD017C2E9FF72
:100E7A0018C2EAFF17C2E1FF18C2E2FF7B0EEE16A4
:100E8A00040E1725016E000E1821026E01C017F21A
:100E9A0002C018F201C0E9FF02C0EAFF7B0EEE149D
:100EAA00006E01C0E1FF02C0E2FF00C0E6FF040ECF
:100EBA001425E96E000E1521EA6EEECF02F0EECF90
:100ECA0003F002AE05D0E80E196F000E1A6F04D0B7
:100EDA00640E196F000E1A6F0B0E006E000E016E73
:100EEA0016C204F0000E056EAEEC00F01951002691
:100EFA001A51012200C019F201C01AF200C0E1FF22
:100F0A0001C0E2FFE66A040E5E6E05D014C21EF24C
:100F1A0015C21FF2DBDC0CD01C51000AD8B4E0D693
:100F2A001C51010AD8B41FD71C51020AD8B421D7C0
:020F3A001200A3
:100F3C00020E02011425E96E000E1521EA6EEECFA9
:100F4C0001F0EECF02F002C01BF21C6B91D0010E2F
:100F5C00256F266B276B286B296B14EC03F000C0F4
:100F6C0016F201C017F26E50000A05E1080E196F57
:100F7C00000E1A6F0AD016C2E9FF17C2EAFFEECFB5
:100F8C0019F2000E1A6F000E1A6F86D0020E14257D
:100F9C00E96E000E1521EA6EEECF01F001C018F2D9
:100FAC0001500001615D03E2060E5E6E98D0020EE8
:100FBC000201256F18C226F2000E276F286B296BD1
:100FCC0014EC03F000C016F201C017F2020E00245C
:100FDC00E96E000E0120EA6EEECF05F0030E002440
:100FEC00E96E000E0120EA6EEECF03F0000E046EE7
:100FFC0003C001F0006A05500024196F000E012097
:10100C001A6F4AD0030E256F020E1425E96E000EDE
:10101C001521EA6EFF0EEE14266FEECF27F2000EAE
:10102C002717040E1425E96E000E1521EA6EEECF7B
:10103C0028F2EECF29F214EC03F000C016F201C036
:10104C0017F2000E011802E1000E001803E1060E63
:10105C005E6E45D016C2E9FF17C2EAFFEECF19F259
:10106C00000E1A6F000E1A6F17D0060E5E6E37D078
:10107C00000E1C1902E1010E1B19D8B468D7000E22
:10108C001C1902E1020E1B1981E0000E1C1902E171
:10109C00030E1B19B7E0E9D7060E1425D96E000E06
:1010AC001521DA6EDECF01F0DECF02F01A51025CB0
:1010BC0002E11951015C0AE2060E1425E96E000EDC
:1010CC001521EA6EEECF19F2EECF1AF216C21EF20D
:1010DC0017C21FF219C220F21AC221F23ADD120015
:1010EC00020E02011425E96E000E1521EA6EEECFF8
:1010FC0001F001C016F201500001615D03E2060E21
:10110C005E6E2CD05C50080A12E102011651000AE6
:10111C0003E1040E5E6E08D0100E5C6E040E5E6E63
:10112C0016C21EF2E6EC03F016C262F017D05C5049
:10113C00100A12E102011651000A05E1080E5C6E5C
:10114C00040E5E6E06D0040E5E6E16C21EF2E6EC47
:0E115C0003F016C262F002D0060E5E6E1200A4
:0E116A0002011051010A02E1010E316E120065
:10117800010E02011025126F000E1121136F63D0AA
:1011880010C214F211C215F2F5DCABD010C214F281
:1011980011C215F28EDDA5D0020E02011025006ED7
:1011A800000E1121016E00C0E9FF01C0EAFFEECF79
:1011B80063F000C0E9FF01C0EAFFEECF02F0EECF16
:1011C80003F0000E031802E1000E021803E0080EF7
:1011D8005C6E02D0040E5C6E040E5E6E82D010C28D
:1011E800E9FF11C2EAFFEECF00F01F0E0014016EF6
:1011F8000150000A06E110C214F211C215F29ADE7B
:1012080006D010C21EF211C21FF26BEC04F069D0B6
:101218000201620E1E6F000E1F6F010E206F000E7E
:10122800216F99DC5ED010C214F211C215F25ADF98
:1012380058D010C21EF211C21FF26BEC04F051D04C
:10124800060E5E6E4ED012C2E9FF13C2EAFFEE50E0
:10125800000A96E012C2E9FF13C2EAFFEE50010A43
:1012680095E012C2E9FF13C2EAFFEE50030A8EE0CE
:1012780012C2E9FF13C2EAFFEE50050A8DE012C25E
:10128800E9FF13C2EAFFEE50060AA9E012C2E9FF1D
:1012980013C2EAFFEE50080ABBE012C2E9FF13C20C
:1012A800EAFFEE50090ABFE012C2E9FF13C2EAFFE3
:1012B800EE50070ABEE012C2E9FF13C2EAFFEE5081
:1012C8000C0AB7E012C2E9FF13C2EAFFEE500A0A9D
:1012D800B0E012C2E9FF13C2EAFFEE500B0AA9E020
:0412E800AFD712006A
:1012EC0002011051010A0AE1010E306E010E2E6F3F
:0E12FC00000E2F6F050E306F8AEC01F012000D
:10130A00700E5A6E0F0E5B6E586A596A000E595C5F
:10131A0002E10C0E585C0AE25AC0E1FF5BC0E2FF30
:0E132A00E66A5A4A5B2A584A592AF0D712003E
:10133800000E5A6E040E5B6E586A596A000E595CAC
:1013480002E1C00E585C0AE25AC0E1FF5BC0E2FF4E
:10135800E66A5A4A5B2A584A592AF0D75C0E5A6EEE
:10136800000E5B6E586A596A010E595C02E1110E53
:10137800585C0AE25AC0E1FF5BC0E2FFE66A5A4ADB
:0A1388005B2A584A592AF0D71200D8
:1013920016D00001E96BEA6BEB6BEC6BED6BEE6B5D
:1013A2000001010EE86F800E0201356F880E366F64
:1013B200D6EC00F017D016D003EC03F013D0000ED9
:1013C200000A02E1040E5E18E4E0000E000A02E1E7
:1013D200020E5E18E5E0000E000A02E1030E5E183E
:0613E200EAE0EAD7120068
:1013E80001C2EDF102C2EEF1030E02010125036E06
:1013F800000E0221046E03C0E9FF04C0EAFFEECF2D
:1014080000F0000E00BE010E416E03C0E9FF04C0EB
:10141800EAFFEECF02F002C000F00036009003C0F1
:10142800E1FF04C0E2FF00C0E6FF030E0101ED2565
:10143800E16E000EEE21E26E020EED25E96E000E61
:10144800EE21EA6EEECF00F000BE02D0E69001D0A9
:10145800E680020EED25E16E000EEE21E26E41B04F
:0A14680002D0E69E01D0E68E1200CD
:10147200A69C00C2A9FFA69EA680A8CF00F01200DB
:101482006B6A6A6A696A686A3FDF160E6F6E6E6A15
:1014920052DF9F0E6B6E7B0E696E6D8C6D9C160E0D
:0C14A200706E080E6D6E5C6A5E6A1200CF
:1014AE00A6A202D00000FCD7A69C01C2A9FF02C2D0
:1014BE00A8FFA69EA684F2CF00F0F29E550EA76E50
:1014CE00AA0EA76EA68200BE02D0F29E01D0F28EA8
:0414DE00A6941200BE
:1014E2004AC0E9FF4BC0EAFFEECF00F03C0E001409
:1014F200016E01C006F00632069E0632069E06C046
:101502000CF2010E4A24E96E000E4B20EA6EEECF79
:1015120005F04AC0E9FF4BC0EAFFEECF00F0000E33
:10152200016E030E0014036E01C004F0000E0416D7
:1015320003C001F0006A0050051002010D6F000E99
:1015420001100E6F06500D0A42E17F0E04010815CC
:10155200006E00C008F47F0E0C15006E00C00CF483
:101562004CC0E9FF4DC0EAFFEECF00F04CC0E1FFF6
:101572004DC0E2FF7F0E0014E66E500E02013E6F78
:10158200000E3F6FC00E406F040E416F080E426F97
:101592000EEC00F000C00AF201C00BF200C0E9FF3D
:1015A20001C0EAFF600EEE14016E0150000A06E16E
:1015B2000AC210F20BC211F2DEDD06D00AC21EF21E
:1015C2000BC21FF26BEC04F06D98E2DE99D10201BE
:1015D2000C51010AD8A4BAD0000E000A02E1050E8D
:1015E2005E1804E15E6A36EC02F0AFD0000E000A2B
:1015F20002E1030E5E18D8A4A8D00201010E4E2407
:10160200E96E000E4F20EA6EEECF3EF2EECF3FF2D1
:10161200C00E406F040E416F0DC242F20EEC00F09C
:10162200050E4E24026E000E4F20036E02C0E9FF2B
:1016320003C0EAFF0D51EE5C006E0E51EE58016ED2
:1016420002C0E1FF03C0E2FF00C0E6FF01C0E6FF07
:10165200010E4E24026E000E4F20036E02C0E9FFFF
:1016620003C0EAFF0D51EE24006E0E51EE20016E12
:1016720002C0E1FF03C0E2FF00C0E6FF01C0E6FFD7
:10168200030E4E24026E000E4F20036E02C0E9FFCD
:1016920003C0EAFF0D51EE24006E0E51EE20016EE2
:1016A20002C0E1FF03C0E2FF00C0E6FF01C0E6FFA7
:1016B200000E0E5D04E10001605102010D5D2DE29C
:1016C200E80E086F000E096F010E0825E16E000E8C
:1016D2000921E26EC00EE66E040EE66E030E0825C8
:1016E200E16E000E0921E26EE66AE66A050E082541
:1016F200E16E000E0921E26EE66AE66A08C2E1FFC7
:1017020009C2E2FF010EE66E800E356F880E366F5B
:10171200D6EC00F0040E5E6E12D04EC0E9FF4FC050
:10172200EAFFEECF00F04EC0E1FF4FC0E2FF010E34
:101732000018E66E356B880E366FD6EC00F0106B33
:101742000DC211F20EC212F20FDDDAD002010F6BDE
:10175200050E4E24E96E000E4F20EA6EEECF01F028
:10176200EECF02F0000E021803E1000160510118F1
:101772000CE1000E006E5750005C03E10001565070
:10178200605D03E2010E02010F6F0201050E4E249D
:10179200026E000E4F20036E02C0E9FF03C0EAFF93
:1017A2000D51EE5C006E0E51EE58016E02C0E1FF6B
:1017B20003C0E2FF00C0E6FF01C0E6FF010E4E24B7
:1017C200026E000E4F20036E02C0E9FF03C0EAFF63
:1017D2000D51EE24006E0E51EE20016E02C0E1FFAB
:1017E20003C0E2FF00C0E6FF01C0E6FF050E4E2483
:1017F200E96E000E4F20EA6EEECF01F0EECF02F05E
:10180200000E006E0250005C02E10150000816E377
:10181200050E4E24E96E000E4F20EA6EEECF01F067
:10182200EECF02F0000E021802E1000E011805E1EF
:1018320002010F51010A01E101D015D002014EC08F
:10184200E9FF4FC0EAFFEECF00F04EC0E1FF4FC00C
:10185200E2FF010E0018E66E800E356F880E366FBD
:10186200D6EC00F04BD00201800E356F840E366F3D
:10187200D6EC00F0000E000A02E1020E5E1830E122
:10188200050E5E6E640E086F000E096F010E0825CC
:10189200E16E000E0921E26EC00EE66E040EE66EE7
:1018A200030E0825E16E000E0921E26E080EE66EB7
:1018B200000EE66E050E0825E16E000E0921E26EAD
:1018C200080EE66E000EE66E08C2E1FF09C2E2FFF4
:1018D200010EE66E356B880E366FD6EC00F00ED038
:1018E200000E000A02E1040E5E1808E15C50080ACC
:1018F20002E163C06EFF5E6A36EC02F0106BF5DC4B
:021902001200D1
:1019040003500718D8A496EF0CF002500618D8A478
:1019140096EF0CF001500518D8A496EF0CF0005087
:0E1924000418D8B4D8841200D894120012000F
:1019320000C2C9FFC7B002D00000FCD7C9CF00F077
:02194200120091
:101944000900F5CFE6FF0006FBE10106F9E112000C
:0219540012007F
:101956008A94376A3C6A0101F7A102D0800E376E7D
:10196600F7A302D0010E3C6EF7A501D03C82080E0B
:101976003C100201006FDADF37C000F2D7DF1F0E1E
:101986000014366E0201006BD1DF00C035F08A8488
:0E19960036A804D0000E3512E00E36121200F4
:0819A400806A816A826A120068
:0419AC00F26A1200C9
:1019B000320E386E190E396E000E3A6E020E3B6E04
:1019C000FF0E466EFF0E476EFF0E486EFF0E496E0D
:1019D000949E0101F751040A02E1938201D093928F
:1019E0009380C66AF751C612F951C612F851C71250
:1019F000F95305E0FA51000AD8B4C78C03D0FA5362
:081A0000D8A4C78CC68A1200AD
:0A1A0800060EC16E070EB46E120048
:0A1A12008A849394356A366A120044
:101A1C0001C53DF002C53EF003C53FF004C540F0E2
:101A2C003D0E0201016F000E026FD8DC3DC000F0CC
:101A3C003EC001F03FC002F040C003F0046A056AEA
:101A4C00066A076A59DF000ED8A4010E006E005218
:101A5C0053E00201016B01C502F223DD4E0E0C6E48
:101A6C00EB0E0D6E0D2EFED70C2EFCD7010E0201C7
:101A7C00016F02C502F215DD4E0E0C6EEB0E0D6EF3
:101A8C000D2EFED70C2EFCD7020E0201016F03C5E2
:101A9C0002F207DD4E0E0C6EEB0E0D6E0D2EFED708
:101AAC000C2EFCD7030E0201016F04C502F2F9DC07
:101ABC004E0E0C6EEB0E0D6E0D2EFED70C2EFCD7B3
:101ACC00040E0201016F05C502F2EBDC4E0E0C6E2A
:101ADC00EB0E0D6E0D2EFED70C2EFCD7050E020153
:101AEC00016F06C502F2DDDC4E0E0C6EEB0E0D6EB8
:101AFC000D2EFED70C2EFCD707C542F008C543F0BF
:101B0C0009C544F00AC545F0420E0201016F000EF2
:101B1C00026F64DC42C000F043C001F044C002F02C
:101B2C0045C003F0046A056A066A076AE5DE000E22
:101B3C00D8A4010E006E005254E0060E0201016F93
:101B4C0007C502F2AEDC4E0E0C6EEB0E0D6E0D2EBA
:101B5C00FED70C2EFCD7070E0201016F08C502F24E
:101B6C00A0DC4E0E0C6EEB0E0D6E0D2EFED70C2E59
:101B7C00FCD7080E0201016F09C502F292DC4E0E71
:101B8C000C6EEB0E0D6E0D2EFED70C2EFCD7090E27
:101B9C000201016F0AC502F284DC4E0E0C6EEB0ED4
:101BAC000D6E0D2EFED70C2EFCD70A0E0201016F06
:101BBC000BC502F276DC4E0E0C6EEB0E0D6E0D2E7E
:101BCC00FED70C2EFCD70B0E0201016F0CC502F2D6
:101BDC0068DC4E0E0C6EEB0E0D6E0D2EFED70C2E21
:041BEC00FCD7120010
:101BF0005C50000A07E1080E6D6E010E5C6E686AAB
:101C0000020E5C6E68506914016E01A413D05DC0B1
:101C10005CF0080E0201256F81EC03F06994FF0E61
:101C2000036F68A407D003C200F00307005202E06C
:101C30006894F7D768506914016E01A042D021DC86
:101C4000010E0201256F266B276B286B296B14ECA4
:101C500003F0070E0024E96E000E0120EA6EEECFBD
:101C600060F0110E0024E96E000E0120EA6EEECF46
:101C700061F0040E5C6E60C06CF0000E00016D6FD0
:101C800060C0F0F0000EF16F020E0201256F81ECD2
:101C900003F0C00E0001656F040E666F080E676FDB
:101CA000000E686F080E696F000E6A6F646B65C086
:101CB00002F466C003F4080E0401016F8C0E006F7D
:101CC000689068506914016E01A80BD06898698407
:101CD0005CC05DF0200E5C6E060E0201256F81EC8B
:101CE00003F068506914016E01AC06D00201689CD3
:101CF000080E256F81EC03F068506914016E01AA8B
:101D000003D070B07090689A68506914016E01A297
:101D100002D06A6A6892040E5C5C02E2A19ACAD0A0
:101D20000201066B040E065DD8B0C3D0685069147A
:101D3000016E01A6BBD06CCF5FF05FC000F0003237
:101D4000009E0032009E0032009E0F0E0014016EB5
:101D500001C007F2689601C003F0000E046E03365E
:101D60000436039003360436039003C000F004C029
:101D700001F0003600900136003600900136000E6A
:101D800000244A6E040E01204B6E5FA409D0E80EB9
:101D90004E6E000E4F6E080E4A26000E4B2204D0E7
:101DA000640E4E6E000E4F6E0B0E006E000E016E36
:101DB00007C204F0000E056EAEEC00F000504E2697
:101DC00001504F22040E4A244C6E000E4B204D6EE3
:101DD0005FA208D04AC04CF04BC04DF0040E4A261A
:101DE000000E4B2202010A0E4E24016E000E4F20FF
:101DF000026E01C0E9FF02C0EAFF010EEE18006E9C
:101E000001C0E1FF02C0E2FF00C0E6FF0751000A87
:101E100003E171EC0AF04AD05FA412D04EC0E9FF92
:101E20004FC0EAFFEECF00F04EC0E1FF4FC0E2FF2F
:101E3000010E0018E66E07C210F276EC09F036D0FB
:101E40000201010E4A24E96E000E4B20EA6EEECF2D
:101E500005F04AC0E9FF4BC0EAFFEECF00F0000EEC
:101E6000016E030E0014036E01C004F0000E041690
:101E700003C001F0006A00500510046F000E01104D
:101E8000056F4EC0E9FF4FC0EAFFEECF00F04EC035
:101E9000E1FF4FC0E2FF010E0018E66E07C210F22C
:101EA00004C211F205C212F2B5EC08F00201062BD1
:061EB00039D7A19A1200CF
:101EB6000B0E006E000E016EF7C104F0000E056EEB
:101EC600AEEC00F0E80E0026000E012200C0FCF188
:101ED60001C0FDF1010E0024E16E000E0120E26E4C
:101EE600F8C1E6FFF9C1E6FF030E0101FC25E16E2C
:101EF600000EFD21E26EFAC1E6FFFBC1E6FF050E0C
:101F0600FC25E16E000EFD21E26EFAC1E6FFFBC183
:101F1600E6FFF7C100F0000E016E003601360090B4
:101F2600003601360090020E0026000E01220A0E2F
:101F3600FC25D96E000EFD21DA6EDE500024036EFC
:101F4600000E0120046E03C000F004C001F000364C
:101F560000900136003600900136000E0026040E71
:101F6600012200C0FEF101C0FFF1020E0024E16E65
:101F7600000E0120E26EF8C1E6FFF9C1E6FF010E90
:101F8600FE25E16E000EFF21E26EFAC1E6FFFBC1FF
:101F960000F0016A030E0014036EFCC1E9FFFDC1E7
:101FA600EAFFEECF02F0060E016E02C000F001500D
:101FB60004E000360090FF0FFBD703500012FEC16D
:0E1FC600E1FFFFC1E2FF880E0010E66E120080
:101FD4000201006B39EC0AF000C074F5010E006FC9
:101FE40039EC0AF000C075F5020E006F39EC0AF006
:101FF40000C076F5030E006F39EC0AF000C077F5E7
:10200400040E006F39EC0AF000C078F5050E006F7D
:1020140039EC0AF000C079F5060E006F39EC0AF0CD
:1020240000C07AF5070E006F39EC0AF000C07BF5AA
:10203400080E006F39EC0AF000C07CF5090E006F41
:1020440039EC0AF000C07DF50A0E006F39EC0AF095
:1020540000C07EF50B0E006F39EC0AF000C07FF56E
:02206400120068
:062066005CC000F0120056
:10206C00B0EC11F00101EF6BF06BF16BF26BF36BF9
:10207C00F46BF56BF66B90DCC1DC92DC010EF76F48
:10208C00F86BF96B010EFA6F8DDC5EDC41EC0AF03B
:10209C00D08EA28AA08AF28EB6DC96DFDEDF0050EC
:1020AC00100A01E0FBD7899092908980315207E0A9
:1020BC0005010051A30A02E1ABDC86DF316A0101A4
:1020CC00F06BEF6B190EEF5D67E2F76B3EDC36AE33
:1020DC0031D035C000F036C001F0FF0E046EFF0E9B
:1020EC00056EAEEC00F000C0F3F101C0F4F101019B
:1020FC00F1510024036EF2510120046E03C000F074
:10210C0004C001F001320032019E00C035F001C064
:10211C0036F0FF0E046EFF0E056EAEEC00F000C044
:10212C0035F001C036F0130E0D6E0D2EFED70000EB
:10213C00000012D0010135C0F3F136C0F4F1F151B9
:10214C003526F251362236323532369E3B0E0D6E26
:10215C000D2EFED700000000F3C1F1F1F4C1F2F135
:10216C00400EE16E050EE26EF051E126D8B0E22A87
:10217C0035C0E6FFF051010F006E016A000E01221E
:10218C00400E0024E16E050E0120E26E36C0E6FF23
:10219C00020EF027EF2B96D7020EF76FABEC0CF07C
:1021AC0035C072F536C073F58990306A010E0101A5
:1021BC00F76F400EF86F050EF96F400EFA6F000EB8
:1021CC00FB6F73DEF56BF66B30520AE1F54BF62BB9
:1021DC00F651EA0802E1F551600801E201D0F4D7AA
:0421EC0064D7FFD7DE
:1021F000156ED8CF16F0E0CF17F01750E06E1650DE
:08220000D86E153A15381000E4
:1022080000C023F001C022F002C021F003C020F07A
:1022180004C01FF005C01EF006C01DF007C01CF06A
:1022280008C01BF009C01AF00AC019F00BC018F05A
:10223800D9CF2EF0DACF2FF0E1CF2CF0E2CF2DF06E
:10224800E9CF2AF0EACF2BF0F3CF28F0F4CF29F02A
:10225800F5CF27F0F8CF24F0F7CF25F0F6CF26F00A
:10226800C3DC27C0F5FF24C0F8FF25C0F7FF26C050
:10227800F6FF28C0F3FF29C0F4FF23C000F022C0F6
:1022880001F021C002F020C003F01FC004F01EC0FE
:1022980005F01DC006F01CC007F01BC008F01AC0EE
:1022A80009F019C00AF018C00BF02AC0E9FF2BC0CA
:1022B800EAFF2CC0E1FF2DC0E2FF2EC0D9FF2FC0DE
:0422C800DAFF110028
:1023600010EE30F0050E006E010E016E540EF66E8A
:0E237000230EF76E000EF86EA2EC0CF01200B9
:1022CC0009022900010104E03209040000020300A4
:1022DC0000050921010100012221000705810340AD
:0922EC0000010705010340000197
:1022F5000600FF0901A10119012940150026FF006B
:10230500750895408102190129407508954091028B
:01231500C007
:10231600555342204261747465727920416E616C36
:05232600797A657200E8
:10232B001201000200000040BD1F04000001010269
:02233B0003019C
:0C233D00495455424130313030303100FD
:0B234900494E46524120546563680075
:012354000088
:012355000087
:012356000086
:012357000085
:012358000084
:04235900040309046C
:01235D00007F
:01235E00007E
:020000040030CA
:0E000000240E3E1EFF0381FF00800FE00F4024
:0200000400F00A
:100000000000803F00000000803F0000FFFFFFFF76
:10001000FFFFFFFFFFFFFFFFFFFFFFFFFFFFFFFFF0
:10002000FFFFFFFFFFFFFFFFFFFFFFFFFFFFFFFFE0
:10003000FFFFFFFFFFFFFFFFFFFFFFFFFFFFFFFFD0
:10004000FFFFFFFFFFFFFFFFFFFFFFFFFFFFFFFFC0
:10005000FFFFFFFFFFFFFFFFFFFFFFFFFFFFFFFFB0
:10006000FFFFFFFFFFFFFFFFFFFFFFFFFFFFFFFFA0
:10007000FFFFFFFFFFFFFFFFFFFFFFFFFFFFFFFF90
:10008000FFFFFFFFFFFFFFFFFFFFFFFFFFFFFFFF80
:10009000FFFFFFFFFFFFFFFFFFFFFFFFFFFFFFFF70
:1000A000FFFFFFFFFFFFFFFFFFFFFFFFFFFFFFFF60
:1000B000FFFFFFFFFFFFFFFFFFFFFFFFFFFFFFFF50
:1000C000FFFFFFFFFFFFFFFFFFFFFFFFFFFFFFFF40
:1000D000FFFFFFFFFFFFFFFFFFFFFFFFFFFFFFFF30
:1000E000FFFFFFFFFFFFFFFFFFFFFFFFFFFFFFFF20
:1000F000FFFFFFFFFFFFFFFFFFFFFFFFFFFFFFFF10
:00000001FF

