:10000000E3EF0FF0000000000DEF11F00000000022
:0C001000000000000000000001EF11F0F3
:10001C0035C204F036C205F033C202F034C203F02C
:10002C0037C200F00201370700520FE004C0E9FFAD
:10003C0005C0EAFF02C0E1FF03C0E2FFEECFE6FF1E
:10004C00024A032A044A052AEBD733C200F034C211
:04005C0001F012009D
:1000600002012F6B306B2AC201F02BC202F02CC2AE
:1000700003F0000E046E000E006E041808E100503C
:10008000031805E10050021802E10150000A65E082
:100090002AC205F02BC206F02CC207F005C0F6FFFD
:1000A00006C0F7FF07C0F8FF0900F5CF01F00150C7
:1000B000000A07E0302B010E0526000E062207225B
:1000C000EDD730C200F000360090020E002600C0CE
:1000D00030F22AC205F02BC206F02CC207F02F51D5
:1000E0002D25E16E000E2E21E26E00C0E6FF2F2BC3
:1000F0002F512D25E16E000E2E21E26E030EE66ECD
:100100002F2B05C0F6FF06C0F7FF07C0F8FF090058
:10011000F5CF01F00150000A20E02F512D25E16EAE
:10012000000E2E21E26E05C0F6FF06C0F7FF07C0E5
:10013000F8FF0900F5CF00F000C0E6FF2F2B010EFD
:100140000526000E062207222F512D25E16E000EF6
:0C0150002E21E26EE66A2F2BD4D712009D
:10015C000B6A0A6A096A00500402F4CF09F0F3CF63
:10016C0008F001500502F4CF0BF0F3CF0AF0005069
:10017C000502F3500926F4500A22E86A0B220150BA
:10018C000402F3500926F4500A22E86A0B2208C034
:10019C0000F009C001F00AC002F00BC003F012001D
:1001AC0002012AAF07D0E10E2E6F000E2F6F020E48
:1001BC00306F05D05D0E2E6F000E2F6F306B0A0E58
:1001CC002E25D96E000E2F21DA6EDE503025036EEF
:1001DC00046A000E042203C000F004C001F00036D3
:1001EC0000900136003600900136000E00242C6F72
:1001FC00040E01202D6F050E2E25E96E000E2F2109
:10020C00EA6EEECF01F0EECF02F0000E006E02505F
:10021C00005C02E10150595C05E259C031F2000E5C
:10022C00326F0AD0050E2E25E96E000E2F21EA6ED4
:10023C00EECF31F2EECF32F2C00E336F040E346FCC
:10024C00010E2E25E96E000E2F21EA6EEECF35F24F
:10025C00EECF36F231C237F2DBDE020E2C25E16E28
:10026C00000E2D21E26EC00E006E040E016E00C059
:10027C00E6FF01C0E6FF010E2C25E16E000E2D21DC
:10028C00E26E31C2E6FF030E3215036E2EC2E9FF99
:10029C002FC2EAFFEECF02F0060E016E02C000F094
:1002AC00015004E000360090FF0FFBD70350001202
:1002BC002CC2E1FF2DC2E2FF2B510010E66E1200A2
:1002CC00016A026A02013051025C02E12F51015CA9
:1002DC0017E201502D25E16E02502E21E26E0150E5
:1002EC002A25F66E02502B21F76E000E2C21F86E8B
:1002FC000900F5CF00F000C0E6FF014A022AE2D760
:02030C001200DD
:10030E000B0E006E000E016E23C204F0000E056E81
:10031E001EDF5D0E0026000E012200C026F201C077
:10032E0027F2010E0024E16E000E0120E26E24C2BF
:10033E00E6FF25C2E6FF030E02012625E16E000E42
:10034E002721E26E080E2625E96E000E2721EA6EA1
:10035E00EECFE6FFEECFE6FF050E2625E16E000E90
:10036E002721E26E080E2625E96E000E2721EA6E81
:10037E00EECFE6FFEECFE6FF23C200F0000E016ED9
:10038E000036013600900036013600900A0E262502
:10039E00D96E000E2721DA6EDE500024036E000E99
:1003AE000120046E03C000F004C001F0003600907E
:1003BE000136003600900136000E0026040E012292
:1003CE0000C028F201C029F2020E0024E16E000ED8
:1003DE000120E26E010E2625E96E000E2721EA6E3F
:1003EE00EECFE6FFEECFE6FF010E2825E16E000E02
:1003FE002921E26E080E2625E96E000E2721EA6EEF
:10040E00EECFE6FF080E2625E96E000E2721EA6ED6
:10041E00EECF03F0EECF04F004C000F0016A030E3D
:10042E000014036E26C2E9FF27C2EAFFEECF02F0E8
:10043E00060E016E02C000F0015004E0003600907E
:10044E00FF0FFBD70350001228C2E1FF29C2E2FFC3
:08045E00880E0010E66E12008A
:10046600C00E5E6E040E5F6E080E0001606F000E19
:10047600616F080E626F000E636F5D6A02012A6B80
:080486008C0E2B6F90DE1200BA
:10048E0075D05F0E006E230E016E000E026E00C060
:10049E002AF201C02BF202C02CF2680E02012D6F5F
:1004AE00010E2E6F00C0F6FF01C0F7FF02C0F8FF6D
:1004BE000900F5CF2FF2000E306F01DF680E006ECF
:1004CE00010E016E67D04B0E2A6F230E2B6F000E9E
:1004DE002C6F680E2D6F010E2E6FBBDD680E006E39
:1004EE00010E016E57D0180E2A6F230E2B6F000EC1
:1004FE002C6F680E2D6F010E2E6FABDD680E006E29
:10050E00010E016E47D03F0E2A6F230E2B6F000E89
:10051E002C6F680E2D6F010E2E6F9BDD680E006E18
:10052E00010E016E37D0640E2A6F230E2B6F000E54
:10053E002C6F680E2D6F010E2E6F8BDD680E006E08
:10054E00010E016E27D0630E2A6F230E2B6F000E45
:10055E002C6F680E2D6F010E2E6F7BDD680E006EF8
:10056E00010E016E17D0006A016A14D002012351E8
:10057E00000A87E02351010AA6E02351020AB3E0E4
:10058E002351030AC0E02351040ACDE02351050A8A
:06059E00DAE0E9D71200CB
:0605A400040E576E120068
:1005AA00E10E006E000E016E010E0024E16E000ED7
:1005BA000120E26E1AC2E6FF1BC2E6FF030E002408
:1005CA00E16E000E0120E26E1CC2E6FF1DC2E6FFCC
:1005DA00050E0024E16E000E0120E26E1CC2E6FF49
:1005EA001DC2E6FF00C0E1FF01C0E2FF010EE66E98
:0605FA00020E576E120014
:100600000001E26BE36BE46BE56BE66BE76B010EFD
:10061000E16F800E02012A6F840E2B6FC7DD23DF8E
:020620001200C6
:1006220060D02D0E006E230E016E000E026E00C011
:100632002AF201C02BF202C02CF2680E02012D6FC9
:10064200010E2E6F00C0F6FF01C0F7FF02C0F8FFD7
:100652000900F5CF2FF2000E306F37DE680E006E04
:10066200010E016E49D0CE0E006E220E016E000EFA
:10067200026E00C02AF201C02BF202C02CF2680EF8
:100682002D6F010E2E6F020E0024F66E000E012059
:10069200F76E000E0220F86E0900F5CF04F0030E8B
:1006A2000024F66E000E0120F76E000E0220F86E96
:1006B2000900F5CF03F003C001F0006A04500024E2
:1006C2002F6F000E0120306F00DE680E006E010EEB
:1006D200016E12D01BC223F2D9DE0ED0006A016A6B
:1006E2000BD002011A51010A9CE01A51020ABBE026
:0A06F2001A51030AEFE0F2D71200DC
:1006FC0009D0010E0201236F000E246F050E256F29
:0E070C0000DE04D002011A51050AF3E01200CB
:10071A000F0E02011A15206F216B226B1AAF06D039
:10072A00E10E1E6F000E1F6F218305D05D0E1E6F36
:10073A00000E1F6F21850B0E006E000E016E20C287
:10074A0004F0000E056E05DD1E5100261F51012220
:10075A0000C01EF201C01FF2070E0024E16E000E57
:10076A000120E26E1BC2E6FF1EC2E1FF1FC2E2FFCA
:10077A00E66A080E1E25E16E000E1F21E26E1CC2FB
:10078A00E6FF1DC2E6FF21871B51010AD8A4218971
:10079A00700E016E0F0E026E20510126D8B0022A89
:1007AA0001C0E9FF02C0EAFF2151EE10006E01C04C
:0C07BA00E1FF02C0E2FF00C0E6FF1200F9
:1007C6000201156B166B13C2E9FF14C2EAFFEECFE6
:1007D60000F0600E0014196F2DD1010E1325176F4E
:1007E600000E1421186F31D0020E1325E96E000E8B
:1007F6001421EA6EEECF36F0D2DE58D0360E1A6FDE
:10080600000E1B6F010E1C6F000E1D6FCBDE4ED04F
:10081600020E1325E96E000E1421EA6EEECF03F0E8
:10082600EECF04F004C000F0016A00C035F0B7DE78
:100836003DD0350E1A6F000E1B6F010E1C6F000E99
:100846001D6FB0DE33D0D9DEFDD017C2E9FF18C266
:10085600EAFFEECF01F0000E000A02E10B0E0118CE
:10086600C3E017C2E9FF18C2EAFFEECF01F0000E9F
:10087600000A02E1030E0118C1E017C2E9FF18C21F
:10088600EAFFEECF01F0000E000A02E10A0E01189F
:10089600BFE017C2E9FF18C2EAFFEECF01F0000E73
:1008A600000A02E1020E0118C4E0CDD7CBD0010E3A
:1008B6001325176F000E1421186FA5D0020E1325ED
:1008C600E96E000E1421EA6EEECF03F0EECF04F0CF
:1008D60004C001F0026A0250000A02E1220E011869
:1008E60033E1060E1325E96E000E1421EA6EEECFF3
:1008F60001F0EECF02F001C015F202C016F2000EB2
:10090600006E0250005C02E10150210804E2210E53
:10091600156F000E166FF70E2A6F220E2B6F000E44
:100926002C6F680E2D6F010E2E6F15C22FF216C298
:1009360030F2C9DC680E1A6F010E1B6F15C21CF26D
:1009460016C21DF22FDE4AD0020E1325E96E000EE6
:100956001421EA6EEECF03F0EECF04F004C001F0EE
:10096600026A000E021802E1210E011837E1060E96
:100976001325E96E000E1421EA6EEECF01F0EECFDC
:1009860002F001C015F202C016F2000E006E02500F
:10099600005C02E10150090804E2090E156F000E21
:1009A600166FCE0E2A6F220E2B6F000E2C6F120EB4
:1009B6002A27000E2B232C23680E2D6F010E2E6F77
:1009C60015C22FF216C230F27EDC680E1A6F010EC7
:1009D6001B6F15C21CF216C21DF2E4DD2AD0340EBE
:1009E6001A6F000E1B6F010E1C6F000E1D6FDADDF5
:1009F60020D0020E1325E96E000E1421EA6EEECF0A
:100A060034F0CDDD16D017C2E9FF18C2EAFFEE506A
:100A1600060AD8B453D717C2E9FF18C2EAFFEE5048
:100A26000A0ADDE017C2E9FF18C2EAFFEE500B0A18
:100A3600E0E008D01951200AD8B4CFD61951000ADF
:060A4600D8B435D7120000
:100A4C00020E02011A6F13C21BF2000E1C6F1D6BFB
:100A5C001E6BE1DD00C016F201C017F2020E00247D
:100A6C00E96E000E0120EA6EEECF05F0030E0024B5
:100A7C00E96E000E0120EA6EEECF03F0000E046E5C
:100A8C0003C001F0006A05500024146F000E012011
:100A9C00156F010E1625E96E000E1721EA6EEE5049
:100AAC00050A2FE1020E1625E96E000E1721EA6EDB
:100ABC00EECF1AF2030E1625E96E000E1721EA6E20
:100ACC00EECF06F0040E1625E96E000E1721EA6E25
:100ADC00EECF05F0050E1625E96E000E1721EA6E15
:100AEC00EECF03F0000E046E03C001F0006A055057
:100AFC0000241C6F000E01201D6F030E06141B6FCB
:100B0C0006DE16C2D9FF17C2DAFFDE50145D006E86
:100B1C00000E1559016E00C014F201C015F2005000
:100B2C0001100AE016C2E9FF17C2EAFFEECF00F08F
:100B3C0000501627000E172314511511AAE1100EA0
:0A0B4C00556E050E1A6FD4DD12007D
:100B560013C2E2F014C2E3F015C2E4F016C2E5F0E7
:0E0B660015C2E6F016C2E7F0020E576E12003E
:100B740009C2E9FF0AC2EAFFEECF00F01F0E00141B
:100B84000201126F7ED065C110F2000E116F85D084
:100B9400106B116B82D0040E0925056E000E0A211C
:100BA400066E05C0E9FF06C0EAFF0F0EEE14016EE3
:100BB40001C00BF201C003F0000E046E03360436CC
:100BC400039003360436039003C000F004C001F020
:100BD400003600900136003600900136000E0024E5
:100BE4000C6F040E01200D6F05C0E9FF06C0EAFF7B
:100BF400EECF02F0EECF03F002AE09D0E10E0E6F9D
:100C0400000E0F6F080E0C27000E0D2304D05D0E8E
:100C14000E6F000E0F6F0B0E006E000E016E0BC2F6
:100C240004F0000E056EAEEC00F00E5100260F51DC
:100C3400012200C00EF201C00FF200C0E9FF01C0A2
:100C4400EAFFEECF03F003C000F0000E016E0036A1
:100C5400009001360036009001360C5100260D51EB
:100C6400012200C00CF201C00DF200C0E9FF01C076
:100C7400EAFFEECF00F0106B00B4102B000E116FE2
:100C84000CD01251000AD8B47ED71251010AD8B43C
:100C94007FD71251020AD8B47ED7100E136F020EFA
:0E0CA400146F020E156F000E166F53DF120054
:100CB200010E02010925E96E000E0A21EA6EEE50CC
:100CC200030A03E1010E106F01D0106B09C2E9FFA4
:100CD2000AC2EAFFEECF00F01F0E0014116F1CD102
:100CE200020E0925E96E000E0A21EA6EEECF01F02E
:100CF200EECF02F0000E021802E1010E011817E118
:100D0200040E576E105307E0020E01016511006ECA
:100D120000C065F10BD00101FD0E6515006E00C02B
:100D220065F109C213F20AC214F24CDD1BD00201B2
:100D3200105316E0020E0925E96E000E0A21EA6E32
:100D4200EECF01F0EECF02F0000E021802E1020E29
:100D5200011805E109C213F20AC214F233DD02D00E
:100D6200060E576EE5D009C213F20AC214F22ADD4A
:100D7200DFD0020E0925E96E000E0A21EA6EEECFDF
:100D820001F0EECF02F0000E021802E1000E01188F
:100D9200D8A4BCD0040E0925E96E000E0A21EA6E21
:100DA2000F0EEE14006EEECF01F0000E0116005091
:100DB2000110D8B4A8D0040E0925056E000E0A2130
:100DC200066E05C0E9FF06C0EAFF0F0EEE14016EC3
:100DD20001C00BF201C003F0000E046E03360436AC
:100DE200039003360436039003C000F004C001F000
:100DF200003600900136003600900136000E0024C5
:100E02000C6F040E01200D6F05C0E9FF06C0EAFF5A
:100E1200EECF02F0EECF03F002AE04D0080E0C27A4
:100E2200000E0D23105322E00CC2E9FF0DC2EAFFAF
:100E32000CC2E1FF0DC2E2FF840EEE12040E0C257D
:100E4200016E000E0D21026E01C00CF202C00DF205
:100E520001C0E9FF02C0EAFF840EEE10006E01C07D
:100E6200E1FF02C0E2FF00C0E6FF4DD00CC2E9FF85
:100E72000DC2EAFF0CC2E1FF0DC2E2FF7B0EEE16CD
:100E8200040E0C25016E000E0D21026E01C00CF243
:100E920002C00DF201C0E9FF02C0EAFF7B0EEE14B0
:100EA200006E01C0E1FF02C0E2FF00C0E6FF040ED7
:100EB2000925E96E000E0A21EA6EEECF02F0EECFAE
:100EC20003F002AE05D0E10E0E6F000E0F6F04D0DC
:100ED2005D0E0E6F000E0F6F0B0E006E000E016E98
:100EE2000BC204F0000E056EAEEC00F00E510026AF
:100EF2000F51012200C00EF201C00FF200C0E1FF4B
:100F020001C0E2FFE66A040E576E05D009C213F271
:100F12000AC214F257DC0CD01151000AD8B4E0D640
:100F22001151010AD8B41FD71151020AD8B421D7DE
:020F32001200AB
:100F3400020E02010925E96E000E0A21EA6EEECFC7
:100F440001F001C00BF201505A5C03E2060E576E29
:100F540028D05550080A10E10B51000A03E1040E91
:100F6400576E07D0100E556E040E576E0BC213F257
:100F74006BDD0BC25BF015D05550100A10E10B511C
:100F8400000A05E1080E556E040E576E05D0040ED6
:100F9400576E0BC213F258DD0BC25BF002D0060E83
:040FA400576E120072
:100FA800020E02010925E96E000E0A21EA6EEECF53
:100FB80001F0EECF02F002C010F2116B8FD0010EDB
:100FC8001A6F1B6B1C6B1D6B1E6B11EC03F000C0C2
:100FD8000BF201C00CF26E50000A05E1080E0E6F0C
:100FE800000E0F6F0AD00BC2E9FF0CC2EAFFEECF6A
:100FF8000EF2000E0F6F000E0F6F84D0020E09253F
:10100800E96E000E0A21EA6EEECF01F001C00DF282
:1010180001505A5C03E2060E576E97D0020E1A6F03
:101028000DC21BF2000E1C6F1D6B1E6B11EC03F042
:1010380000C00BF201C00CF2020E0024E96E000E93
:101048000120EA6EEECF05F0030E0024E96E000ED3
:101058000120EA6EEECF03F0000E046E03C001F02B
:10106800006A055000240E6F000E01200F6F4AD051
:10107800030E1A6F020E0925E96E000E0A21EA6EA8
:10108800FF0EEE141B6FEECF1CF2000E1C17040EA1
:101098000925E96E000E0A21EA6EEECF1DF2EECFA9
:1010A8001EF211EC03F000C00BF201C00CF2000EAE
:1010B800011802E1000E001803E1060E576E45D034
:1010C8000BC2E9FF0CC2EAFFEECF0EF2000E0F6F63
:1010D800000E0F6F17D0060E576E37D0000E11197D
:1010E80002E1010E1019D8B46AD7000E111902E1F5
:1010F800020E101983E0000E111902E1030E1019F7
:10110800B7E0E9D7060E0925D96E000E0A21DA6E76
:10111800DECF01F0DECF02F00F51025C02E10E518A
:10112800015C0AE2060E0925E96E000E0A21EA6E44
:10113800EECF0EF2EECF0FF20BC213F20CC214F286
:0C1148000EC215F20FC216F202DD1200FA
:1011540016D00001E26BE36BE46BE56BE66BE76BC7
:101164000001010EE16F800E02012A6F880E2B6FC1
:10117400D6EC00F017D016D000EC03F013D0000E1C
:10118400000A02E1040E5718E4E0000E000A02E12E
:10119400020E5718E5E0000E000A02E1030E57188C
:0611A400EAE0EAD71200A8
:1011AA0002010551010A0AE1010E2E6E010E236F9A
:0E11BA00000E246F050E256F87EC01F0120069
:1011C800010E02010525076F000E0621086F62D087
:1011D80005C209F206C20AF2C9DCAAD005C209F2A0
:1011E80006C20AF262DDA4D0020E02010525006ED5
:1011F800000E0621016E00C0E9FF01C0EAFFEECF34
:101208005CF000C0E9FF01C0EAFFEECF02F0EECFCC
:1012180003F0000E031802E1000E021803E0080EA6
:10122800556E02D0040E556E040E576E81D005C25D
:10123800E9FF06C2EAFFEECF00F01F0E0014016EB0
:101248000150000A06E105C209F206C20AF2A8DE48
:1012580006D005C213F206C214F2E3EC03F068D01C
:101268005B0E136F000E146F010E156F000E166FD4
:101278006EDC5ED005C209F206C20AF257DE58D00B
:1012880005C213F206C214F2E3EC03F051D0060EC5
:10129800576E4ED007C2E9FF08C2EAFFEE50000AB7
:1012A80097E007C2E9FF08C2EAFFEE50010A96E09C
:1012B80007C2E9FF08C2EAFFEE50030A8FE007C23F
:1012C800E9FF08C2EAFFEE50050A8EE007C2E9FF0F
:1012D80008C2EAFFEE50060AAAE007C2E9FF08C200
:1012E800EAFFEE50080ABCE007C2E9FF08C2EAFFBD
:1012F800EE50090ABFE007C2E9FF08C2EAFFEE5054
:10130800070ABEE007C2E9FF08C2EAFFEE500C0A6E
:10131800B7E007C2E9FF08C2EAFFEE500A0AB0E0E8
:1013280007C2E9FF08C2EAFFEE500B0AA9E0AFD7EF
:021338001200A1
:10133A00000E536E040E546E0101666B676B000E4D
:10134A00675D02E1C00E665D0AE253C0E1FF54C068
:10135A00E2FFE66A534A542A664B672BF0D7550ECA
:10136A00536E000E546E666B676B010E675D02E189
:10137A00110E665D0AE253C0E1FF54C0E2FFE66A5D
:0C138A00534A542A664B672BF0D7120020
:10139600700E536E0F0E546E0101666B676B000E76
:1013A600675D02E10C0E665D0AE253C0E1FF54C0C0
:1013B600E2FFE66A534A542A664B672BF0D71200BF
:0E13C60002010551010A02E1010E316E120012
:1013D4006B6A6A6A696A686ADCDF160E6F6E6E6A27
:1013E400AADF9F0E6B6E7B0E696E6D8C6D9C160E64
:0C13F400706E080E6D6E556A576A12008C
:10140000EFC1C9FFC7B002D00000FCD7C9CF00F0C0
:021410001200C8
:10141200A69CEFC1A9FFA69EA680A8CF00F012004D
:10142200A6A202D00000FCD7A69CEFC1A9FFF0C182
:10143200A8FFA69EA684F2CF00F0F29E550EA76EDC
:10144200AA0EA76EA68200BE02D0F29E01D0F28E34
:04145200A69412004A
:101456000B0E006E000E016EEFC104F0000E056E5D
:10146600AEEC00F0E10E0026000E012200C0F4F101
:1014760001C0F5F1010E0024E16E000E0120E26EBE
:10148600F0C1E6FFF1C1E6FF030E0101F425E16EAE
:10149600000EF521E26EF2C1E6FFF3C1E6FF050E8E
:1014A600F425E16E000EF521E26EF2C1E6FFF3C10E
:1014B600E6FFEFC100F0000E016E00360136009027
:1014C600003601360090020E0026000E01220A0E9A
:1014D600F425D96E000EF521DA6EDE500024036E77
:1014E600000E0120046E03C000F004C001F00036B7
:1014F60000900136003600900136000E0026040EDC
:10150600012200C0F6F101C0F7F1020E0024E16EDF
:10151600000E0120E26EF0C1E6FFF1C1E6FF010E0A
:10152600F625E16E000EF721E26EF2C1E6FFF3C189
:1015360000F0016A030E0014036EF4C1E9FFF5C161
:10154600EAFFEECF02F0060E016E02C000F0015077
:1015560004E000360090FF0FFBD703500012F6C1DF
:0E156600E1FFF7C1E2FF880E0010E66E1200F2
:1015740045C0E9FF46C0EAFFEECF00F03C0E001480
:10158400016E01C006F00632069E0632069E06C0B3
:10159400FFF1010E4524E96E000E4620EA6EEECFFF
:1015A40005F045C0E9FF46C0EAFFEECF00F0000EAB
:1015B400016E030E0014036E01C004F0000E041645
:1015C40003C001F0006A005005100201036F000E11
:1015D4000110046F06500D0A42E17F0E0401081544
:1015E400006E00C008F47F0E0C15006E00C00CF4F1
:1015F40047C0E9FF48C0EAFFEECF00F047C0E1FF73
:1016040048C0E2FF7F0E0014E66E4B0E0201336FFA
:10161400000E346FC00E356F040E366F080E376F30
:101624000EEC00F000C001F201C002F200C0E9FFBC
:1016340001C0EAFF600EEE14016E0150000A06E1DB
:1016440001C205F202C206F2BDDD06D001C213F2E8
:1016540002C214F2E3EC03F06D987ADD99D1010132
:10166400FF51010AD8A4BAD0000E000A02E1050E07
:10167400571804E1576A33EC02F0AFD0000E000AA9
:1016840002E1030E5718D8A4A8D00201010E492480
:10169400E96E000E4A20EA6EEECF33F2EECF34F25A
:1016A400C00E356F040E366F03C237F20EEC00F035
:1016B400050E4924026E000E4A20036E02C0E9FFA3
:1016C40003C0EAFF0351EE5C006E0451EE58016E54
:1016D40002C0E1FF03C0E2FF00C0E6FF01C0E6FF75
:1016E400010E4924026E000E4A20036E02C0E9FF77
:1016F40003C0EAFF0351EE24006E0451EE20016E94
:1017040002C0E1FF03C0E2FF00C0E6FF01C0E6FF44
:10171400030E4924026E000E4A20036E02C0E9FF44
:1017240003C0EAFF0351EE24006E0451EE20016E63
:1017340002C0E1FF03C0E2FF00C0E6FF01C0E6FF14
:10174400000E045D02E15950035D2FE2E10E010138
:10175400FD6F000EFE6F010EFD25E16E000EFE21F1
:10176400E26EC00EE66E040EE66E030EFD25E16E1B
:10177400000EFE21E26EE66AE66A050EFD25E16EC4
:10178400000EFE21E26EE66AE66AFDC1E1FFFEC1DB
:10179400E2FF010EE66E800E02012A6F880E2B6FA7
:1017A400D6EC00F0040E576E12D049C0E9FF4AC0CF
:1017B400EAFFEECF00F049C0E1FF4AC0E2FF010EAC
:1017C4000018E66E2A6B880E2B6FD6EC00F0056BC2
:1017D40003C206F204C207F2F4DDDAD00201006BA0
:1017E400050E4924E96E000E4A20EA6EEECF01F0A0
:1017F400EECF02F0000E021802E1595001180BE17D
:10180400000E006E5250005C02E15150595C03E23C
:101814000201010E006F0201050E4924026E000E42
:101824004A20036E02C0E9FF03C0EAFF0351EE5CE5
:10183400006E0451EE58016E02C0E1FF03C0E2FFE6
:1018440000C0E6FF01C0E6FF010E4924026E000E4F
:101854004A20036E02C0E9FF03C0EAFF0351EE24ED
:10186400006E0451EE20016E02C0E1FF03C0E2FFEE
:1018740000C0E6FF01C0E6FF050E4924E96E000E34
:101884004A20EA6EEECF01F0EECF02F0000E006EB9
:101894000250005C02E10150000816E3050E4924E1
:1018A400E96E000E4A20EA6EEECF01F0EECF02F0B0
:1018B400000E021802E1000E011805E102010051B8
:1018C400010A01E101D015D0020149C0E9FF4AC073
:1018D400EAFFEECF00F049C0E1FF4AC0E2FF010E8B
:1018E4000018E66E800E2A6F880E2B6FD6EC00F07F
:1018F4004DD00201800E2A6F840E2B6FD6EC00F0BF
:10190400000E000A02E1020E571832E1050E576E6E
:101914005D0E0101FD6F000EFE6F010EFD25E16EEF
:10192400000EFE21E26EC00EE66E040EE66E030E9D
:10193400FD25E16E000EFE21E26E080EE66E000E3D
:10194400E66E050EFD25E16E000EFE21E26E080E28
:10195400E66E000EE66EFDC1E1FFFEC1E2FF010E80
:10196400E66E02012A6B880E2B6FD6EC00F00ED0C7
:10197400000E000A02E1040E571808E15550080A47
:1019840002E15CC06EFF576A33EC02F0056B0BDCBE
:0219940012003F
:08199600806A816A826A120076
:10199E000900F5CFE6FF0006FBE10106F9E11200B2
:1019AE008A94386A376A0101EBA102D0800E386E34
:1019BE00EBA301D03780EBA501D03782080E37108C
:1019CE00EF6F17DD38C0EFF114DD1F0E0014406EFF
:1019DE000101EF6B0EDD00C03FF08A8440A804D0F9
:0A19EE00000E3F12E00E401212003E
:0219F8001200DB
:1019FA00000E396E140E3A6EEF0E3B6E010E3C6EFF
:101A0A00FF0E416EFF0E426EFF0E436EFF0E446ED6
:101A1A00949E0101EB51040A02E1938201D0939250
:101A2A009380C66AEB51C612ED51C612EC51C71229
:101A3A00ED5305E0EE51000AD8B4C78C03D0EE533B
:081A4A00D8A4C78CC68A120063
:0A1A5200060EC16E070EB46E1200FE
:041A5C00F26A120018
:0A1A60008A8493943F6A406A1200E2
:101A6A000101EBA120D0EC6B040EEC5D1CE2ECC191
:101A7A00EFF1EC51020F006E016A000E0122000E16
:101A8A000024E96E050E0120EA6EEECFF0F1C4DC07
:101A9A004E0E0C6EEB0E0D6E0D2EFED70C2EFCD7D5
:101AAA000101EC2BE1D7EBA321D0040EEC6F080E59
:101ABA00EC5D1CE2ECC1EFF1EC51020F006E016A21
:101ACA00000E0122000E0024E96E050E0120EA6EC6
:101ADA00EECFF0F1A1DC4E0E0C6EEB0E0D6E0D2E5C
:101AEA00FED70C2EFCD70101EC2BE1D7EBA521D0B8
:101AFA00080EEC6F0C0EEC5D1CE2ECC1EFF1EC5140
:101B0A00020F006E016A000E0122000E0024E96E27
:101B1A00050E0120EA6EEECFF0F17EDC4E0E0C6E61
:101B2A00EB0E0D6E0D2EFED70C2EFCD70101EC2B01
:101B3A00E1D7EBA721D00C0EEC6F100EEC5D1CE286
:101B4A00ECC1EFF1EC51020F006E016A000E0122A6
:101B5A00000E0024E96E050E0120EA6EEECFF0F1C8
:101B6A005BDC4E0E0C6EEB0E0D6E0D2EFED70C2EA0
:0A1B7A00FCD70101EC2BE1D71200AB
:101B84005550000A07E1080E6D6E010E556E686A25
:101B9400020E556E68506914016E01A414D056C02B
:101BA40055F0080E02011A6F7EEC03F06994FF0EE3
:101BB4000101F86F68A407D0F8C100F0F8070052DB
:101BC40002E06894F7D768506914016E01A043D00D
:101BD400EAEC09F0010E02011A6F1B6B1C6B1D6B02
:101BE4001E6B11EC03F0070E0024E96E000E0120B9
:101BF400EA6EEECF59F0110E0024E96E000E0120BA
:101C0400EA6EEECF5AF0040E556E59C065F0000E20
:101C14000001666F59C0E9F0000EEA6F020E02017E
:101C24001A6F7EEC03F0C00E5E6E040E5F6E080E3B
:101C34000001606F000E616F080E626F000E636F2B
:101C44005D6A5EC002F45FC003F4080E0401016F14
:101C54008C0E006F689068506914016E01A80BD057
:101C64006898698455C056F0200E556E060E020120
:101C74001A6F7EEC03F068506914016E01AC06D053
:101C84000201689C080E1A6F7EEC03F06850691418
:101C9400016E01AA03D070B07090689A68506914FC
:101CA400016E01A202D06A6A6892040E555C02E2D7
:101CB400A19ACAD00101FB6B040EFB5DD8B0C3D05E
:101CC40068506914016E01A6BBD06CCF58F058C09F
:101CD40000F00032009E0032009E0032009E0F0E83
:101CE4000014016E01C0FCF1689601C003F0000EFF
:101CF400046E03360436039003360436039003C09F
:101D040000F004C001F00036009001360036009067
:101D14000136000E0024456E040E0120466E58A4C0
:101D240009D0E10E496E000E4A6E080E4526000EDB
:101D3400462204D05D0E496E000E4A6E0B0E006EF4
:101D4400000E016EFCC104F0000E056EAEEC00F056
:101D54000050492601504A22040E4524476E000EC5
:101D64004620486E58A208D045C047F046C048F007
:101D7400040E4526000E462201010A0E4924016E76
:101D8400000E4A20026E01C0E9FF02C0EAFF010E04
:101D9400EE18006E01C0E1FF02C0E2FF00C0E6FFE2
:101DA400FC51000A03E1BAEC0AF04AD058A412D05C
:101DB40049C0E9FF4AC0EAFFEECF00F049C0E1FFA5
:101DC4004AC0E2FF010E0018E66EFCC105F2D5EC34
:101DD40008F036D0010E4524E96E000E4620EA6E66
:101DE400EECF05F045C0E9FF46C0EAFFEECF00F0B4
:101DF400000E016E030E0014036E01C004F0000E09
:101E0400041603C001F0006A005005100101F96FC7
:101E1400000E0110FA6F49C0E9FF4AC0EAFFEECF95
:101E240000F049C0E1FF4AC0E2FF010E0018E66E6F
:101E3400FCC105F2F9C106F2FAC107F2E3EC09F0BC
:0A1E44000101FB2B39D7A19A12000F
:101E4E002E6A010E0101EF6F400EF06F050EF16F5D
:101E5E00400EF26F000EF36F2BEC0AF0E80E3D6EA3
:101E6E00030E3E6E2E520DE1000E3E1802E1000EE4
:101E7E003D1802E1006A07D0010E3D5E000E3E5A8B
:081E8E00F1D7FF0E006E1200F7
:101E96000101EB6B040EEB5D20E2EB51300F006E9F
:101EA600016A000E0122400E0024EC6F050E01208F
:101EB600ED6FEBC1EFF109EC0AF0ECC1E1FFEDC10A
:101EC600E2FF00C0E6FF4E0E0C6EEB0E0D6E0D2E01
:101ED600FED70C2EFCD7EB2BDDD7040EEB6F080ECE
:101EE600EB5D20E2EB51300F006E016A000E01221D
:101EF600400E0024EC6F050E0120ED6FEBC1EFF1F3
:101F060009EC0AF0ECC1E1FFEDC1E2FF00C0E6FF1B
:101F16004E0E0C6EEB0E0D6E0D2EFED70C2EFCD754
:101F2600EB2BDDD7080EEB6F0C0EEB5D20E2EB51D1
:101F3600300F006E016A000E0122400E0024EC6F85
:101F4600050E0120ED6FEBC1EFF109EC0AF0ECC1D3
:101F5600E1FFEDC1E2FF00C0E6FF4E0E0C6EEB0E98
:101F66000D6E0D2EFED70C2EFCD7EB2BDDD70C0EEF
:101F7600EB6F100EEB5D20E2EB51300F006E016A45
:101F8600000E0122400E0024EC6F050E0120ED6FBD
:101F9600EBC1EFF109EC0AF0ECC1E1FFEDC1E2FFA4
:101FA60000C0E6FF4E0E0C6EEB0E0D6E0D2EFED72C
:0A1FB6000C2EFCD7EB2BDDD7120038
:061FC00055C000F0120004
:101FC600B3EC11F00101E86BE96BEA6BE1DC3EDD95
:101FD60042DD010EEB6FEC6BED6B010EEE6F0ADD71
:101FE60008DDEAEC09F0D08EA28AA08AF28E35DDF1
:101FF600E86B400EE85D14E2000EE16E050EE26E3F
:10200600E851E126D8B0E22AE66A400EE16E050EF6
:10201600E26EE851E126D8B0E22AE66AE82BE9D773
:1020260037DFCBDF0050100A01E0FBD78990929092
:102036008980315209E005010051A30A04E101C576
:10204600EBF110DD25DF316A0101E86B180EE85D62
:10205600D8B0D0D0EB6BA8DC40AE30D03FC000F09B
:1020660040C001F0FF0E046EFF0E056EAEEC00F0F0
:1020760000C0E9F101C0EAF132500024036E33508A
:102086000120046E03C000F004C001F001320032EA
:10209600019E00C03FF001C040F0FF0E046EFF0E2F
:1020A600056EAEEC00F000C03FF001C040F0130E2C
:1020B6000D6E0D2EFED70000000011D03FC0E9F1D5
:1020C60040C0EAF132503F263350402240323F3280
:1020D600409E3B0E0D6E0D2EFED700000000E9C19E
:1020E60032F0EAC133F0E8C100F0000E016E400E96
:1020F6000024E16E050E0120E26E3FC0E6FFE8C156
:1021060000F0000E016E004A012A400E0024E16E26
:10211600050E0120E26E40C0E6FF020E0101EB6FE4
:1021260043DC40AE30D03FC000F040C001F0FF0EAF
:10213600046EFF0E056EAEEC00F000C0E9F101C0C2
:10214600EAF12F500024036E30500120046E03C0C4
:1021560000F004C001F001320032019E00C03FF0E1
:1021660001C040F0FF0E046EFF0E056EAEEC00F0EF
:1021760000C03FF001C040F0130E0D6E0D2EFED7CD
:102186000000000011D03FC0E9F140C0EAF12F5035
:102196003F263050402240323F32409E3B0E0D6E6D
:1021A6000D2EFED700000000E9C12FF0EAC130F085
:1021B6000101E851180F006E016A000E0122400E5F
:1021C6000024E16E050E0120E26E3FC0E6FFE851F5
:1021D600180F006E016A000E0122004A012A400E05
:1021E6000024E16E050E0120E26E40C0E6FF020EFD
:0C21F600E8272CD7899028DE1BD7FFD7E4
:10220200156ED8CF16F0E0CF17F01750E06E1650CB
:08221200D86E153A15381000D2
:10221A0000C021F001C020F002C01FF003C01EF070
:10222A0004C01DF005C01CF008C01BF009C01AF05C
:10223A000AC019F00BC018F0D9CF2CF0DACF2DF064
:10224A00E1CF2AF0E2CF2BF0E9CF28F0EACF29F04C
:10225A00F3CF26F0F4CF27F0F5CF25F0F8CF22F010
:10226A00F7CF23F0F6CF24F088DC25C0F5FF22C093
:10227A00F8FF23C0F7FF24C0F6FF26C0F3FF27C0EC
:10228A00F4FF21C000F020C001F01FC002F01EC000
:10229A0003F01DC004F01CC005F01BC008F01AC0F2
:1022AA0009F019C00AF018C00BF028C0E9FF29C0CC
:1022BA00EAFF2AC0E1FF2BC0E2FF2CC0D9FF2DC0E4
:0422CA00DAFF110026
:1023660010EE2EF0090E006E010E016E560EF66E80
:0E237600230EF76E000EF86ECFEC0CF0120086
:1022CE0009022900010104E03209040000020300A2
:1022DE0000050921010100012221000705810340AB
:0922EE0000010705010340000195
:1022F7000600FF0901A10119012940150026FF0069
:102307007508954081021901294075089540910289
:01231700C005
:10231800555342204261747465727920416E616C34
:05232800797A657200E6
:10232D001201000200000040BD1F04000001010267
:02233D0003019A
:0C233F00495455424130313030303100FB
:0B234B00494E46524120546563680073
:012356000086
:02235700000084
:012359000083
:02235A00000081
:01235C000080
:01235D00007F
:01235E00007E
:04235F000403090466
:012363000079
:012364000078
:020000040030CA
:0E000000240E3E1EFF0381FF00800FE00F4024
:0200000400F00A
:100000000000803F0000803F0000803F0000803FF4
:10001000FFFFFFFFFFFFFFFFFFFFFFFFFFFFFFFFF0
:10002000FFFFFFFFFFFFFFFFFFFFFFFFFFFFFFFFE0
:10003000FFFFFFFFFFFFFFFFFFFFFFFFFFFFFFFFD0
:10004000FFFFFFFFFFFFFFFFFFFFFFFFFFFFFFFFC0
:10005000FFFFFFFFFFFFFFFFFFFFFFFFFFFFFFFFB0
:10006000FFFFFFFFFFFFFFFFFFFFFFFFFFFFFFFFA0
:10007000FFFFFFFFFFFFFFFFFFFFFFFFFFFFFFFF90
:10008000FFFFFFFFFFFFFFFFFFFFFFFFFFFFFFFF80
:10009000FFFFFFFFFFFFFFFFFFFFFFFFFFFFFFFF70
:1000A000FFFFFFFFFFFFFFFFFFFFFFFFFFFFFFFF60
:1000B000FFFFFFFFFFFFFFFFFFFFFFFFFFFFFFFF50
:1000C000FFFFFFFFFFFFFFFFFFFFFFFFFFFFFFFF40
:1000D000FFFFFFFFFFFFFFFFFFFFFFFFFFFFFFFF30
:1000E000FFFFFFFFFFFFFFFFFFFFFFFFFFFFFFFF20
:1000F000FFFFFFFFFFFFFFFFFFFFFFFFFFFFFFFF10
:00000001FF

