:100000007DEF0EF00000000036EF0FF00000000062
:0C00100000000000000000002AEF0FF0CC
:10001C0030C204F031C205F02EC202F02FC203F040
:10002C0032C200F00201320700520FE004C0E9FFB7
:10003C0005C0EAFF02C0E1FF03C0E2FFEECFE6FF1E
:10004C00024A032A044A052AEBD72EC200F02FC21B
:04005C0001F012009D
:1000600002012A6B2B6B25C201F026C202F027C2C7
:1000700003F0000E046E000E006E041808E100503C
:10008000031805E10050021802E10150000A65E082
:1000900025C205F026C206F027C207F005C0F6FF0C
:1000A00006C0F7FF07C0F8FF0900F5CF01F00150C7
:1000B000000A07E02B2B010E0526000E0622072260
:1000C000EDD72BC200F000360090020E002600C0D3
:1000D0002BF225C205F026C206F027C207F02A51EE
:1000E0002825E16E000E2921E26E00C0E6FF2A2BD2
:1000F0002A512825E16E000E2921E26E030EE66EDC
:100100002A2B05C0F6FF06C0F7FF07C0F8FF09005D
:10011000F5CF01F00150000A20E02A512825E16EB8
:10012000000E2921E26E05C0F6FF06C0F7FF07C0EA
:10013000F8FF0900F5CF00F000C0E6FF2A2B010E02
:100140000526000E062207222A512825E16E000E00
:0C0150002921E26EE66A2A2BD4D71200A7
:10015C000B6A0A6A096A00500402F4CF09F0F3CF63
:10016C0008F001500502F4CF0BF0F3CF0AF0005069
:10017C000502F3500926F4500A22E86A0B220150BA
:10018C000402F3500926F4500A22E86A0B2208C034
:10019C0000F009C001F00AC002F00BC003F012001D
:1001AC00020125AF07D0CA0E296F000E2A6F020E6E
:1001BC002B6F05D0460E296F000E2A6F2B6B0A0E83
:1001CC002925D96E000E2A21DA6EDE502B25036EFE
:1001DC00046A000E042203C000F004C001F00036D3
:1001EC0000900136003600900136000E0024276F77
:1001FC00040E0120286F050E2925E96E000E2A2118
:10020C00EA6EEECF01F0EECF02F0000E006E02505F
:10021C00005C02E10150425C05E242C02CF2000E8F
:10022C002D6F0AD0050E2925E96E000E2A21EA6EE3
:10023C00EECF2CF2EECF2DF2C00E2E6F040E2F6FE0
:10024C00010E2925E96E000E2A21EA6EEECF30F25E
:10025C00EECF31F22CC232F2DBDE020E2725E16E3C
:10026C00000E2821E26EC00E006E040E016E00C05E
:10027C00E6FF01C0E6FF010E2725E16E000E2821E6
:10028C00E26E2CC2E6FF030E2D15036E29C2E9FFA8
:10029C002AC2EAFFEECF02F0060E016E02C000F099
:1002AC00015004E000360090FF0FFBD70350001202
:1002BC0027C2E1FF28C2E2FF26510010E66E1200B1
:1002CC00016A026A02012B51025C02E12A51015CB3
:1002DC0017E201502825E16E02502921E26E0150EF
:1002EC002525F66E02502621F76E000E2721F86E9A
:1002FC000900F5CF00F000C0E6FF014A022AE2D760
:02030C001200DD
:10030E000B0E006E000E016E1EC204F0000E056E86
:10031E001EDF460E0026000E012200C021F201C093
:10032E0022F2010E0024E16E000E0120E26E1FC2C9
:10033E00E6FF20C2E6FF030E02012125E16E000E4C
:10034E002221E26E080E2125E96E000E2221EA6EB0
:10035E00EECFE6FFEECFE6FF050E2125E16E000E95
:10036E002221E26E080E2125E96E000E2221EA6E90
:10037E00EECFE6FFEECFE6FF1EC200F0000E016EDE
:10038E000036013600900036013600900A0E212507
:10039E00D96E000E2221DA6EDE500024036E000E9E
:1003AE000120046E03C000F004C001F0003600907E
:1003BE000136003600900136000E0026040E012292
:1003CE0000C023F201C024F2020E0024E16E000EE2
:1003DE000120E26E010E2125E96E000E2221EA6E49
:1003EE00EECFE6FFEECFE6FF010E2325E16E000E07
:1003FE002421E26E080E2125E96E000E2221EA6EFE
:10040E00EECFE6FF080E2125E96E000E2221EA6EE0
:10041E00EECF03F0EECF04F004C000F0016A030E3D
:10042E000014036E21C2E9FF22C2EAFFEECF02F0F2
:10043E00060E016E02C000F0015004E0003600907E
:10044E00FF0FFBD70350001223C2E1FF24C2E2FFCD
:08045E00880E0010E66E12008A
:10046600C00E476E040E486E080E496E000E4A6EA8
:10047600080E4B6E000E4C6E466A0201256B8C0E02
:06048600266F91DE12005A
:10048C0075D0DE0E006E1F0E016E000E026E00C0E7
:10049C0025F201C026F202C027F2600E0201286F7D
:1004AC00010E296F00C0F6FF01C0F7FF02C0F8FF74
:1004BC000900F5CF2AF2000E2B6F02DF600E006EE2
:1004CC00010E016E67D0AD0E256F1F0E266F000E4C
:1004DC00276F600E286F010E296FBCDD600E006E59
:1004EC00010E016E57D0BE0E256F1F0E266F000E2B
:1004FC00276F600E286F010E296FACDD600E006E49
:10050C00010E016E47D0CE0E256F1F0E266F000E0A
:10051C00276F600E286F010E296F9CDD600E006E38
:10052C00010E016E37D0840E256F1F0E266F000E44
:10053C00276F600E286F010E296F8CDD600E006E28
:10054C00010E016E27D06A0E256F1F0E266F000E4E
:10055C00276F600E286F010E296F7CDD600E006E18
:10056C00010E016E17D0006A016A14D002011E51EF
:10057C00000A87E01E51010AA6E01E51020AB3E0F0
:10058C001E51030AC0E01E51040ACDE01E51050A9B
:06059C00DAE0E9D71200CD
:0605A200040E406E120081
:1005A800CA0E006E000E016E010E0024E16E000EF0
:1005B8000120E26E15C2E6FF16C2E6FF030E002414
:1005C800E16E000E0120E26E17C2E6FF18C2E6FFD8
:1005D800050E0024E16E000E0120E26E17C2E6FF50
:1005E80018C2E6FF00C0E1FF01C0E2FF010EE66E9F
:0605F800020E406E12002D
:1005FE000001CB6BCC6BCD6BCE6BCF6BD06B010E8A
:10060E00CA6F800E0201256F840E266FC8DD24DFAF
:02061E001200C8
:1006200060D09B0E006E1F0E016E000E026E00C0A9
:1006300025F201C026F202C027F2600E0201286FE7
:10064000010E296F00C0F6FF01C0F7FF02C0F8FFDE
:100650000900F5CF2AF2000E2B6F38DE600E006E17
:10066000010E016E49D0200E006E1F0E016E000EAD
:10067000026E00C025F201C026F202C027F2600E11
:10068000286F010E296F020E0024F66E000E012065
:10069000F76E000E0220F86E0900F5CF04F0030E8D
:1006A0000024F66E000E0120F76E000E0220F86E98
:1006B0000900F5CF03F003C001F0006A04500024E4
:1006C0002A6F000E01202B6F01DE600E006E010EFE
:1006D000016E12D016C21EF2D9DE0ED0006A016A77
:1006E0000BD002011551010A9CE01551020ABBE032
:0A06F0001551030AEFE0F2D71200E3
:1006FA0009D0010E02011E6F000E1F6F050E206F3A
:0E070A0001DE04D002011551050AF3E01200D1
:100718000F0E020115151B6F1C6B1D6B15AF06D054
:10072800CA0E196F000E1A6F1C8305D0460E196F7A
:10073800000E1A6F1C850B0E006E000E016E1BC298
:1007480004F0000E056E06DD195100261A5101222B
:1007580000C019F201C01AF2070E0024E16E000E63
:100768000120E26E16C2E6FF19C2E1FF1AC2E2FFDB
:10077800E66A080E1925E16E000E1A21E26E17C20C
:10078800E6FF18C2E6FF1C871651010AD8A41C8987
:10079800700E016E0F0E026E1B510126D8B0022A90
:1007A80001C0E9FF02C0EAFF1C51EE10006E01C053
:0C07B800E1FF02C0E2FF00C0E6FF1200FB
:1007C4000201106B116B0EC2E9FF0FC2EAFFEECFFC
:1007D40000F0600E0014146F2DD1010E0E25126F5F
:1007E400000E0F21136F31D0020E0E25E96E000E9C
:1007F4000F21EA6EEECF32F0D2DE58D0320E156FF2
:10080400000E166F010E176F000E186FCBDE4ED060
:10081400020E0E25E96E000E0F21EA6EEECF03F0F4
:10082400EECF04F004C000F0016A00C031F0B7DE7E
:100834003DD0310E156F000E166F010E176F000EAE
:10084400186FB0DE33D0D9DEFDD012C2E9FF13C277
:10085400EAFFEECF01F0000E000A02E10B0E0118D0
:10086400C3E012C2E9FF13C2EAFFEECF01F0000EAB
:10087400000A02E1030E0118C1E012C2E9FF13C22B
:10088400EAFFEECF01F0000E000A02E10A0E0118A1
:10089400BFE012C2E9FF13C2EAFFEECF01F0000E7F
:1008A400000A02E1020E0118C4E0CDD7CBD0010E3C
:1008B4000E25126F000E0F21136FA5D0020E0E2508
:1008C400E96E000E0F21EA6EEECF03F0EECF04F0D6
:1008D40004C001F0026A0250000A02E1220E01186B
:1008E40033E1060E0E25E96E000E0F21EA6EEECFFF
:1008F40001F0EECF02F001C010F202C011F2000EBE
:10090400006E0250005C02E10150210804E2210E55
:10091400106F000E116F490E256F1F0E266F000E0B
:10092400276F600E286F010E296F10C22AF211C2C0
:100934002BF2CADC600E156F010E166F10C217F28F
:1009440011C218F22FDE4AD0020E0E25E96E000EF7
:100954000F21EA6EEECF03F0EECF04F004C001F0F5
:10096400026A000E021802E1210E011837E1060E98
:100974000E25E96E000E0F21EA6EEECF01F0EECFE8
:1009840002F001C010F202C011F2000E006E02501B
:10099400005C02E10150090804E2090E106F000E28
:1009A400116F200E256F1F0E266F000E276F120E7B
:1009B4002527000E26232723600E286F010E296F9A
:1009C40010C22AF211C22BF27FDC600E156F010EE9
:1009D400166F10C217F211C218F2E4DD2AD02F0EDE
:1009E400156F000E166F010E176F000E186FDADD0B
:1009F40020D0020E0E25E96E000E0F21EA6EEECF16
:100A04002FF0CDDD16D012C2E9FF13C2EAFFEE507B
:100A1400060AD8B453D712C2E9FF13C2EAFFEE5054
:100A24000A0ADDE012C2E9FF13C2EAFFEE500B0A24
:100A3400E0E008D01451200AD8B4CFD61451000AEB
:060A4400D8B435D7120002
:100A4A00020E0201156F0EC216F2000E176F186B16
:100A5A00196BE1DD00C011F201C012F2020E00248E
:100A6A00E96E000E0120EA6EEECF05F0030E0024B7
:100A7A00E96E000E0120EA6EEECF03F0000E046E5E
:100A8A0003C001F0006A055000240F6F000E012018
:100A9A00106F010E1125E96E000E1221EA6EEE505A
:100AAA00050A2FE1020E1125E96E000E1221EA6EE7
:100ABA00EECF15F2030E1125E96E000E1221EA6E31
:100ACA00EECF06F0040E1125E96E000E1221EA6E31
:100ADA00EECF05F0050E1125E96E000E1221EA6E21
:100AEA00EECF03F0000E046E03C001F0006A055059
:100AFA000024176F000E0120186F030E0614166FDC
:100B0A0006DE11C2D9FF12C2DAFFDE500F5D006E97
:100B1A00000E1059016E00C00FF201C010F2005011
:100B2A0001100AE011C2E9FF12C2EAFFEECF00F09B
:100B3A0000501127000E12230F511011AAE1100EB6
:0A0B4A003E6E050E156FD4DD12009B
:100B54000EC2CBF00FC2CCF010C2CDF011C2CEF059
:0E0B640010C2CFF011C2D0F0020E406E12008F
:100B720004C2E9FF05C2EAFFEECF00F01F0E001427
:100B820002010D6F7ED04EC10BF2000E0C6F85D0AC
:100B92000B6B0C6B82D0040E0425056E000E052132
:100BA200066E05C0E9FF06C0EAFF0F0EEE14016EE5
:100BB20001C006F201C003F0000E046E03360436D3
:100BC200039003360436039003C000F004C001F022
:100BD200003600900136003600900136000E0024E7
:100BE200076F040E0120086F05C0E9FF06C0EAFF87
:100BF200EECF02F0EECF03F002AE09D0CA0E096FBB
:100C0200000E0A6F080E0727000E082304D0460EB6
:100C1200096F000E0A6F0B0E006E000E016E06C207
:100C220004F0000E056EAEEC00F0095100260A51E8
:100C3200012200C009F201C00AF200C0E9FF01C0AE
:100C4200EAFFEECF03F003C000F0000E016E0036A3
:100C520000900136003600900136075100260851F7
:100C6200012200C007F201C008F200C0E9FF01C082
:100C7200EAFFEECF00F00B6B00B40B2B000E0C6FF3
:100C82000CD00D51000AD8B47ED70D51010AD8B448
:100C92007FD70D51020AD8B47ED70B0E0E6F020E0B
:0E0CA2000F6F020E106F000E116F53DF120065
:100CB000010E02010425E96E000E0521EA6EEE50D8
:100CC000030A03E1010E0B6F01D00B6B04C2E9FFB5
:100CD00005C2EAFFEECF00F01F0E00140C6F1CD10E
:100CE000020E0425E96E000E0521EA6EEECF01F03A
:100CF000EECF02F0000E021802E1010E011817E11A
:100D0000040E406E0B5307E0020E01014E11006EFF
:100D100000C04EF10BD00101FD0E4E15006E00C05B
:100D20004EF104C20EF205C20FF24CDD1BD00201DF
:100D30000B5316E0020E0425E96E000E0521EA6E43
:100D4000EECF01F0EECF02F0000E021802E1020E2B
:100D5000011805E104C20EF205C20FF233DD02D024
:100D6000060E406EE5D004C20EF205C20FF22ADD77
:100D7000DFD0020E0425E96E000E0521EA6EEECFEB
:100D800001F0EECF02F0000E021802E1000E011891
:100D9000D8A4BCD0040E0425E96E000E0521EA6E2D
:100DA0000F0EEE14006EEECF01F0000E0116005093
:100DB0000110D8B4A8D0040E0425056E000E05213C
:100DC000066E05C0E9FF06C0EAFF0F0EEE14016EC5
:100DD00001C006F201C003F0000E046E03360436B3
:100DE000039003360436039003C000F004C001F002
:100DF000003600900136003600900136000E0024C7
:100E0000076F040E0120086F05C0E9FF06C0EAFF66
:100E1000EECF02F0EECF03F002AE04D0080E0727AB
:100E2000000E08230B5322E007C2E9FF08C2EAFFC5
:100E300007C2E1FF08C2E2FF840EEE12040E07258E
:100E4000016E000E0821026E01C007F202C008F216
:100E500001C0E9FF02C0EAFF840EEE10006E01C07F
:100E6000E1FF02C0E2FF00C0E6FF4DD007C2E9FF8C
:100E700008C2EAFF07C2E1FF08C2E2FF7B0EEE16DE
:100E8000040E0725016E000E0821026E01C007F254
:100E900002C008F201C0E9FF02C0EAFF7B0EEE14B7
:100EA000006E01C0E1FF02C0E2FF00C0E6FF040ED9
:100EB0000425E96E000E0521EA6EEECF02F0EECFBA
:100EC00003F002AE05D0CA0E096F000E0A6F04D0FF
:100ED000460E096F000E0A6F0B0E006E000E016EBB
:100EE00006C204F0000E056EAEEC00F009510026BB
:100EF0000A51012200C009F201C00AF200C0E1FF5C
:100F000001C0E2FFE66A040E406E05D004C20EF294
:100F100005C20FF257DC0CD00C51000AD8B4E0D651
:100F20000C51010AD8B41FD70C51020AD8B421D7EA
:020F30001200AD
:100F3200020E02010425E96E000E0521EA6EEECFD3
:100F420001F0EECF02F002C00BF20C6B8FD0010E5B
:100F5200156F166B176B186B196B10EC03F000C052
:100F620006F201C007F26E50000A05E1080E096F91
:100F7200000E0A6F0AD006C2E9FF07C2EAFFEECFEF
:100F820009F2000E0A6F000E0A6F84D0020E0425C9
:100F9200E96E000E0521EA6EEECF01F001C008F203
:100FA2000150435C03E2060E406E97D0020E156FAD
:100FB20008C216F2000E176F186B196B10EC03F0D3
:100FC20000C006F201C007F2020E0024E96E000E14
:100FD2000120EA6EEECF05F0030E0024E96E000E4A
:100FE2000120EA6EEECF03F0000E046E03C001F0A2
:100FF200006A05500024096F000E01200A6F4AD0D2
:10100200030E156F020E0425E96E000E0521EA6E2D
:10101200FF0EEE14166FEECF17F2000E1717040E26
:101022000425E96E000E0521EA6EEECF18F2EECF2E
:1010320019F210EC03F000C006F201C007F2000E34
:10104200011802E1000E001803E1060E406E45D0C1
:1010520006C2E9FF07C2EAFFEECF09F2000E0A6FED
:10106200000E0A6F17D0060E406E37D0000E0C1914
:1010720002E1010E0B19D8B46AD7000E0C1902E175
:10108200020E0B1983E0000E0C1902E1030E0B197C
:10109200B7E0E9D7060E0425D96E000E0521DA6EF7
:1010A200DECF01F0DECF02F00A51025C02E109510B
:1010B200015C0AE2060E0425E96E000E0521EA6EC5
:1010C200EECF09F2EECF0AF206C20EF207C20FF21B
:0C10D20009C210F20AC211F23CDD12004B
:1010DE00020E02010425E96E000E0521EA6EEECF26
:1010EE0001F001C006F20150435C03E2060E406EB1
:1010FE0028D03E50080A10E10651000A03E1040E02
:10110E00406E07D0100E3E6E040E406E06C20EF2FA
:10111E0095DC06C244F015D03E50100A10E106517F
:10112E00000A05E1080E3E6E040E406E05D0040E58
:10113E00406E06C20EF282DC06C244F002D0060EEB
:04114E00406E1200DD
:0E11520002010151010A02E1010E306E12008D
:1011600016D00001CB6BCC6BCD6BCE6BCF6BD06B45
:101170000001010ECA6F800E0201256F880E266FD6
:10118000D6EC00F017D016D0FFEC02F013D0000E12
:10119000000A02E1040E4018E4E0000E000A02E139
:1011A000020E4018E5E0000E000A02E1030E4018AE
:0611B000EAE0EAD712009C
:1011B600700E3C6E0F0E3D6E0101E06BE16B000E92
:1011C600E15D02E10C0EE05D0AE23CC0E1FF3DC0DC
:1011D600E2FFE66A3C4A3D2AE04BE12BF0D71200DB
:1011E600000E3C6E040E3D6E0101E06BE16B000EDD
:1011F600E15D02E1C00EE05D0AE23CC0E1FF3DC0F8
:10120600E2FFE66A3C4A3D2AE04BE12BF0D73E0E70
:101216003C6E000E3D6EE06BE16B010EE15D02E19E
:10122600110EE05D0AE23CC0E1FF3DC0E2FFE66A66
:0C1236003C4A3D2AE04BE12BF0D71200AF
:101242000101FF51010A0BE1010E2E6E010E020196
:101252001E6F000E1F6F050E206F87EC01F012004B
:10126200010E020101250101FF6F000E02010221A0
:10127200006F62D001C204F202C205F279DCAAD088
:1012820001C204F202C205F212DDA4D0020E020172
:101292000125006E000E0221016E00C0E9FF01C0AF
:1012A200EAFFEECF45F000C0E9FF01C0EAFFEECF52
:1012B20002F0EECF03F0000E031802E1000E021856
:1012C20003E0080E3E6E02D0040E3E6E040E406E27
:1012D20081D001C2E9FF02C2EAFFEECF00F01F0E89
:1012E2000014016E0150000A06E101C204F202C2BA
:1012F20005F21EDE06D001C20EF202C20FF2E2ECCD
:1013020003F068D0440E0E6F000E0F6F010E106FC7
:10131200000E116F1EDC5ED001C204F202C205F2A1
:10132200DDDE58D001C20EF202C20FF2E2EC03F08F
:1013320051D0060E406E4ED0FFC1E9FF00C2EAFF57
:10134200EE50000A97E0FFC1E9FF00C2EAFFEE504B
:10135200010A96E0FFC1E9FF00C2EAFFEE50030A6C
:101362008FE0FFC1E9FF00C2EAFFEE50050A8EE0FE
:10137200FFC1E9FF00C2EAFFEE50060AAAE0FFC180
:10138200E9FF00C2EAFFEE50080ABCE0FFC1E9FF34
:1013920000C2EAFFEE50090ABFE0FFC1E9FF00C246
:1013A200EAFFEE50070ABEE0FFC1E9FF00C2EAFF12
:1013B200EE500C0AB7E0FFC1E9FF00C2EAFFEE50AF
:1013C2000A0AB0E0FFC1E9FF00C2EAFFEE500B0AD1
:0613D200A9E0AFD71200F4
:1013D8005EC1E9FF5FC1EAFFEECF00F03C0E0014EA
:1013E800016E01C006F00632069E0632069E06C051
:1013F800FBF1010E01015E25E96E000E5F21EA6E28
:10140800EECF05F05EC1E9FF5FC1EAFFEECF00F065
:10141800000E016E030E0014036E01C004F0000EEE
:10142800041603C001F0006A00500510FC6F000E9E
:101438000110FD6F06500D0A42E17F0E04010815E8
:10144800006E00C008F47F0E0C15006E00C00CF48E
:1014580052C1E9FF53C1EAFFEECF00F052C1E1FFEC
:1014680053C1E2FF7F0E0014E66E540E02012E6F88
:10147800010E2F6FC00E306F040E316F080E326FE1
:101488000EEC00F000C0F9F101C0FAF100C0E9FF6C
:1014980001C0EAFF600EEE14016E0150000A06E179
:1014A800F9C101F2FAC102F2D8DE06D0F9C10EF292
:1014B800FAC10FF2E2EC03F06D984EDE99D101010A
:1014C800FB51010AD8A4BCD0000E000A02E1050EA7
:1014D800401804E1406A33EC02F0B1D0000E000A73
:1014E80002E1030E4018D8A4AAD0010E01015C2520
:1014F800E96E000E5D21EA6EEECF2EF2EECF2FF2EE
:10150800C00E0201306F040E316FFCC132F20EECD6
:1015180000F0050E01015C25026E000E5D21036ED0
:1015280002C0E9FF03C0EAFFFC51EE5C006EFD510A
:10153800EE58016E02C0E1FF03C0E2FF00C0E6FF03
:1015480001C0E6FF010E5C25026E000E5D21036EF0
:1015580002C0E9FF03C0EAFFFC51EE24006EFD5112
:10156800EE20016E02C0E1FF03C0E2FF00C0E6FF0B
:1015780001C0E6FF030E5C25026E000E5D21036EBE
:1015880002C0E9FF03C0EAFFFC51EE24006EFD51E2
:10159800EE20016E02C0E1FF03C0E2FF00C0E6FFDB
:1015A80001C0E6FF000EFD5D02E14250FC5D2EE247
:1015B800CA0EF76F000EF86F010EF725E16E000EE8
:1015C800F821E26EC00EE66E040EE66E030EF725F5
:1015D800E16E000EF821E26EE66AE66A050EF7256E
:1015E800E16E000EF821E26EE66AE66AF7C1E1FFF5
:1015F800F8C1E2FF010EE66E800E0201256F880E2B
:10160800266FD6EC00F0040E406E13D002015CC1C8
:10161800E9FF5DC1EAFFEECF00F05CC1E1FF5DC10B
:10162800E2FF010E0018E66E256B880E266FD6ECD9
:1016380000F0016BFCC102F2FDC103F286DDD8D0D7
:101648000101FE6B050E5C25E96E000E5D21EA6E58
:10165800EECF01F0EECF02F0000E021802E1425088
:1016680001180AE1000E006E5B51005C02E15A515C
:10167800425C02E2010EFE6F050E5C25026E000E52
:101688005D21036E02C0E9FF03C0EAFFFC51EE5C76
:10169800006EFD51EE58016E02C0E1FF03C0E2FF8B
:1016A80000C0E6FF01C0E6FF010E5C25026E000ED9
:1016B8005D21036E02C0E9FF03C0EAFFFC51EE247E
:1016C800006EFD51EE20016E02C0E1FF03C0E2FF93
:1016D80000C0E6FF01C0E6FF050E5C25E96E000EBE
:1016E8005D21EA6EEECF01F0EECF02F0000E006E43
:1016F8000250005C02E10150000815E3050E5C256C
:10170800E96E000E5D21EA6EEECF01F0EECF02F039
:10171800000E021802E1000E011804E1FE51010A50
:1017280001E101D015D05CC1E9FF5DC1EAFFEECF50
:1017380000F05CC1E1FF5DC1E2FF010E0018E66E3A
:10174800800E0201256F880E266FD6EC00F04DD072
:101758000201800E256F840E266FD6EC00F0000E75
:10176800000A02E1020E401832E1050E406E460EF4
:101778000101F76F000EF86F010EF725E16E000EFC
:10178800F821E26EC00EE66E040EE66E030EF72533
:10179800E16E000EF821E26E080EE66E000EE66EAF
:1017A800050EF725E16E000EF821E26E080EE66ED2
:1017B800000EE66EF7C1E1FFF8C1E2FF010EE66E2A
:1017C8000201256B880E266FD6EC00F00ED0000EB5
:1017D800000A02E1040E401808E13E50080A02E13E
:1017E80045C06EFF406A33EC02F00101FF6B25DD56
:0217F8001200DD
:1017FA00F1C1C9FFC7B002D00000FCD7C9CF00F0C1
:02180A001200CA
:10180C006B6A6A6A696A686AD0DC160E6F6E6E6AF9
:10181C00E4DC9F0E6B6E7B0E696E6D8C6D9C160EF0
:0C182C00706E080E6D6E3E6A406A12007D
:04183800F26A12003E
:10183C00FA0E336E170E346EF10E356E010E366ED7
:10184C00FF0E386EFF0E396EFF0E3A6EFF0E3B6EBA
:10185C00949E0101E851040A02E1938201D0939213
:10186C009380C66AE851C612EA51C612E951C712F2
:10187C00EA5305E0EB51000AD8B4C78C03D0EB5304
:08188C00D8A4C78CC68A120023
:02189400120040
:08189600806A816A826A120077
:10189E000900F5CFE6FF0006FBE10106F9E11200B3
:0A18AE00060EC16E070EB46E1200A4
:1018B8000B0E006E000E016EE8C104F0000E056EFE
:1018C800AEEC00F0CA0E0026000E012200C0EDF1B9
:1018D80001C0EEF1010E0024E16E000E0120E26E5F
:1018E800E9C1E6FFEAC1E6FF030E0101ED25E16E5D
:1018F800000EEE21E26EEBC1E6FFECC1E6FF050E3D
:10190800ED25E16E000EEE21E26EEBC1E6FFECC1C3
:10191800E6FFE8C100F0000E016E003601360090C7
:10192800003601360090020E0026000E01220A0E33
:10193800ED25D96E000EEE21DA6EDE500024036E1E
:10194800000E0120046E03C000F004C001F0003650
:1019580000900136003600900136000E0026040E75
:10196800012200C0EFF101C0F0F1020E0024E16E87
:10197800000E0120E26EE9C1E6FFEAC1E6FF010EB2
:10198800EF25E16E000EF021E26EEBC1E6FFECC13F
:1019980000F0016A030E0014036EEDC1E9FFEEC109
:1019A800EAFFEECF02F0060E016E02C000F0015011
:1019B80004E000360090FF0FFBD703500012EFC180
:0E19C800E1FFF0C1E2FF880E0010E66E120093
:1019D6008B9C0101516B376AE8A102D0800E516FD2
:1019E600E8A302D0010E376EE8A501D03782080EB3
:1019F6003710F16FFFDE51C1F1F1FCDE1F0E00144E
:101A06000101506FF16BF6DE00C04FF18B8C0101C6
:0E1A160050A904D0000E4F13E00E5013120022
:101A24003E50000A07E1080E6D6E010E3E6E686AB4
:101A3400020E3E6E68506914016E01A414D03FC0BA
:101A44003EF0080E0201156F7DEC03F06994FF0E61
:101A54000101F26F68A407D0F2C100F0F20700524E
:101A640002E06894F7D768506914016E01A041D070
:101A7400CBDE010E0201156F166B176B186B196B19
:101A840010EC03F0070E0024E96E000E0120EA6E4C
:101A9400EECF42F0110E0024E96E000E0120EA6E32
:101AA400EECF43F0040E3E6E42C04EF0000E4F6E79
:101AB40042C0D2F0000E0001D36F020E0201156F76
:101AC4007DEC03F0C00E476E040E486E080E496E9E
:101AD400000E4A6E080E4B6E000E4C6E466A47C0EE
:101AE40002F448C003F4080E0401016F8C0E006F69
:101AF400689068506914016E01A80BD068986984D5
:101B04003EC03FF0200E3E6E060E0201156F7DECC6
:101B140003F068506914016E01AC06D00201689CA0
:101B2400080E156F7DEC03F068506914016E01AA6C
:101B340003D070B07090689A68506914016E01A265
:101B440002D06A6A6892040E3E5C02E2A19AC9D08D
:101B54000101F56B040EF55DD8B0C2D0685069146C
:101B6400016E01A6BAD06CCF41F041C000F0003242
:101B7400009E0032009E0032009E0F0E0014016E83
:101B840001C0F6F1689601C003F0000E046E03363E
:101B94000436039003360436039003C000F004C0F7
:101BA40001F0003600900136003600900136000E38
:101BB40000245E6F040E01205F6F41A409D0CA0E99
:101BC4005C6F000E5D6F080E5E27000E5F2304D06D
:101BD400460E5C6F000E5D6F0B0E006E000E016E04
:101BE400F6C104F0000E056EAEEC00F000505C2768
:101BF40001505D23040E5E25526F000E5F21536F6A
:101C040041A208D05EC152F15FC153F1040E5E27B8
:101C1400000E5F230A0E5C25016E000E5D21026E2C
:101C240001C0E9FF02C0EAFF010EEE18006E01C018
:101C3400E1FF02C0E2FF00C0E6FFF651000A03E143
:101C4400ECEC09F04AD041A412D05CC1E9FF5DC1BB
:101C5400EAFFEECF00F05CC1E1FF5DC1E2FF010EDF
:101C64000018E66EF6C1FFF121EC09F036D0010E42
:101C740001015E25E96E000E5F21EA6EEECF05F0EC
:101C84005EC1E9FF5FC1EAFFEECF00F0000E016E16
:101C9400030E0014036E01C004F0000E041603C00A
:101CA40001F0006A00500510F36F000E0110F46F8C
:101CB4005CC1E9FF5DC1EAFFEECF00F05CC1E1FF6A
:101CC4005DC1E2FF010E0018E66EF6C101F2F3C138
:101CD40002F2F4C103F2A9EC08F00101F52B3AD7A2
:041CE400A19A1200AF
:0C1CE8008B8C949C01014F6B506B120020
:061CF4003EC000F01200EA
:101CFA00F1EC0FF00101E26BE36BE46BE56BE66B71
:101D0A00E76BC4DDCFDD93DD010EE86FE96BEA6BAB
:101D1A00010EEB6F8EDDB9DD74DDD08EA28AA08A4A
:101D2A00F28EDDDFE2DF0050100A01E0FBD78B9470
:101D3A0094948B84E36BE26B190EE25D65E2E86BC7
:101D4A0045DE50AF30D04FC100F050C101F0FF0E58
:101D5A00046EFF0E056EAEEC00F000C0E6F101C0A5
:101D6A00E7F1E4510024036EE5510120046E03C03B
:101D7A0000F004C001F001320032019E00C04FF1B0
:101D8A0001C050F1FF0E046EFF0E056EAEEC00F0BE
:101D9A0000C04FF101C050F1130E0D6E0D2EFED78B
:101DAA000000000011D04FC1E6F150C1E7F1E45143
:101DBA004F27E551502350334F33509F3B0E0D6E42
:101DCA000D2EFED700000000E6C1E4F1E7C1E5F1FF
:101DDA00400EE16E050EE26EE351E126D8B0E22A2A
:101DEA004FC1E6FFE351010F006E016A000E0122A6
:101DFA00400E0024E16E050E0120E26E50C1E6FF9E
:101E0A00020EE327E22B98D7020EE86FDFDD4FC1FF
:101E1A0072F550C173F58B942E6A010EE86F400E6D
:101E2A00E96F050EEA6F400EEB6F000EEC6F3FDDB7
:101E3A002E5201E1FDD79C0E0C6ED70E0D6E0D2EA3
:0A1E4A00FED70C2EFCD775D7FFD78A
:101E5400156ED8CF16F0E0CF17F01750E06E16507D
:081E6400D86E153A1538100084
:101E6C0000C021F001C020F002C01FF003C01EF022
:101E7C0004C01DF005C01CF008C01BF009C01AF00E
:101E8C000AC019F00BC018F0D9CF2CF0DACF2DF016
:101E9C00E1CF2AF0E2CF2BF0E9CF28F0EACF29F0FE
:101EAC00F3CF26F0F4CF27F0F5CF25F0F8CF22F0C2
:101EBC00F7CF23F0F6CF24F0AFDD25C0F5FF22C01D
:101ECC00F8FF23C0F7FF24C0F6FF26C0F3FF27C09E
:101EDC00F4FF21C000F020C001F01FC002F01EC0B2
:101EEC0003F01DC004F01CC005F01BC008F01AC0A4
:101EFC0009F019C00AF018C00BF028C0E9FF29C07E
:101F0C00EAFF2AC0E1FF2BC0E2FF2CC0D9FF2DC095
:041F1C00DAFF1100D7
:101FE20010EE2EF0050E006E010E016ED90EF66E89
:0E1FF2001F0EF76E000EF86E4FEC0CF0120092
:101F200009022900010104E0320904000002030053
:101F3000000509210101000122210007058103405C
:091F400000010705010340000146
:101F49000600FF0901A10119012940150026FF001A
:101F5900750895408102190129407508954091023B
:011F6900C0B7
:101F6A0048494420496E74657266616365206465F8
:0A1F7A00736320737472696E6700D0
:101F840048494420436F6E66696720646573632023
:071F9400737472696E6700AF
:101F9B001201000200000040BD1F030000010102FE
:021FAB00030130
:101FAD004D696B726F656C656B74726F6E696B6189
:011FBD000023
:101FBE0048494420437573746F6D2044656D6F00FE
:0B1FCE003078303030303030303300DD
:011FD9000007
:011FDA000006
:011FDB000005
:011FDC000004
:011FDD000003
:041FDE0004030904EB
:020000040030CA
:0E000000240E3E1EFF0381FF0FC00FE00F40D5
:00000001FF
