:10000000E3EF0FF00000000011EF11F0000000001E
:0C001000000000000000000005EF11F0EF
:10001C0036C204F037C205F034C202F035C203F028
:10002C0038C200F00201380700520FE004C0E9FFAB
:10003C0005C0EAFF02C0E1FF03C0E2FFEECFE6FF1E
:10004C00024A032A044A052AEBD734C200F035C20F
:04005C0001F012009D
:100060000201306B316B2BC201F02CC202F02DC2A9
:1000700003F0000E046E000E006E041808E100503C
:10008000031805E10050021802E10150000A65E082
:100090002BC205F02CC206F02DC207F005C0F6FFFA
:1000A00006C0F7FF07C0F8FF0900F5CF01F00150C7
:1000B000000A07E0312B010E0526000E062207225A
:1000C000EDD731C200F000360090020E002600C0CD
:1000D00031F22BC205F02CC206F02DC207F03051D0
:1000E0002E25E16E000E2F21E26E00C0E6FF302BC0
:1000F00030512E25E16E000E2F21E26E030EE66ECA
:10010000302B05C0F6FF06C0F7FF07C0F8FF090057
:10011000F5CF01F00150000A20E030512E25E16EAC
:10012000000E2F21E26E05C0F6FF06C0F7FF07C0E4
:10013000F8FF0900F5CF00F000C0E6FF302B010EFC
:100140000526000E0622072230512E25E16E000EF4
:0C0150002F21E26EE66A302BD4D712009B
:10015C000B6A0A6A096A00500402F4CF09F0F3CF63
:10016C0008F001500502F4CF0BF0F3CF0AF0005069
:10017C000502F3500926F4500A22E86A0B220150BA
:10018C000402F3500926F4500A22E86A0B2208C034
:10019C0000F009C001F00AC002F00BC003F012001D
:1001AC0002012BAF07D0E10E2F6F000E306F020E45
:1001BC00316F05D05D0E2F6F000E306F316B0A0E54
:1001CC002F25D96E000E3021DA6EDE503125036EEC
:1001DC00046A000E042203C000F004C001F00036D3
:1001EC0000900136003600900136000E00242D6F71
:1001FC00040E01202E6F050E2F25E96E000E302106
:10020C00EA6EEECF01F0EECF02F0000E006E02505F
:10021C00005C02E10150595C05E259C032F2000E5B
:10022C00336F0AD0050E2F25E96E000E3021EA6ED1
:10023C00EECF32F2EECF33F2C00E346F040E356FC8
:10024C00010E2F25E96E000E3021EA6EEECF36F24C
:10025C00EECF37F232C238F2DBDE020E2D25E16E24
:10026C00000E2E21E26EC00E006E040E016E00C058
:10027C00E6FF01C0E6FF010E2D25E16E000E2E21DA
:10028C00E26E32C2E6FF030E3315036E2FC2E9FF96
:10029C0030C2EAFFEECF02F0060E016E02C000F093
:1002AC00015004E000360090FF0FFBD70350001202
:1002BC002DC2E1FF2EC2E2FF2C510010E66E12009F
:1002CC00016A026A02013151025C02E13051015CA7
:1002DC0017E201502E25E16E02502F21E26E0150E3
:1002EC002B25F66E02502C21F76E000E2D21F86E88
:1002FC000900F5CF00F000C0E6FF014A022AE2D760
:02030C001200DD
:10030E000B0E006E000E016E24C204F0000E056E80
:10031E001EDF5D0E0026000E012200C027F201C076
:10032E0028F2010E0024E16E000E0120E26E25C2BD
:10033E00E6FF26C2E6FF030E02012725E16E000E40
:10034E002821E26E080E2725E96E000E2821EA6E9E
:10035E00EECFE6FFEECFE6FF050E2725E16E000E8F
:10036E002821E26E080E2725E96E000E2821EA6E7E
:10037E00EECFE6FFEECFE6FF24C200F0000E016ED8
:10038E000036013600900036013600900A0E272501
:10039E00D96E000E2821DA6EDE500024036E000E98
:1003AE000120046E03C000F004C001F0003600907E
:1003BE000136003600900136000E0026040E012292
:1003CE0000C029F201C02AF2020E0024E16E000ED6
:1003DE000120E26E010E2725E96E000E2821EA6E3D
:1003EE00EECFE6FFEECFE6FF010E2925E16E000E01
:1003FE002A21E26E080E2725E96E000E2821EA6EEC
:10040E00EECFE6FF080E2725E96E000E2821EA6ED4
:10041E00EECF03F0EECF04F004C000F0016A030E3D
:10042E000014036E27C2E9FF28C2EAFFEECF02F0E6
:10043E00060E016E02C000F0015004E0003600907E
:10044E00FF0FFBD70350001229C2E1FF2AC2E2FFC1
:08045E00880E0010E66E12008A
:10046600C00E5E6E040E5F6E080E0001606F000E19
:10047600616F080E626F000E636F5D6A02012B6B7F
:080486008C0E2C6F90DE1200B9
:10048E0075D0670E006E230E016E000E026E00C058
:10049E002BF201C02CF202C02DF2680E02012E6F5B
:1004AE00010E2F6F00C0F6FF01C0F7FF02C0F8FF6C
:1004BE000900F5CF30F2000E316F01DF680E006ECD
:1004CE00010E016E67D0530E2B6F230E2C6F000E94
:1004DE002D6F680E2E6F010E2F6FBBDD680E006E36
:1004EE00010E016E57D0200E2B6F230E2C6F000EB7
:1004FE002D6F680E2E6F010E2F6FABDD680E006E26
:10050E00010E016E47D0470E2B6F230E2C6F000E7F
:10051E002D6F680E2E6F010E2F6F9BDD680E006E15
:10052E00010E016E37D06C0E2B6F230E2C6F000E4A
:10053E002D6F680E2E6F010E2F6F8BDD680E006E05
:10054E00010E016E27D06B0E2B6F230E2C6F000E3B
:10055E002D6F680E2E6F010E2F6F7BDD680E006EF5
:10056E00010E016E17D0006A016A14D002012451E7
:10057E00000A87E02451010AA6E02451020AB3E0E2
:10058E002451030AC0E02451040ACDE02451050A87
:06059E00DAE0E9D71200CB
:0605A400040E576E120068
:1005AA00E10E006E000E016E010E0024E16E000ED7
:1005BA000120E26E1BC2E6FF1CC2E6FF030E002406
:1005CA00E16E000E0120E26E1DC2E6FF1EC2E6FFCA
:1005DA00050E0024E16E000E0120E26E1DC2E6FF48
:1005EA001EC2E6FF00C0E1FF01C0E2FF010EE66E97
:0605FA00020E576E120014
:100600000001E26BE36BE46BE56BE66BE76B010EFD
:10061000E16F800E02012B6F840E2C6FC7DD23DF8C
:020620001200C6
:1006220060D0350E006E230E016E000E026E00C009
:100632002BF201C02CF202C02DF2680E02012E6FC5
:10064200010E2F6F00C0F6FF01C0F7FF02C0F8FFD6
:100652000900F5CF30F2000E316F37DE680E006E02
:10066200010E016E49D0D60E006E220E016E000EF2
:10067200026E00C02BF201C02CF202C02DF2680EF5
:100682002E6F010E2F6F020E0024F66E000E012057
:10069200F76E000E0220F86E0900F5CF04F0030E8B
:1006A2000024F66E000E0120F76E000E0220F86E96
:1006B2000900F5CF03F003C001F0006A04500024E2
:1006C200306F000E0120316F00DE680E006E010EE9
:1006D200016E12D01CC224F2D9DE0ED0006A016A69
:1006E2000BD002011B51010A9CE01B51020ABBE024
:0A06F2001B51030AEFE0F2D71200DB
:1006FC0009D0010E0201246F000E256F050E266F26
:0E070C0000DE04D002011B51050AF3E01200CA
:10071A000F0E02011B15216F226B236B1BAF06D034
:10072A00E10E1F6F000E206F228305D05D0E1F6F32
:10073A00000E206F22850B0E006E000E016E21C284
:10074A0004F0000E056E05DD1F510026205101221E
:10075A0000C01FF201C020F2070E0024E16E000E55
:10076A000120E26E1CC2E6FF1FC2E1FF20C2E2FFC7
:10077A00E66A080E1F25E16E000E2021E26E1DC2F8
:10078A00E6FF1EC2E6FF22871C51010AD8A422896D
:10079A00700E016E0F0E026E21510126D8B0022A88
:1007AA0001C0E9FF02C0EAFF2251EE10006E01C04B
:0C07BA00E1FF02C0E2FF00C0E6FF1200F9
:1007C6000201166B176B14C2E9FF15C2EAFFEECFE2
:1007D60000F0600E00141A6F2DD1010E1425186F4B
:1007E600000E1521196F31D0020E1425E96E000E88
:1007F6001521EA6EEECF36F0D2DE58D0360E1B6FDC
:10080600000E1C6F010E1D6F000E1E6FCBDE4ED04C
:10081600020E1425E96E000E1521EA6EEECF03F0E6
:10082600EECF04F004C000F0016A00C035F0B7DE78
:100836003DD0350E1B6F000E1C6F010E1D6F000E96
:100846001E6FB0DE33D0D9DEFDD018C2E9FF19C263
:10085600EAFFEECF01F0000E000A02E10B0E0118CE
:10086600C3E018C2E9FF19C2EAFFEECF01F0000E9D
:10087600000A02E1030E0118C1E018C2E9FF19C21D
:10088600EAFFEECF01F0000E000A02E10A0E01189F
:10089600BFE018C2E9FF19C2EAFFEECF01F0000E71
:1008A600000A02E1020E0118C4E0CDD7CBD0010E3A
:1008B6001425186F000E1521196FA5D0020E1425E8
:1008C600E96E000E1521EA6EEECF03F0EECF04F0CE
:1008D60004C001F0026A0250000A02E1220E011869
:1008E60033E1060E1425E96E000E1521EA6EEECFF1
:1008F60001F0EECF02F001C016F202C017F2000EB0
:10090600006E0250005C02E10150210804E2210E53
:10091600166F000E176FFF0E2B6F220E2C6F000E38
:100926002D6F680E2E6F010E2F6F16C230F217C292
:1009360031F2C9DC680E1B6F010E1C6F16C21DF268
:1009460017C21EF22FDE4AD0020E1425E96E000EE3
:100956001521EA6EEECF03F0EECF04F004C001F0ED
:10096600026A000E021802E1210E011837E1060E96
:100976001425E96E000E1521EA6EEECF01F0EECFDA
:1009860002F001C016F202C017F2000E006E02500D
:10099600005C02E10150090804E2090E166F000E20
:1009A600176FD60E2B6F220E2C6F000E2D6F120EA8
:1009B6002B27000E2C232D23680E2E6F010E2F6F72
:1009C60016C230F217C231F27EDC680E1B6F010EC2
:1009D6001C6F16C21DF217C21EF2E4DD2AD0340EB9
:1009E6001B6F000E1C6F010E1D6F000E1E6FDADDF1
:1009F60020D0020E1425E96E000E1521EA6EEECF08
:100A060034F0CDDD16D018C2E9FF19C2EAFFEE5068
:100A1600060AD8B453D718C2E9FF19C2EAFFEE5046
:100A26000A0ADDE018C2E9FF19C2EAFFEE500B0A16
:100A3600E0E008D01A51200AD8B4CFD61A51000ADD
:060A4600D8B435D7120000
:100A4C00020E02011B6F14C21CF2000E1D6F1E6BF6
:100A5C001F6BE1DD00C017F201C018F2020E00247A
:100A6C00E96E000E0120EA6EEECF05F0030E0024B5
:100A7C00E96E000E0120EA6EEECF03F0000E046E5C
:100A8C0003C001F0006A05500024156F000E012010
:100A9C00166F010E1725E96E000E1821EA6EEE5046
:100AAC00050A2FE1020E1725E96E000E1821EA6ED9
:100ABC00EECF1BF2030E1725E96E000E1821EA6E1D
:100ACC00EECF06F0040E1725E96E000E1821EA6E23
:100ADC00EECF05F0050E1725E96E000E1821EA6E13
:100AEC00EECF03F0000E046E03C001F0006A055057
:100AFC0000241D6F000E01201E6F030E06141C6FC8
:100B0C0006DE17C2D9FF18C2DAFFDE50155D006E83
:100B1C00000E1659016E00C015F201C016F20050FD
:100B2C0001100AE017C2E9FF18C2EAFFEECF00F08D
:100B3C0000501727000E182315511611AAE1100E9C
:0A0B4C00556E050E1B6FD4DD12007C
:100B560014C2E2F015C2E3F016C2E4F017C2E5F0E3
:0E0B660016C2E6F017C2E7F0020E576E12003C
:100B74000AC2E9FF0BC2EAFFEECF00F01F0E001419
:100B84000201136F7ED065C111F2000E126F85D081
:100B9400116B126B82D0040E0A25056E000E0B2118
:100BA400066E05C0E9FF06C0EAFF0F0EEE14016EE3
:100BB40001C00CF201C003F0000E046E03360436CB
:100BC400039003360436039003C000F004C001F020
:100BD400003600900136003600900136000E0024E5
:100BE4000D6F040E01200E6F05C0E9FF06C0EAFF79
:100BF400EECF02F0EECF03F002AE09D0E10E0F6F9C
:100C0400000E106F080E0D27000E0E2304D05D0E8B
:100C14000F6F000E106F0B0E006E000E016E0CC2F3
:100C240004F0000E056EAEEC00F00F5100261051DA
:100C3400012200C00FF201C010F200C0E9FF01C0A0
:100C4400EAFFEECF03F003C000F0000E016E0036A1
:100C5400009001360036009001360D5100260E51E9
:100C6400012200C00DF201C00EF200C0E9FF01C074
:100C7400EAFFEECF00F0116B00B4112B000E126FDF
:100C84000CD01351000AD8B47ED71351010AD8B43A
:100C94007FD71351020AD8B47ED7110E146F020EF7
:0E0CA400156F020E166F000E176F53DF120051
:100CB200010E02010A25E96E000E0B21EA6EEE50CA
:100CC200030A03E1010E116F01D0116B0AC2E9FFA1
:100CD2000BC2EAFFEECF00F01F0E0014126F1CD100
:100CE200020E0A25E96E000E0B21EA6EEECF01F02C
:100CF200EECF02F0000E021802E1010E011817E118
:100D0200040E576E115307E0020E01016511006EC9
:100D120000C065F10BD00101FD0E6515006E00C02B
:100D220065F10AC214F20BC215F24CDD1BD00201AE
:100D3200115316E0020E0A25E96E000E0B21EA6E2F
:100D4200EECF01F0EECF02F0000E021802E1020E29
:100D5200011805E10AC214F20BC215F233DD02D00A
:100D6200060E576EE5D00AC214F20BC215F22ADD46
:100D7200DFD0020E0A25E96E000E0B21EA6EEECFDD
:100D820001F0EECF02F0000E021802E1000E01188F
:100D9200D8A4BCD0040E0A25E96E000E0B21EA6E1F
:100DA2000F0EEE14006EEECF01F0000E0116005091
:100DB2000110D8B4A8D0040E0A25056E000E0B212E
:100DC200066E05C0E9FF06C0EAFF0F0EEE14016EC3
:100DD20001C00CF201C003F0000E046E03360436AB
:100DE200039003360436039003C000F004C001F000
:100DF200003600900136003600900136000E0024C5
:100E02000D6F040E01200E6F05C0E9FF06C0EAFF58
:100E1200EECF02F0EECF03F002AE04D0080E0D27A3
:100E2200000E0E23115322E00DC2E9FF0EC2EAFFAB
:100E32000DC2E1FF0EC2E2FF840EEE12040E0D257A
:100E4200016E000E0E21026E01C00DF202C00EF202
:100E520001C0E9FF02C0EAFF840EEE10006E01C07D
:100E6200E1FF02C0E2FF00C0E6FF4DD00DC2E9FF84
:100E72000EC2EAFF0DC2E1FF0EC2E2FF7B0EEE16CA
:100E8200040E0D25016E000E0E21026E01C00DF240
:100E920002C00EF201C0E9FF02C0EAFF7B0EEE14AF
:100EA200006E01C0E1FF02C0E2FF00C0E6FF040ED7
:100EB2000A25E96E000E0B21EA6EEECF02F0EECFAC
:100EC20003F002AE05D0E10E0F6F000E106F04D0DA
:100ED2005D0E0F6F000E106F0B0E006E000E016E96
:100EE2000CC204F0000E056EAEEC00F00F510026AD
:100EF2001051012200C00FF201C010F200C0E1FF48
:100F020001C0E2FFE66A040E576E05D00AC214F26F
:100F12000BC215F257DC0CD01251000AD8B4E0D63D
:100F22001251010AD8B41FD71251020AD8B421D7DC
:020F32001200AB
:100F3400020E02010A25E96E000E0B21EA6EEECFC5
:100F440001F001C00CF201505A5C03E2060E576E28
:100F540028D05550080A10E10C51000A03E1040E90
:100F6400576E07D0100E556E040E576E0CC214F255
:100F74006BDD0CC25BF015D05550100A10E10C511A
:100F8400000A05E1080E556E040E576E05D0040ED6
:100F9400576E0CC214F258DD0CC25BF002D0060E80
:040FA400576E120072
:100FA800020E02010A25E96E000E0B21EA6EEECF51
:100FB80001F0EECF02F002C011F2126B8FD0010ED9
:100FC8001B6F1C6B1D6B1E6B1F6B11EC03F000C0BD
:100FD8000CF201C00DF26E50000A05E1080E0F6F09
:100FE800000E106F0AD00CC2E9FF0DC2EAFFEECF67
:100FF8000FF2000E106F000E106F84D0020E0A253B
:10100800E96E000E0B21EA6EEECF01F001C00EF280
:1010180001505A5C03E2060E576E97D0020E1B6F02
:101028000EC21CF2000E1D6F1E6B1F6B11EC03F03D
:1010380000C00CF201C00DF2020E0024E96E000E91
:101048000120EA6EEECF05F0030E0024E96E000ED3
:101058000120EA6EEECF03F0000E046E03C001F02B
:10106800006A055000240F6F000E0120106F4AD04F
:10107800030E1B6F020E0A25E96E000E0B21EA6EA5
:10108800FF0EEE141C6FEECF1DF2000E1D17040E9E
:101098000A25E96E000E0B21EA6EEECF1EF2EECFA6
:1010A8001FF211EC03F000C00CF201C00DF2000EAB
:1010B800011802E1000E001803E1060E576E45D034
:1010C8000CC2E9FF0DC2EAFFEECF0FF2000E106F5F
:1010D800000E106F17D0060E576E37D0000E12197B
:1010E80002E1010E1119D8B46AD7000E121902E1F3
:1010F800020E111983E0000E121902E1030E1119F4
:10110800B7E0E9D7060E0A25D96E000E0B21DA6E74
:10111800DECF01F0DECF02F01051025C02E10F5188
:10112800015C0AE2060E0A25E96E000E0B21EA6E42
:10113800EECF0FF2EECF10F20CC214F20DC215F280
:0C1148000FC216F210C217F202DD1200F6
:1011540016D00001E26BE36BE46BE56BE66BE76BC7
:101164000001010EE16F800E02012B6F880E2C6FBF
:10117400D6EC00F017D016D000EC03F013D0000E1C
:10118400000A02E1040E5718E4E0000E000A02E12E
:10119400020E5718E5E0000E000A02E1030E57188C
:0611A400EAE0EAD71200A8
:1011AA0002010651010A0AE1010E2E6E010E246F98
:0E11BA00000E256F050E266F87EC01F0120067
:1011C800010E02010625086F000E0721096F62D083
:1011D80006C20AF207C20BF2C9DCAAD006C20AF29A
:1011E80007C20BF262DDA4D0020E02010625006ED2
:1011F800000E0721016E00C0E9FF01C0EAFFEECF33
:101208005CF000C0E9FF01C0EAFFEECF02F0EECFCC
:1012180003F0000E031802E1000E021803E0080EA6
:10122800556E02D0040E556E040E576E81D006C25C
:10123800E9FF07C2EAFFEECF00F01F0E0014016EAF
:101248000150000A06E106C20AF207C20BF2A8DE44
:1012580006D006C214F207C215F2E3EC03F068D018
:101268005B0E146F000E156F010E166F000E176FD0
:101278006EDC5ED006C20AF207C20BF257DE58D007
:1012880006C214F207C215F2E3EC03F051D0060EC1
:10129800576E4ED008C2E9FF09C2EAFFEE50000AB5
:1012A80097E008C2E9FF09C2EAFFEE50010A96E09A
:1012B80008C2E9FF09C2EAFFEE50030A8FE008C23C
:1012C800E9FF09C2EAFFEE50050A8EE008C2E9FF0D
:1012D80009C2EAFFEE50060AAAE008C2E9FF09C2FD
:1012E800EAFFEE50080ABCE008C2E9FF09C2EAFFBB
:1012F800EE50090ABFE008C2E9FF09C2EAFFEE5052
:10130800070ABEE008C2E9FF09C2EAFFEE500C0A6C
:10131800B7E008C2E9FF09C2EAFFEE500A0AB0E0E6
:1013280008C2E9FF09C2EAFFEE500B0AA9E0AFD7ED
:021338001200A1
:10133A00000E536E040E546E0101666B676B000E4D
:10134A00675D02E1C00E665D0AE253C0E1FF54C068
:10135A00E2FFE66A534A542A664B672BF0D7550ECA
:10136A00536E000E546E666B676B010E675D02E189
:10137A00110E665D0AE253C0E1FF54C0E2FFE66A5D
:0C138A00534A542A664B672BF0D7120020
:10139600700E536E0F0E546E0101666B676B000E76
:1013A600675D02E10C0E665D0AE253C0E1FF54C0C0
:1013B600E2FFE66A534A542A664B672BF0D71200BF
:0E13C60002010651010A02E1010E316E120011
:1013D4006B6A6A6A696A686ADCDF160E6F6E6E6A27
:1013E400AADF9F0E6B6E7B0E696E6D8C6D9C160E64
:0C13F400706E080E6D6E556A576A12008C
:10140000F0C1C9FFC7B002D00000FCD7C9CF00F0BF
:021410001200C8
:10141200A69CF0C1A9FFA69EA680A8CF00F012004C
:10142200A6A202D00000FCD7A69CF0C1A9FFF1C180
:10143200A8FFA69EA684F2CF00F0F29E550EA76EDC
:10144200AA0EA76EA68200BE02D0F29E01D0F28E34
:04145200A69412004A
:101456000B0E006E000E016EF0C104F0000E056E5C
:10146600AEEC00F0E10E0026000E012200C0F5F100
:1014760001C0F6F1010E0024E16E000E0120E26EBD
:10148600F1C1E6FFF2C1E6FF030E0101F525E16EAB
:10149600000EF621E26EF3C1E6FFF4C1E6FF050E8B
:1014A600F525E16E000EF621E26EF3C1E6FFF4C10A
:1014B600E6FFF0C100F0000E016E00360136009026
:1014C600003601360090020E0026000E01220A0E9A
:1014D600F525D96E000EF621DA6EDE500024036E75
:1014E600000E0120046E03C000F004C001F00036B7
:1014F60000900136003600900136000E0026040EDC
:10150600012200C0F7F101C0F8F1020E0024E16EDD
:10151600000E0120E26EF1C1E6FFF2C1E6FF010E08
:10152600F725E16E000EF821E26EF3C1E6FFF4C185
:1015360000F0016A030E0014036EF5C1E9FFF6C15F
:10154600EAFFEECF02F0060E016E02C000F0015077
:1015560004E000360090FF0FFBD703500012F7C1DE
:0E156600E1FFF8C1E2FF880E0010E66E1200F1
:1015740045C0E9FF46C0EAFFEECF00F03C0E001480
:10158400016E01C006F00632069E0632069E06C0B3
:1015940000F2010E4524E96E000E4620EA6EEECFFD
:1015A40005F045C0E9FF46C0EAFFEECF00F0000EAB
:1015B400016E030E0014036E01C004F0000E041645
:1015C40003C001F0006A005005100201036F000E11
:1015D4000110046F06500D0A42E17F0E0401081544
:1015E400006E00C008F47F0E0C15006E00C00CF4F1
:1015F40047C0E9FF48C0EAFFEECF00F047C0E1FF73
:1016040048C0E2FF7F0E0014E66E4B0E0201346FF9
:10161400000E356FC00E366F040E376F080E386F2C
:101624000EEC00F000C001F201C002F200C0E9FFBC
:1016340001C0EAFF600EEE14016E0150000A06E1DB
:1016440001C206F202C207F2BDDD06D001C214F2E5
:1016540002C215F2E3EC03F06D987ADD99D1020130
:101664000051010AD8A4BAD0000E000A02E1050E06
:10167400571804E1576A33EC02F0AFD0000E000AA9
:1016840002E1030E5718D8A4A8D00201010E492480
:10169400E96E000E4A20EA6EEECF34F2EECF35F258
:1016A400C00E366F040E376F03C238F20EEC00F032
:1016B400050E4924026E000E4A20036E02C0E9FFA3
:1016C40003C0EAFF0351EE5C006E0451EE58016E54
:1016D40002C0E1FF03C0E2FF00C0E6FF01C0E6FF75
:1016E400010E4924026E000E4A20036E02C0E9FF77
:1016F40003C0EAFF0351EE24006E0451EE20016E94
:1017040002C0E1FF03C0E2FF00C0E6FF01C0E6FF44
:10171400030E4924026E000E4A20036E02C0E9FF44
:1017240003C0EAFF0351EE24006E0451EE20016E63
:1017340002C0E1FF03C0E2FF00C0E6FF01C0E6FF14
:10174400000E045D02E15950035D2FE2E10E010138
:10175400FE6F000EFF6F010EFE25E16E000EFF21ED
:10176400E26EC00EE66E040EE66E030EFE25E16E1A
:10177400000EFF21E26EE66AE66A050EFE25E16EC2
:10178400000EFF21E26EE66AE66AFEC1E1FFFFC1D8
:10179400E2FF010EE66E800E02012B6F880E2C6FA5
:1017A400D6EC00F0040E576E12D049C0E9FF4AC0CF
:1017B400EAFFEECF00F049C0E1FF4AC0E2FF010EAC
:1017C4000018E66E2B6B880E2C6FD6EC00F0066BBF
:1017D40003C207F204C208F2F4DDDAD00201056B99
:1017E400050E4924E96E000E4A20EA6EEECF01F0A0
:1017F400EECF02F0000E021802E1595001180BE17D
:10180400000E006E5250005C02E15150595C03E23C
:101814000201010E056F0201050E4924026E000E3D
:101824004A20036E02C0E9FF03C0EAFF0351EE5CE5
:10183400006E0451EE58016E02C0E1FF03C0E2FFE6
:1018440000C0E6FF01C0E6FF010E4924026E000E4F
:101854004A20036E02C0E9FF03C0EAFF0351EE24ED
:10186400006E0451EE20016E02C0E1FF03C0E2FFEE
:1018740000C0E6FF01C0E6FF050E4924E96E000E34
:101884004A20EA6EEECF01F0EECF02F0000E006EB9
:101894000250005C02E10150000816E3050E4924E1
:1018A400E96E000E4A20EA6EEECF01F0EECF02F0B0
:1018B400000E021802E1000E011805E102010551B3
:1018C400010A01E101D015D0020149C0E9FF4AC073
:1018D400EAFFEECF00F049C0E1FF4AC0E2FF010E8B
:1018E4000018E66E800E2B6F880E2C6FD6EC00F07D
:1018F4004DD00201800E2B6F840E2C6FD6EC00F0BD
:10190400000E000A02E1020E571832E1050E576E6E
:101914005D0E0101FE6F000EFF6F010EFE25E16EEC
:10192400000EFF21E26EC00EE66E040EE66E030E9C
:10193400FE25E16E000EFF21E26E080EE66E000E3B
:10194400E66E050EFE25E16E000EFF21E26E080E26
:10195400E66E000EE66EFEC1E1FFFFC1E2FF010E7E
:10196400E66E02012B6B880E2C6FD6EC00F00ED0C5
:10197400000E000A02E1040E571808E15550080A47
:1019840002E15CC06EFF576A33EC02F0066B0BDCBD
:0219940012003F
:08199600806A816A826A120076
:10199E000900F5CFE6FF0006FBE10106F9E11200B2
:1019AE008A94386A376A0101ECA102D0800E386E33
:1019BE00ECA301D03780ECA501D03782080E37108A
:1019CE00F06F17DD38C0F0F114DD1F0E0014406EFD
:1019DE000101F06B0EDD00C03FF08A8440A804D0F8
:0A19EE00000E3F12E00E401212003E
:0219F8001200DB
:1019FA00000E396E140E3A6EF00E3B6E010E3C6EFE
:101A0A00FF0E416EFF0E426EFF0E436EFF0E446ED6
:101A1A00949E0101EC51040A02E1938201D093924F
:101A2A009380C66AEC51C612EE51C612ED51C71226
:101A3A00EE5305E0EF51000AD8B4C78C03D0EF5338
:081A4A00D8A4C78CC68A120063
:0A1A5200060EC16E070EB46E1200FE
:041A5C00F26A120018
:0A1A60008A8493943F6A406A1200E2
:101A6A000101ECA120D0ED6B040EED5D1CE2EDC18D
:101A7A00F0F1ED51020F006E016A000E0122000E14
:101A8A000024E96E050E0120EA6EEECFF1F1C4DC06
:101A9A004E0E0C6EEB0E0D6E0D2EFED70C2EFCD7D5
:101AAA000101ED2BE1D7ECA321D0040EED6F080E56
:101ABA00ED5D1CE2EDC1F0F1ED51020F006E016A1D
:101ACA00000E0122000E0024E96E050E0120EA6EC6
:101ADA00EECFF1F1A1DC4E0E0C6EEB0E0D6E0D2E5B
:101AEA00FED70C2EFCD70101ED2BE1D7ECA521D0B6
:101AFA00080EED6F0C0EED5D1CE2EDC1F0F1ED513B
:101B0A00020F006E016A000E0122000E0024E96E27
:101B1A00050E0120EA6EEECFF1F17EDC4E0E0C6E60
:101B2A00EB0E0D6E0D2EFED70C2EFCD70101ED2B00
:101B3A00E1D7ECA721D00C0EED6F100EED5D1CE283
:101B4A00EDC1F0F1ED51020F006E016A000E0122A3
:101B5A00000E0024E96E050E0120EA6EEECFF1F1C7
:101B6A005BDC4E0E0C6EEB0E0D6E0D2EFED70C2EA0
:0A1B7A00FCD70101ED2BE1D71200AA
:101B84005550000A07E1080E6D6E010E556E686A25
:101B9400020E556E68506914016E01A414D056C02B
:101BA40055F0080E02011B6F7EEC03F06994FF0EE2
:101BB4000101F96F68A407D0F9C100F0F9070052D8
:101BC40002E06894F7D768506914016E01A043D00D
:101BD400EAEC09F0010E02011B6F1C6B1D6B1E6BFE
:101BE4001F6B11EC03F0070E0024E96E000E0120B8
:101BF400EA6EEECF59F0110E0024E96E000E0120BA
:101C0400EA6EEECF5AF0040E556E59C065F0000E20
:101C14000001666F59C0E9F0000EEA6F020E02017E
:101C24001B6F7EEC03F0C00E5E6E040E5F6E080E3A
:101C34000001606F000E616F080E626F000E636F2B
:101C44005D6A5EC002F45FC003F4080E0401016F14
:101C54008C0E006F689068506914016E01A80BD057
:101C64006898698455C056F0200E556E060E020120
:101C74001B6F7EEC03F068506914016E01AC06D052
:101C84000201689C080E1B6F7EEC03F06850691417
:101C9400016E01AA03D070B07090689A68506914FC
:101CA400016E01A202D06A6A6892040E555C02E2D7
:101CB400A19ACAD00101FC6B040EFC5DD8B0C3D05C
:101CC40068506914016E01A6BBD06CCF58F058C09F
:101CD40000F00032009E0032009E0032009E0F0E83
:101CE4000014016E01C0FDF1689601C003F0000EFE
:101CF400046E03360436039003360436039003C09F
:101D040000F004C001F00036009001360036009067
:101D14000136000E0024456E040E0120466E58A4C0
:101D240009D0E10E496E000E4A6E080E4526000EDB
:101D3400462204D05D0E496E000E4A6E0B0E006EF4
:101D4400000E016EFDC104F0000E056EAEEC00F055
:101D54000050492601504A22040E4524476E000EC5
:101D64004620486E58A208D045C047F046C048F007
:101D7400040E4526000E462201010A0E4924016E76
:101D8400000E4A20026E01C0E9FF02C0EAFF010E04
:101D9400EE18006E01C0E1FF02C0E2FF00C0E6FFE2
:101DA400FD51000A03E1BAEC0AF04AD058A412D05B
:101DB40049C0E9FF4AC0EAFFEECF00F049C0E1FFA5
:101DC4004AC0E2FF010E0018E66EFDC106F2D5EC32
:101DD40008F036D0010E4524E96E000E4620EA6E66
:101DE400EECF05F045C0E9FF46C0EAFFEECF00F0B4
:101DF400000E016E030E0014036E01C004F0000E09
:101E0400041603C001F0006A005005100101FA6FC6
:101E1400000E0110FB6F49C0E9FF4AC0EAFFEECF94
:101E240000F049C0E1FF4AC0E2FF010E0018E66E6F
:101E3400FDC106F2FAC107F2FBC108F2E3EC09F0B6
:0A1E44000101FC2B39D7A19A12000E
:101E4E002E6A010E0101F06F400EF16F050EF26F5A
:101E5E00400EF36F000EF46F2BEC0AF0E80E3D6EA1
:101E6E00030E3E6E2E520DE1000E3E1802E1000EE4
:101E7E003D1802E1006A07D0010E3D5E000E3E5A8B
:081E8E00F1D7FF0E006E1200F7
:101E96000101EC6B040EEC5D20E2EC51300F006E9C
:101EA600016A000E0122400E0024ED6F050E01208E
:101EB600EE6FECC1F0F109EC0AF0EDC1E1FFEEC105
:101EC600E2FF00C0E6FF4E0E0C6EEB0E0D6E0D2E01
:101ED600FED70C2EFCD7EC2BDDD7040EEC6F080ECC
:101EE600EC5D20E2EC51300F006E016A000E01221B
:101EF600400E0024ED6F050E0120EE6FECC1F0F1EF
:101F060009EC0AF0EDC1E1FFEEC1E2FF00C0E6FF19
:101F16004E0E0C6EEB0E0D6E0D2EFED70C2EFCD754
:101F2600EC2BDDD7080EEC6F0C0EEC5D20E2EC51CD
:101F3600300F006E016A000E0122400E0024ED6F84
:101F4600050E0120EE6FECC1F0F109EC0AF0EDC1CF
:101F5600E1FFEEC1E2FF00C0E6FF4E0E0C6EEB0E97
:101F66000D6E0D2EFED70C2EFCD7EC2BDDD70C0EEE
:101F7600EC6F100EEC5D20E2EC51300F006E016A42
:101F8600000E0122400E0024ED6F050E0120EE6FBB
:101F9600ECC1F0F109EC0AF0EDC1E1FFEEC1E2FFA0
:101FA60000C0E6FF4E0E0C6EEB0E0D6E0D2EFED72C
:0A1FB6000C2EFCD7EC2BDDD7120037
:061FC00055C000F0120004
:101FC600B7EC11F00101E86BE96BEA6BEB6BE0DC57
:101FD6003DDD41DD010EEC6FED6BEE6B010EEF6F3B
:101FE60009DD07DDEAEC09F0D08EA28AA08AF28E1E
:101FF60034DDE86B400EE85D14E2000EE16E050E7E
:10200600E26EE851E126D8B0E22AE66A400EE16EB9
:10201600050EE26EE851E126D8B0E22AE66AE82B20
:10202600E9D736DFCADF0050100A01E0FBD78990F6
:1020360092908980315209E005010051A30A04E11A
:1020460001C5ECF10FDD24DF316A0101E96BE86BB4
:102056000C0EE85D66E2EC6BA7DC40AE30D03FC00C
:1020660000F040C001F0FF0E046EFF0E056EAEECF0
:1020760000F000C0EAF101C0EBF132500024036E1B
:1020860033500120046E03C000F004C001F0013299
:102096000032019E00C03FF001C040F0FF0E046E0A
:1020A600FF0E056EAEEC00F000C03FF001C040F040
:1020B600130E0D6E0D2EFED70000000011D03FC08E
:1020C600EAF140C0EBF132503F2633504022403215
:1020D6003F32409E3B0E0D6E0D2EFED700000000D7
:1020E600EAC132F0EBC133F0400EE16E050EE26E4E
:1020F6000101E951E126D8B0E22A3FC0E6FFE951E5
:10210600010F006E016A000E0122400E0024E16EEE
:10211600050E0120E26E40C0E6FF020EE927E82B1D
:1021260097D7180EE96FE86B0C0EE85D67E2020EB2
:10213600EC6F3ADC40AE30D03FC000F040C001F05A
:10214600FF0E046EFF0E056EAEEC00F000C0EAF165
:1021560001C0EBF12F500024036E30500120046EB5
:1021660003C000F004C001F001320032019E00C03D
:102176003FF001C040F0FF0E046EFF0E056EAEECA0
:1021860000F000C03FF001C040F0130E0D6E0D2EA2
:10219600FED70000000011D03FC0EAF140C0EBF1CD
:1021A6002F503F263050402240323F32409E3B0E59
:1021B6000D6E0D2EFED700000000EAC12FF0EBC118
:1021C60030F0400EE16E050EE26E0101E951E126A6
:1021D600D8B0E22A3FC0E6FFE951010F006E016A5E
:1021E600000E0122400E0024E16E050E0120E26E73
:1021F60040C0E6FF020EE927E82B96D7899024DE39
:0422060018D7FFD70F
:10220A00156ED8CF16F0E0CF17F01750E06E1650C3
:08221A00D86E153A15381000CA
:1022220000C021F001C020F002C01FF003C01EF068
:1022320004C01DF005C01CF008C01BF009C01AF054
:102242000AC019F00BC018F0D9CF2CF0DACF2DF05C
:10225200E1CF2AF0E2CF2BF0E9CF28F0EACF29F044
:10226200F3CF26F0F4CF27F0F5CF25F0F8CF22F008
:10227200F7CF23F0F6CF24F084DC25C0F5FF22C08F
:10228200F8FF23C0F7FF24C0F6FF26C0F3FF27C0E4
:10229200F4FF21C000F020C001F01FC002F01EC0F8
:1022A20003F01DC004F01CC005F01BC008F01AC0EA
:1022B20009F019C00AF018C00BF028C0E9FF29C0C4
:1022C200EAFF2AC0E1FF2BC0E2FF2CC0D9FF2DC0DC
:0422D200DAFF11001E
:10236E0010EE2EF0090E006E010E016E5E0EF66E70
:0E237E00230EF76E000EF86ECFEC0CF012007E
:1022D60009022900010104E032090400000203009A
:1022E60000050921010100012221000705810340A3
:0922F6000001070501034000018D
:1022FF000600FF0901A10119012940150026FF0061
:10230F007508954081021901294075089540910281
:01231F00C0FD
:10232000555342204261747465727920416E616C2C
:05233000797A657200DE
:102335001201000200000040BD1F0400000101025F
:02234500030192
:0C234700495455424130313030303100F3
:0B235300494E4652412054656368006B
:01235E00007E
:02235F0000007C
:01236100007B
:02236200000079
:012364000078
:012365000077
:012366000076
:04236700040309045E
:01236B000071
:01236C000070
:020000040030CA
:0E000000240E3E1EFF0381FF00800FE00F4024
:0200000400F00A
:100000000000803F0000803F0000803F0000803FF4
:10001000FFFFFFFFFFFFFFFFFFFFFFFFFFFFFFFFF0
:10002000FFFFFFFFFFFFFFFFFFFFFFFFFFFFFFFFE0
:10003000FFFFFFFFFFFFFFFFFFFFFFFFFFFFFFFFD0
:10004000FFFFFFFFFFFFFFFFFFFFFFFFFFFFFFFFC0
:10005000FFFFFFFFFFFFFFFFFFFFFFFFFFFFFFFFB0
:10006000FFFFFFFFFFFFFFFFFFFFFFFFFFFFFFFFA0
:10007000FFFFFFFFFFFFFFFFFFFFFFFFFFFFFFFF90
:10008000FFFFFFFFFFFFFFFFFFFFFFFFFFFFFFFF80
:10009000FFFFFFFFFFFFFFFFFFFFFFFFFFFFFFFF70
:1000A000FFFFFFFFFFFFFFFFFFFFFFFFFFFFFFFF60
:1000B000FFFFFFFFFFFFFFFFFFFFFFFFFFFFFFFF50
:1000C000FFFFFFFFFFFFFFFFFFFFFFFFFFFFFFFF40
:1000D000FFFFFFFFFFFFFFFFFFFFFFFFFFFFFFFF30
:1000E000FFFFFFFFFFFFFFFFFFFFFFFFFFFFFFFF20
:1000F000FFFFFFFFFFFFFFFFFFFFFFFFFFFFFFFF10
:00000001FF

