:1000000091EF10F00000000042EF11F0000000003E
:0C001000000000000000000036EF11F0BE
:10001C0041C204F042C205F03FC202F040C203F0FC
:10002C0043C200F00201430700520FE004C0E9FF95
:10003C0005C0EAFF02C0E1FF03C0E2FFEECFE6FF1E
:10004C00024A032A044A052AEBD73FC200F040C2F9
:04005C0001F012009D
:1000600002013B6B3C6B36C201F037C202F038C272
:1000700003F0000E046E000E006E041808E100503C
:10008000031805E10050021802E10150000A65E082
:1000900036C205F037C206F038C207F005C0F6FFD9
:1000A00006C0F7FF07C0F8FF0900F5CF01F00150C7
:1000B000000A07E03C2B010E0526000E062207224F
:1000C000EDD73CC200F000360090020E002600C0C2
:1000D0003CF236C205F037C206F038C207F03B5199
:1000E0003925E16E000E3A21E26E00C0E6FF3B2B9F
:1000F0003B513925E16E000E3A21E26E030EE66EA9
:100100003B2B05C0F6FF06C0F7FF07C0F8FF09004C
:10011000F5CF01F00150000A20E03B513925E16E96
:10012000000E3A21E26E05C0F6FF06C0F7FF07C0D9
:10013000F8FF0900F5CF00F000C0E6FF3B2B010EF1
:100140000526000E062207223B513925E16E000EDE
:0C0150003A21E26EE66A3B2BD4D7120085
:10015C000B6A0A6A096A00500402F4CF09F0F3CF63
:10016C0008F001500502F4CF0BF0F3CF0AF0005069
:10017C000502F3500926F4500A22E86A0B220150BA
:10018C000402F3500926F4500A22E86A0B2208C034
:10019C0000F009C001F00AC002F00BC003F012001D
:1001AC00020136AF07D06A0E3A6F010E3B6F020E9A
:1001BC003C6F05D0E60E3A6F000E3B6F3C6B0A0E9F
:1001CC003A25D96E000E3B21DA6EDE503C25036ECB
:1001DC00046A000E042203C000F004C001F00036D3
:1001EC0000900136003600900136000E0024386F66
:1001FC00040E0120396F050E3A25E96E000E3B21E5
:10020C00EA6EEECF01F0EECF02F0000E006E02505F
:10021C00005C03E101500001E25D06E2E2C03DF248
:10022C00000E02013E6F0BD00201050E3A25E96E5D
:10023C00000E3B21EA6EEECF3DF2EECF3EF2C00E49
:10024C003F6F040E406F010E3A25E96E000E3B2104
:10025C00EA6EEECF41F2EECF42F23DC243F2D8DE6F
:10026C00020E3825E16E000E3921E26EC00E006ED2
:10027C00040E016E00C0E6FF01C0E6FF010E38253A
:10028C00E16E000E3921E26E3DC2E6FF030E3E1513
:10029C00036E3AC2E9FF3BC2EAFFEECF02F0060E54
:1002AC00016E02C000F0015004E000360090FF0F18
:1002BC00FBD70350001238C2E1FF39C2E2FF3751BD
:0602CC000010E66E1200B6
:1002D200016A026A02013C51025C02E13B51015C8B
:1002E20017E201503925E16E02503A21E26E0150C7
:1002F2003625F66E02503721F76E000E3821F86E61
:100302000900F5CF00F000C0E6FF014A022AE2D759
:020312001200D7
:100314000B0E006E000E016E2FC204F0000E056E6F
:100324001BDFE60E0026000E012200C032F201C0DF
:1003340033F2010E0024E16E000E0120E26E30C2A1
:10034400E6FF31C2E6FF030E02013225E16E000E24
:100354003321E26E080E3225E96E000E3321EA6E77
:10036400EECFE6FFEECFE6FF050E3225E16E000E7E
:100374003321E26E080E3225E96E000E3321EA6E57
:10038400EECFE6FFEECFE6FF2FC200F0000E016EC7
:100394000036013600900036013600900A0E3225F0
:1003A400D96E000E3321DA6EDE500024036E000E87
:1003B4000120046E03C000F004C001F00036009078
:1003C4000136003600900136000E0026040E01228C
:1003D40000C034F201C035F2020E0024E16E000EBA
:1003E4000120E26E010E3225E96E000E3321EA6E21
:1003F400EECFE6FFEECFE6FF010E3425E16E000EF0
:100404003521E26E080E3225E96E000E3321EA6EC4
:10041400EECFE6FF080E3225E96E000E3321EA6EB8
:10042400EECF03F0EECF04F004C000F0016A030E37
:100434000014036E32C2E9FF33C2EAFFEECF02F0CA
:10044400060E016E02C000F0015004E00036009078
:10045400FF0FFBD70350001234C2E1FF35C2E2FFA5
:08046400880E0010E66E120084
:10046C00C00E0001E76F040EE86F080EE96F000E76
:10047C00EA6F080EEB6F000EEC6FE66B0201366B49
:08048C008C0E376F8DDE1200AB
:1004940075D0D50E006E230E016E000E026E00C0E4
:1004A40036F201C037F202C038F25E0E0201396F33
:1004B400000E3A6F00C0F6FF01C0F7FF02C0F8FF5C
:1004C4000900F5CF3BF2000E3C6F01DF5E0E006EBB
:1004D400000E016E67D0C50E366F230E376F000E07
:1004E400386F5E0E396F000E3A6FB8DD5E0E006E27
:1004F400000E016E57D0920E366F230E376F000E2A
:10050400386F5E0E396F000E3A6FA8DD5E0E006E16
:10051400000E016E47D0B90E366F230E376F000EF2
:10052400386F5E0E396F000E3A6F98DD5E0E006E06
:10053400000E016E37D0DA0E366F230E376F000EC1
:10054400386F5E0E396F000E3A6F88DD5E0E006EF6
:10055400000E016E27D0D90E366F230E376F000EB2
:10056400386F5E0E396F000E3A6F78DD5E0E006EE6
:10057400000E016E17D0006A016A14D002012F51D7
:10058400000A87E02F51010AA6E02F51020AB3E0C6
:100594002F51030AC0E02F51040ACDE02F51050A60
:0605A400DAE0E9D71200C5
:0805AA00040E0001E06F1200D5
:1005B2006A0E006E010E016E010E0024E16E000E45
:1005C2000120E26E26C2E6FF27C2E6FF030E0024E8
:1005D200E16E000E0120E26E28C2E6FF29C2E6FFAC
:1005E200050E0024E16E000E0120E26E28C2E6FF35
:1005F20029C2E6FF00C0E1FF01C0E2FF010EE66E84
:08060200020E0001E06F12007E
:10060A0001016B6B6C6B6D6B6E6B6F6B706B010EBC
:10061A006A6F800E0201366F840E376FC2DD21DFEA
:02062A001200BC
:10062C0060D0A70E006E230E016E000E026E00C08D
:10063C0036F201C037F202C038F25E0E0201396F99
:10064C00000E3A6F00C0F6FF01C0F7FF02C0F8FFC2
:10065C000900F5CF3BF2000E3C6F35DE5E0E006EEE
:10066C00000E016E49D0480E006E230E016E000E76
:10067C00026E00C036F201C037F202C038F25E0ED4
:10068C00396F000E3A6F020E0024F66E000E012038
:10069C00F76E000E0220F86E0900F5CF04F0030E81
:1006AC000024F66E000E0120F76E000E0220F86E8C
:1006BC000900F5CF03F003C001F0006A04500024D8
:1006CC003B6F000E01203C6FFEDD5E0E006E000ED7
:1006DC00016E12D027C22FF2D7DE0ED0006A016A4B
:1006EC000BD002012651010A9CE02651020ABBE004
:0A06FC002651030AEFE0F2D71200C6
:1007060009D0010E02012F6F000E306F050E316FFA
:0E071600FEDD04D002012651050AF3E01200B8
:100724000F0E020126152C6F2D6B2E6B26AF06D0F3
:100734006A0E2A6F010E2B6F2D8305D0E60E2A6FE9
:10074400000E2B6F2D850B0E006E000E016E2CC259
:1007540004F0000E056E00DD2A5100262B51012203
:1007640000C02AF201C02BF2070E0024E16E000E35
:100774000120E26E27C2E6FF2AC2E1FF2BC2E2FF9C
:10078400E66A080E2A25E16E000E2B21E26E28C2CD
:10079400E6FF29C2E6FF2D872751010AD8A42D8937
:1007A400700E016E0F0E026E2C510126D8B0022A73
:1007B40001C0E9FF02C0EAFF2D51EE10006E01C036
:0C07C400E1FF02C0E2FF00C0E6FF1200EF
:1007D000020E0201266F1FC227F2000E286F296B3E
:1007E0002A6B24DF00C022F201C023F2020E002493
:1007F000E96E000E0120EA6EEECF05F0030E002434
:10080000E96E000E0120EA6EEECF03F0000E046EDA
:1008100003C001F0006A05500024206F000E012083
:10082000216F010E2225E96E000E2321EA6EEE50A3
:10083000050A2FE1020E2225E96E000E2321EA6E41
:10084000EECF26F2030E2225E96E000E2321EA6E7A
:10085000EECF06F0040E2225E96E000E2321EA6E8B
:10086000EECF05F0050E2225E96E000E2321EA6E7B
:10087000EECF03F0000E046E03C001F0006A0550D5
:100880000024286F000E0120296F030E0614276F25
:1008900049DF22C2D9FF23C2DAFFDE50205D006E9D
:1008A000000E2159016E00C020F201C021F200505B
:1008B00001100AE022C2E9FF23C2EAFFEECF00F0F6
:1008C00000502227000E232320512111AAE1100EEF
:0E08D0000001DE6F050E0201266F15DF12001B
:1008DE000201216B226B1FC2E9FF20C2EAFFEECF9D
:1008EE0000F0600E0014256F37D1010E1F25236F07
:1008FE00000E2021246F35D00201020E1F25E96E55
:10090E00000E2021EA6EEECF34F048DE5BD0340EBE
:10091E000201266F000E276F010E286F000E296F41
:10092E0041DE50D0020E02011F25E96E000E20217D
:10093E00EA6EEECF03F0EECF04F004C000F0016AD1
:10094E0000C033F02BDE3ED0330E0201266F000EB8
:10095E00276F010E286F000E296F24DE33D04EDE76
:10096E0004D123C2E9FF24C2EAFFEECF01F0000E4C
:10097E00000A02E10B0E0118BFE023C2E9FF24C2F8
:10098E00EAFFEECF01F0000E000A02E1030E01189D
:10099E00BEE023C2E9FF24C2EAFFEECF01F0000E53
:1009AE00000A02E10A0E0118BDE023C2E9FF24C2CB
:1009BE00EAFFEECF01F0000E000A02E1020E01186E
:1009CE00C3E0CDD7D2D00201010E1F25236F000E3A
:1009DE002021246FAAD00201020E1F25E96E000EFF
:1009EE002021EA6EEECF03F0EECF04F004C001F04A
:1009FE00026A0250000A02E1220E011833E1060ECD
:100A0E001F25E96E000E2021EA6EEECF01F0EECF2B
:100A1E0002F001C021F202C022F2000E006E02505E
:100A2E00005C02E10150210804E2210E216F000E4C
:100A3E00226F710E366F230E376F000E386F5E0EFB
:100A4E00396F000E3A6F21C23BF222C23CF23ADC01
:100A5E005E0E266F000E276F21C228F222C229F2E7
:100A6E00A1DD4CD0020E02011F25E96E000E2021E1
:100A7E00EA6EEECF03F0EECF04F004C001F0026A8E
:100A8E00000E021802E1210E011838E1060E1F2594
:100A9E00E96E000E2021EA6EEECF01F0EECF02F0ED
:100AAE0001C021F202C022F2000E006E0250005C64
:100ABE0002E10150090804E2090E216F000E226FB7
:100ACE00480E366F230E376F000E386F120E362714
:100ADE00000E372338235E0E396F000E3A6F21C297
:100AEE003BF222C23CF269EC01F05E0E266F000E64
:100AFE00276F21C228F222C229F254DD2CD0320EE9
:100B0E000201266F000E276F010E286F000E296F4F
:100B1E0049DD21D0020E02011F25E96E000E2021B3
:100B2E00EA6EEECF32F03ADD16D023C2E9FF24C2D0
:100B3E00EAFFEE50060AD8B44ED723C2E9FF24C20C
:100B4E00EAFFEE500A0ADBE023C2E9FF24C2EAFF05
:100B5E00EE500B0ADFE009D002012551200AD8B46D
:0C0B6E00C4D62551000AD8B42ED71200BE
:100B7A001FC26BF120C26CF121C26DF122C26EF16B
:100B8A0021C26FF122C270F1020E0001E06F120061
:100B9A0015C2E9FF16C2EAFFEECF00F01F0E0014DD
:100BAA0002011E6F7ED0EEC11CF2000E1D6F85D0B1
:100BBA001C6B1D6B82D0040E1525056E000E1621C6
:100BCA00066E05C0E9FF06C0EAFF0F0EEE14016EBD
:100BDA0001C017F201C003F0000E046E033604369A
:100BEA00039003360436039003C000F004C001F0FA
:100BFA00003600900136003600900136000E0024BF
:100C0A00186F040E0120196F05C0E9FF06C0EAFF3C
:100C1A00EECF02F0EECF03F002AE09D06A0E1A6FE1
:100C2A00010E1B6F080E1827000E192304D0E60EBA
:100C3A001A6F000E1B6F0B0E006E000E016E17C2AC
:100C4A0004F0000E056EAEEC00F01A5100261B519E
:100C5A00012200C01AF201C01BF200C0E9FF01C064
:100C6A00EAFFEECF03F003C000F0000E016E00367B
:100C7A0000900136003600900136185100261951AD
:100C8A00012200C018F201C019F200C0E9FF01C038
:100C9A00EAFFEECF00F01C6B00B41C2B000E1D6F98
:100CAA000CD01E51000AD8B47ED71E51010AD8B4FE
:100CBA007FD71E51020AD8B47ED71C0E1F6F020EB0
:0E0CCA00206F020E216F000E226F52DF12000B
:100CD800010E02011525E96E000E1621EA6EEE508E
:100CE800030A03E1010E1C6F01D01C6B15C2E9FF5A
:100CF80016C2EAFFEECF00F01F0E00141D6F21D1BF
:100D0800020E1525E96E000E1621EA6EEECF01F0EF
:100D1800EECF02F0000E021802E1010E011819E1EF
:100D2800040E0001E06F02011C5307E0020E0101EE
:100D3800EE11006E00C0EEF10BD00101FD0EEE15B4
:100D4800006E00C0EEF115C21FF216C220F2C3DD1C
:100D58001CD002011C5316E0020E1525E96E000E88
:100D68001621EA6EEECF01F0EECF02F0000E021867
:100D780002E1020E011805E115C21FF216C220F2A7
:100D8800AADD03D0060E0001E06FE8D015C21FF2FD
:100D980016C220F2A0DDE2D0020E02011525E96E8E
:100DA800000E1621EA6EEECF01F0EECF02F0000E33
:100DB800021802E1000E0118D8A4BDD0040E1525B2
:100DC800E96E000E1621EA6E0F0EEE14006EEECFDD
:100DD80001F0000E011600500110D8B4A8D0040E7E
:100DE8001525056E000E1621066E05C0E9FF06C022
:100DF800EAFF0F0EEE14016E01C017F201C003F0F6
:100E0800000E046E0336043603900336043603904E
:100E180003C000F004C001F000360090013600362F
:100E280000900136000E0024186F040E0120196F7F
:100E380005C0E9FF06C0EAFFEECF02F0EECF03F0EF
:100E480002AE04D0080E1827000E19231C5322E006
:100E580018C2E9FF19C2EAFF18C2E1FF19C2E2FF8E
:100E6800840EEE12040E1825016E000E1921026E72
:100E780001C018F202C019F201C0E9FF02C0EAFF7E
:100E8800840EEE10006E01C0E1FF02C0E2FF00C058
:100E9800E6FF4DD018C2E9FF19C2EAFF18C2E1FF08
:100EA80019C2E2FF7B0EEE16040E1825016E000E25
:100EB8001921026E01C018F202C019F201C0E9FF3F
:100EC80002C0EAFF7B0EEE14006E01C0E1FF02C013
:100ED800E2FF00C0E6FF040E1525E96E000E16219C
:100EE800EA6EEECF02F0EECF03F002AE05D06A0E46
:100EF8001A6F010E1B6F04D0E60E1A6F000E1B6FDF
:100F08000B0E006E000E016E17C204F0000E056E87
:100F1800AEEC00F01A5100261B51012200C01AF253
:100F280001C01BF200C0E1FF01C0E2FFE66A040E47
:100F38000001E06F05D015C21FF216C220F2CBDC0B
:100F48000DD002011D51000AD8B4DAD61D51010A8C
:0E0F5800D8B41CD71D51020AD8B41ED71200FF
:100F6600020E02011525E96E000E1621EA6EEECF7D
:100F760001F001C017F201500001E35D03E2060E25
:100F8600E06F31D0DE51080A13E102011751000A61
:100F960004E1040E0001E06F08D00001100EDE6FC0
:100FA600040EE06F17C21FF210DC17C2E4F01BD06C
:100FB6000001DE51100A14E102011751000A06E190
:100FC600080E0001DE6F040EE06F07D00001040E6C
:100FD600E06F17C21FF2E8EC03F017C2E4F003D08B
:080FE600060E0001E06F12008D
:100FEE00020E02011525E96E000E1621EA6EEECFF5
:100FFE0001F0EECF02F002C01CF21D6B94D0010E78
:10100E00266F276B286B296B2A6B16EC03F000C03A
:10101E0017F201C018F26E50000A05E1080E1A6FA1
:10102E00000E1B6F0AD017C2E9FF18C2EAFFEECFFF
:10103E001AF2000E1B6F000E1B6F8BD0020E1525C1
:10104E00E96E000E1621EA6EEECF01F001C019F224
:10105E0001500001E35D03E2060EE06F9DD0020E2B
:10106E000201266F19C227F2000E286F296B2A6B18
:10107E0016EC03F000C017F201C018F2020E0024A5
:10108E00E96E000E0120EA6EEECF05F0030E00248D
:10109E00E96E000E0120EA6EEECF03F0000E046E34
:1010AE0003C001F0006A055000241A6F000E0120E3
:1010BE001B6F4FD0030E266F020E1525E96E000E24
:1010CE001621EA6EFF0EEE14276FEECF28F2000EF9
:1010DE002817040E1525E96E000E1621EA6EEECFC6
:1010EE0029F2EECF2AF216EC03F000C017F201C07F
:1010FE0018F2000E011802E1000E001804E1060EAF
:10110E000001E06F49D017C2E9FF18C2EAFFEECF27
:10111E001AF2000E02011B6F000E1B6F1AD0060E84
:10112E000001E06F39D0000E02011D1902E1010E1F
:10113E001C19D8B464D7000E1D1902E1020E1C1939
:10114E00D8B47CD7000E1D1902E1030E1C19B2E0B3
:10115E00E6D7060E1525D96E000E1621DA6EDECFF5
:10116E0001F0DECF02F01B51025C02E11A51015C6C
:10117E000AE2060E1525E96E000E1621EA6EEECF76
:10118E001AF2EECF1BF217C21FF218C220F21AC2C9
:0A119E0021F21BC222F2EADC12006B
:1011A80002011151010A0AE1010E306E010E2F6F82
:0E11B800000E306F050E316F8AEC01F0120050
:1011C60016D001016B6B6C6B6D6B6E6B6F6B706B1E
:1011D6000101010E6A6F800E0201366F880E376FAD
:1011E600D6EC00F01AD019D005EC03F016D0000E9C
:1011F600000A03E1040E0001E019E3E0000E000A14
:1012060003E10001020EE019E3E0000E000A03E12B
:0C1216000001030EE019E7E0E7D712002A
:0E12220002011151010A02E1010E316E1200AB
:10123000010E02011125136F000E1221146F66D0EA
:1012400011C215F212C216F2A8DCAED011C215F20C
:1012500012C216F241DDA8D0020E02011125006E65
:10126000000E1221016E00C0E9FF01C0EAFFEECFBF
:10127000E5F000C0E9FF01C0EAFFEECF02F0EECFDB
:1012800003F0000E031802E1000E021804E0080E3D
:101290000001DE6F03D00001040EDE6F040EE06F6C
:1012A00083D011C2E9FF12C2EAFFEECF00F01F0E99
:1012B0000014016E0150000A06E111C215F212C2BB
:1012C00016F295DE06D011C21FF212C220F26FECA8
:1012D00004F06AD0E40E02011F6F000E206F010EB1
:1012E000216F000E226F49DC5FD011C215F212C2CD
:1012F00016F239DE59D011C21FF212C220F26FEC81
:1013000004F052D0060E0001E06F4ED013C2E9FF88
:1013100014C2EAFFEE50000A93E013C2E9FF14C2C0
:10132000EAFFEE50010A92E013C2E9FF14C2EAFF9D
:10133000EE50030A8BE013C2E9FF14C2EAFFEE503D
:10134000050A8AE013C2E9FF14C2EAFFEE50060A5A
:10135000A8E013C2E9FF14C2EAFFEE50080ABAE09F
:1013600013C2E9FF14C2EAFFEE50090ABEE013C23D
:10137000E9FF14C2EAFFEE50070ABDE013C2E9FF1D
:1013800014C2EAFFEE500C0AB6E013C2E9FF14C221
:10139000EAFFEE500A0AAFE013C2E9FF14C2EAFF07
:0A13A000EE500B0AA8E0AED71200D1
:1013AA00700E586E0F0E596E566A576A000E575CC9
:1013BA0002E10C0E565C0AE258C0E1FF59C0E2FF96
:0E13CA00E66A584A592A564A572AF0D71200A6
:1013D800000E586E040E596E566A576A000E575C16
:1013E80002E1C00E565C0AE258C0E1FF59C0E2FFB4
:1013F800E66A584A592A564A572AF0D7DE0E586ED6
:10140800000E596E566A576A010E575C02E1110EBA
:10141800565C0AE258C0E1FF59C0E2FFE66A584A42
:0A142800592A564A572AF0D712003D
:10143200FBC1EFF1FCC1F0F1030E0101FB25036ECC
:10144200000EFC21046E03C0E9FF04C0EAFFEECFE8
:1014520000F0000E00BE010E416E03C0E9FF04C0A1
:10146200EAFFEECF02F002C000F00036009003C0A7
:10147200E1FF04C0E2FF00C0E6FF030EEF25E16ECC
:10148200000EF021E26E020EEF25E96E000EF02151
:10149200EA6EEECF00F000BE02D0E69001D0E68008
:1014A200020EEF25E16E000EF021E26E41B002D095
:0814B200E69E01D0E68E120057
:1014BA00A69CFBC1A9FFA69EA680A8CF00F0120099
:1014CA006B6A6A6A696A686A6BDF160E6F6E6E6AA1
:1014DA007EDF9F0E6B6E7B0E696E6D8C6D9C160E99
:0E14EA00706E080E6D6E0001DE6BE06B12007E
:1014F80003500718D8A490EF0AF002500618D8A491
:1015080090EF0AF001500518D8A490EF0AF00050A7
:0E1518000418D8B4D8841200D894120012001F
:10152600A6A202D00000FCD7A69CFBC1A9FFFCC165
:10153600A8FFA69EA684F2CF00F0F29E550EA76ED7
:10154600AA0EA76EA68200BE02D0F29E01D0F28E2F
:04155600A694120045
:10155A0048C0E9FF49C0EAFFEECF00F03C0E001494
:10156A00016E01C006F00632069E0632069E06C0CD
:10157A000DF2010E4824E96E000E4920EA6EEECF04
:10158A0005F048C0E9FF49C0EAFFEECF00F0000EBF
:10159A00016E030E0014036E01C004F0000E04165F
:1015AA0003C001F0006A0050051002010E6F000E20
:1015BA0001100F6F06500D0A42E17F0E0401081553
:1015CA00006E00C008F47F0E0C15006E00C00CF40B
:1015DA0054C0E9FF55C0EAFFEECF00F054C0E1FF66
:1015EA0055C0E2FF7F0E0014E66E4C0E02013F6FFB
:1015FA00000E406FC00E416F040E426F080E436F1B
:10160A000EEC00F000C00BF201C00CF200C0E9FFC2
:10161A0001C0EAFF600EEE14016E0150000A06E1F5
:10162A000BC211F20CC212F2FEDD06D00BC21FF27F
:10163A000CC220F26FEC04F06D98C0DDA5D1020156
:10164A000D51010AD8A4C0D0000E000A03E1050E0C
:10165A000001E01905E10001E06B36EC02F0B3D0BD
:10166A00000E000A03E1030E0001E019D8A4ABD072
:10167A00010E4A24E96E000E4B20EA6EEECF3FF2CD
:10168A00EECF40F2C00E0201416F040E426F0EC24D
:10169A0043F20EEC00F0050E4A24026E000E4B20B7
:1016AA00036E02C0E9FF03C0EAFF0E51EE5C006E52
:1016BA000F51EE58016E02C0E1FF03C0E2FF00C005
:1016CA00E6FF01C0E6FF010E4A24026E000E4B201F
:1016DA00036E02C0E9FF03C0EAFF0E51EE24006E5A
:1016EA000F51EE20016E02C0E1FF03C0E2FF00C00D
:1016FA00E6FF01C0E6FF030E4A24026E000E4B20ED
:10170A00036E02C0E9FF03C0EAFF0E51EE24006E29
:10171A000F51EE20016E02C0E1FF03C0E2FF00C0DC
:10172A00E6FF01C0E6FF000E0F5D04E10001E25191
:10173A0002010E5D2EE26A0E096F010E0A6F010E9A
:10174A000925E16E000E0A21E26EC00EE66E040E55
:10175A00E66E030E0925E16E000E0A21E26EE66AC4
:10176A00E66A050E0925E16E000E0A21E26EE66AB6
:10177A00E66A09C2E1FF0AC2E2FF010EE66E800EC6
:10178A00366F880E376FD6EC00F0040E0001E06F5A
:10179A0013D04AC0E9FF4BC0EAFFEECF00F04AC0BF
:1017AA00E1FF4BC0E2FF010E0018E66E0201366B44
:1017BA00880E376FD6EC00F00201116B0EC212F2DE
:1017CA000FC213F229DDE0D00201106B050E4A2484
:1017DA00E96E000E4B20EA6EEECF01F0EECF02F07A
:1017EA00000E021803E10001E25101180CE1000E9B
:1017FA00006E5350005C03E100015250E25D03E2C7
:10180A00010E0201106F0201050E4A24026E000E3B
:10181A004B20036E02C0E9FF03C0EAFF0E51EE5CE3
:10182A00006E0F51EE58016E02C0E1FF03C0E2FFE5
:10183A0000C0E6FF01C0E6FF010E4A24026E000E58
:10184A004B20036E02C0E9FF03C0EAFF0E51EE24EB
:10185A00006E0F51EE20016E02C0E1FF03C0E2FFED
:10186A0000C0E6FF01C0E6FF050E4A24E96E000E3D
:10187A004B20EA6EEECF01F0EECF02F0000E006EC2
:10188A000250005C02E10150000816E3050E4A24EA
:10189A00E96E000E4B20EA6EEECF01F0EECF02F0B9
:1018AA00000E021802E1000E011805E102011051B2
:1018BA00010A01E101D015D002014AC0E9FF4BC07B
:1018CA00EAFFEECF00F04AC0E1FF4BC0E2FF010E93
:1018DA000018E66E800E366F880E376FD6EC00F071
:1018EA0050D00201800E366F840E376FD6EC00F0AE
:1018FA00000E000A03E1020E0001E01932E10001C4
:10190A00050EE06FE60E0201096F000E0A6F010E66
:10191A000925E16E000E0A21E26EC00EE66E040E83
:10192A00E66E030E0925E16E000E0A21E26E080E2C
:10193A00E66E000EE66E050E0925E16E000E0A211E
:10194A00E26E080EE66E000EE66E09C2E1FF0AC2FA
:10195A00E2FF010EE66E366B880E376FD6EC00F0AA
:10196A0010D0000E000A03E1040E0001E01909E19B
:10197A000001DE51080A02E1E5C06EFFE06B36ECB9
:0A198A0002F00201116B0BDC1200E9
:101994000B0E006E000E016EFBC104F0000E056E0E
:1019A400AEEC00F06A0E0026010E012200C001F226
:1019B40001C002F2010E0024E16E000E0120E26E6D
:1019C400FCC1E6FFFDC1E6FF030E02010125E16E45
:1019D400000E0221E26EFEC1E6FFFFC1E6FF050E26
:1019E4000125E16E000E0221E26EFEC1E6FFFFC199
:1019F400E6FFFBC100F0000E016E003601360090D8
:101A0400003601360090020E0026000E01220A0E56
:101A14000125D96E000E0221DA6EDE500024036E19
:101A2400000E0120046E03C000F004C001F0003673
:101A340000900136003600900136000E0026040E98
:101A4400012200C003F201C004F2020E0024E16E80
:101A5400000E0120E26EFCC1E6FFFDC1E6FF010EAF
:101A64000325E16E000E0421E26EFEC1E6FFFFC114
:101A740000F0016A030E0014036E01C2E9FF02C202
:101A8400EAFFEECF02F0060E016E02C000F0015034
:101A940004E000360090FF0FFBD70350001203C28E
:0E1AA400E1FF04C2E2FF880E0010E66E1200A1
:101AB200FBC1C9FFC7B002D00000FCD7C9CF00F0FC
:021AC200120010
:101AC4000900F5CFE6FF0006FBE10106F9E112008B
:101AD400B20E3B6E1A0E3C6EFB0E3D6E010E3E6E58
:101AE400FF0E5A6EFF0E5B6EFF0E5C6EFF0E5D6E98
:101AF400949E0101F751040A02E1938201D093926A
:101B04009380C66AF751C612F951C612F851C7122A
:101B1400F95305E0FA51000AD8B4C78C03D0FA533C
:081B2400D8A4C78CC68A120088
:0A1B2C008A849394466A476A120007
:021B360012009B
:081B3800806A816A826A1200D2
:0A1B4000060EC16E070EB46E12000F
:041B4A00F26A120029
:101B4E000101FB6BB3DC00C074F5010EFB6FAEDC64
:101B5E0000C075F5020EFB6FA9DC00C076F5030E12
:101B6E00FB6FA4DC00C077F5040EFB6F9FDC00C09A
:101B7E0078F5050EFB6F9ADC00C079F5060EFB6F4B
:101B8E0095DC00C07AF5070EFB6F90DC00C07BF58C
:101B9E00080EFB6F8BDC00C07CF5090EFB6F86DC3C
:101BAE0000C07DF50A0EFB6F81DC00C07EF50B0ECA
:0A1BBE00FB6F7CDC00C07FF5120015
:101BC8008A94366A356A0101F7A102D0800E366E12
:101BD800F7A302D0010E356EF7A501D035820C0EA1
:101BE8003510FB6F62DF36C0FBF15FDF1F0E00149C
:101BF800476E0101FB6B59DF00C046F08A8447A895
:0C1C080004D0000E4612E00E471212003D
:101C14000001DE51000A07E1080E6D6E010EDE6F51
:101C2400686A020EDE6F68506914016E01A413D055
:101C3400DFC0DEF0080E0201266F83EC03F0699426
:101C4400FF0E006F68A407D000C200F00007005226
:101C540002E06894F7D768506914016E01A043D07C
:101C640032DC010E0201266F276B286B296B2A6B6D
:101C740016EC03F0070E0024E96E000E0120EA6E54
:101C8400EECFE2F0110E0024E96E000E0120EA6EA0
:101C9400EECFE3F0040E0001DE6FE2C0EEF0000EC2
:101CA400EF6FE2C072F1000E0101736F020E0201C8
:101CB400266F83EC03F0C00E0001E76F040EE86F9B
:101CC400080EE96F000EEA6F080EEB6F000EEC6F62
:101CD400E66BE7C002F4E8C003F4080E0401016FE8
:101CE4008C0E006F689068506914016E01A80CD0C6
:101CF40068986984DEC0DFF0200E0001DE6F060EF6
:101D04000201266F83EC03F068506914016E01AC84
:101D140006D00201689C080E266F83EC03F068501D
:101D24006914016E01AA03D070B07090689A68506B
:101D34006914016E01A202D06A6A6892040E00015D
:101D4400DE5D02E2A19ACCD00201076B040E075DAE
:101D5400D8B0C5D068506914016E01A6BDD06CCF4F
:101D6400E1F0E1C000F00032009E0032009E00323B
:101D7400009E0F0E0014016E01C008F2689601C0A7
:101D840003F0000E046E0336043603900336043663
:101D9400039003C000F004C001F000360090013647
:101DA400003600900136000E0024486E040E012017
:101DB400496E0001E1A509D06A0E4A6E010E4B6E10
:101DC400080E4826000E492204D0E60E4A6E000E84
:101DD4004B6E0B0E006E000E016E08C204F0000E76
:101DE400056EAEEC00F000504A2601504B22040E62
:101DF4004824546E000E4920556EE1A308D048C013
:101E040054F049C055F0040E4826000E49220A0E2B
:101E14004A24016E000E4B20026E01C0E9FF02C08D
:101E2400EAFF010EEE18006E01C0E1FF02C0E2FFFE
:101E340000C0E6FF02010851000A03E1ADEC0AF01C
:101E44004BD00001E1A512D04AC0E9FF4BC0EAFF24
:101E5400EECF00F04AC0E1FF4BC0E2FF010E0018D4
:101E6400E66E08C211F2D4EC08F036D00201010E7D
:101E74004824E96E000E4920EA6EEECF05F048C012
:101E8400E9FF49C0EAFFEECF00F0000E016E030E39
:101E94000014036E01C004F0000E041603C001F028
:101EA400006A00500510056F000E0110066F4AC04D
:101EB400E9FF4BC0EAFFEECF00F04AC0E1FF4BC0A0
:101EC400E2FF010E0018E66E08C211F205C212F21A
:101ED40006C213F211EC09F00201072B37D7A19ABD
:021EE4001200EA
:101EE60001C542F002C543F003C544F004C545F000
:101EF600420E0101FB6F000EFC6F19EC0AF042C0A6
:101F060000F043C001F044C002F045C003F0046A8B
:101F1600056A066A076A7CEC0AF0000ED8A4010E70
:101F2600006E005258E0FB6B01C5FCF193EC0AF021
:101F36004E0E0C6EEB0E0D6E0D2EFED70C2EFCD734
:101F4600010E0101FB6F02C5FCF193EC0AF04E0E87
:101F56000C6EEB0E0D6E0D2EFED70C2EFCD7020E60
:101F66000101FB6F03C5FCF193EC0AF04E0E0C6EFB
:101F7600EB0E0D6E0D2EFED70C2EFCD7030E0101B7
:101F8600FB6F04C5FCF193EC0AF04E0E0C6EEB0EE3
:101F96000D6E0D2EFED70C2EFCD7040E0101FB6F25
:101FA60005C5FCF193EC0AF04E0E0C6EEB0E0D6EB1
:101FB6000D2EFED70C2EFCD7050E0101FB6F06C5B4
:101FC600FCF193EC0AF04E0E0C6EEB0E0D6E0D2E20
:101FD600FED70C2EFCD707C537F008C538F009C563
:101FE60039F00AC53AF0370E0101FB6F000EFC6F9F
:101FF60019EC0AF037C000F038C001F039C002F021
:102006003AC003F0046A056A066A076A7CEC0AF0BD
:10201600000ED8A4010E006E005259E0060EFB6FAA
:1020260007C5FCF193EC0AF04E0E0C6EEB0E0D6E2E
:102036000D2EFED70C2EFCD7070E0101FB6F08C52F
:10204600FCF193EC0AF04E0E0C6EEB0E0D6E0D2E9F
:10205600FED70C2EFCD7080E0101FB6F09C5FCF15B
:1020660093EC0AF04E0E0C6EEB0E0D6E0D2EFED797
:102076000C2EFCD7090E0101FB6F0AC5FCF193EC8F
:102086000AF04E0E0C6EEB0E0D6E0D2EFED70C2EBC
:10209600FCD70A0E0101FB6F0BC5FCF193EC0AF0AD
:1020A6004E0E0C6EEB0E0D6E0D2EFED70C2EFCD7C3
:1020B6000B0E0101FB6F0CC5FCF193EC0AF04E0E02
:1020C6000C6EEB0E0D6E0D2EFED70C2EFCD71200ED
:1020D600306A010E0101FB6F400EFC6F050EFD6FAD
:1020E600400EFE6F000EFF6F52DCE80E3F6E030ED1
:1020F600406E30520DE1000E401802E1000E3F180E
:1021060002E1006A07D0010E3F5E000E405AF1D789
:06211600FF0E006E120036
:06211C00DEC000F012001D
:10212200EEEC11F00101F16BF26BF36BF46BF56BFA
:10213200F66B01DD04DD08DD010EF76FF86BF96B5C
:10214200010EFA6FC6DCF6DC65EC0AF0D08EA28ACC
:10215200A08AF28EEADCFADCE0DF0050100A01E02D
:10216200FBD7899092908980315207E00501005196
:10217200A30A02E1B7DEEADC316A0101F26BF16B1C
:10218200190EF15D67E2F76B1EDD47AE31D046C036
:1021920000F047C001F0FF0E046EFF0E056EAEECBC
:1021A20000F000C0F5F101C0F6F10101F351002485
:1021B200036EF4510120046E03C000F004C001F06C
:1021C20001320032019E00C046F001C047F0FF0E0E
:1021D200046EFF0E056EAEEC00F000C046F001C0CA
:1021E20047F0130E0D6E0D2EFED70000000012D028
:1021F200010146C0F5F147C0F6F1F3514626F4510C
:10220200472247324632479E3B0E0D6E0D2EFED7B9
:1022120000000000F5C1F3F1F6C1F4F1400EE16EE9
:10222200050EE26EF251E126D8B0E22A46C0E6FF80
:10223200F251010F006E016A000E0122400E0024CD
:10224200E16E050E0120E26E47C0E6FF020EF227A4
:10225200F12B96D7020EF76FB6DC46C072F547C077
:0A22620073F5899037DF7FD7FFD7AF
:10226C00156ED8CF16F0E0CF17F01750E06E165061
:08227C00D86E153A1538100068
:1022840000C023F001C022F002C021F003C020F0FE
:1022940004C01FF005C01EF006C01DF007C01CF0EE
:1022A40008C01BF009C01AF00AC019F00BC018F0DE
:1022B400D9CF2EF0DACF2FF0E1CF2CF0E2CF2DF0F2
:1022C400E9CF2AF0EACF2BF0F3CF28F0F4CF29F0AE
:1022D400F5CF27F0F8CF24F0F7CF25F0F6CF26F08E
:1022E40097DC27C0F5FF24C0F8FF25C0F7FF26C000
:1022F400F6FF28C0F3FF29C0F4FF23C000F022C07A
:1023040001F021C002F020C003F01FC004F01EC081
:1023140005F01DC006F01CC007F01BC008F01AC071
:1023240009F019C00AF018C00BF02AC0E9FF2BC04D
:10233400EAFF2CC0E1FF2DC0E2FF2EC0D9FF2FC061
:04234400DAFF1100AB
:1023DC0010EE30F0050E006E010E016ED00EF66E92
:0E23EC00230EF76E000EF86E62EC0DF012007C
:1023480009022900010104E0320904000002030027
:102358000005092101010001222100070581034030
:092368000001070501034000011A
:102371000600FF0901A10119012940150026FF00EE
:10238100750895408102190129407508954091020F
:01239100C08B
:10239200555342204261747465727920416E616CBA
:0523A200797A6572006C
:1023A7001201000200000040BD1F040000010102ED
:0223B700030120
:0C23B90049545542413031303030310081
:0B23C500494E465241205465636800F9
:0123D000000C
:0123D100000B
:0123D200000A
:0123D3000009
:0123D4000008
:0423D50004030904F0
:0123D9000003
:0123DA000002
:020000040030CA
:0E000000240E3E1EFF0381FF00800FE00F4024
:0200000400F00A
:100000000000803F00000000803F0000FFFFFFFF76
:10001000FFFFFFFFFFFFFFFFFFFFFFFFFFFFFFFFF0
:10002000FFFFFFFFFFFFFFFFFFFFFFFFFFFFFFFFE0
:10003000FFFFFFFFFFFFFFFFFFFFFFFFFFFFFFFFD0
:10004000FFFFFFFFFFFFFFFFFFFFFFFFFFFFFFFFC0
:10005000FFFFFFFFFFFFFFFFFFFFFFFFFFFFFFFFB0
:10006000FFFFFFFFFFFFFFFFFFFFFFFFFFFFFFFFA0
:10007000FFFFFFFFFFFFFFFFFFFFFFFFFFFFFFFF90
:10008000FFFFFFFFFFFFFFFFFFFFFFFFFFFFFFFF80
:10009000FFFFFFFFFFFFFFFFFFFFFFFFFFFFFFFF70
:1000A000FFFFFFFFFFFFFFFFFFFFFFFFFFFFFFFF60
:1000B000FFFFFFFFFFFFFFFFFFFFFFFFFFFFFFFF50
:1000C000FFFFFFFFFFFFFFFFFFFFFFFFFFFFFFFF40
:1000D000FFFFFFFFFFFFFFFFFFFFFFFFFFFFFFFF30
:1000E000FFFFFFFFFFFFFFFFFFFFFFFFFFFFFFFF20
:1000F000FFFFFFFFFFFFFFFFFFFFFFFFFFFFFFFF10
:00000001FF

