:1000000032EF10F000000000F3EF10F000000000ED
:0C0010000000000000000000E7EF10F00E
:10001C003DC204F03EC205F03BC202F03CC203F00C
:10002C003FC200F002013F0700520FE004C0E9FF9D
:10003C0005C0EAFF02C0E1FF03C0E2FFEECFE6FF1E
:10004C00024A032A044A052AEBD73BC200F03CC201
:04005C0001F012009D
:100060000201376B386B32C201F033C202F034C286
:1000700003F0000E046E000E006E041808E100503C
:10008000031805E10050021802E10150000A65E082
:1000900032C205F033C206F034C207F005C0F6FFE5
:1000A00006C0F7FF07C0F8FF0900F5CF01F00150C7
:1000B000000A07E0382B010E0526000E0622072253
:1000C000EDD738C200F000360090020E002600C0C6
:1000D00038F232C205F033C206F034C207F03751AD
:1000E0003525E16E000E3621E26E00C0E6FF372BAB
:1000F00037513525E16E000E3621E26E030EE66EB5
:10010000372B05C0F6FF06C0F7FF07C0F8FF090050
:10011000F5CF01F00150000A20E037513525E16E9E
:10012000000E3621E26E05C0F6FF06C0F7FF07C0DD
:10013000F8FF0900F5CF00F000C0E6FF372B010EF5
:100140000526000E0622072237513525E16E000EE6
:0C0150003621E26EE66A372BD4D712008D
:10015C000B6A0A6A096A00500402F4CF09F0F3CF63
:10016C0008F001500502F4CF0BF0F3CF0AF0005069
:10017C000502F3500926F4500A22E86A0B220150BA
:10018C000402F3500926F4500A22E86A0B2208C034
:10019C0000F009C001F00AC002F00BC003F012001D
:1001AC00020132AF07D0E80E366F000E376F020E29
:1001BC00386F05D0640E366F000E376F386B0A0E31
:1001CC003625D96E000E3721DA6EDE503825036ED7
:1001DC00046A000E042203C000F004C001F00036D3
:1001EC0000900136003600900136000E0024346F6A
:1001FC00040E0120356F050E3625E96E000E3721F1
:10020C00EA6EEECF01F0EECF02F0000E006E02505F
:10021C00005C03E101500001605D06E260C039F250
:10022C00000E02013A6F0BD00201050E3625E96E65
:10023C00000E3721EA6EEECF39F2EECF3AF2C00E55
:10024C003B6F040E3C6F010E3625E96E000E372114
:10025C00EA6EEECF3DF2EECF3EF239C23FF2D8DE7F
:10026C00020E3425E16E000E3521E26EC00E006EDA
:10027C00040E016E00C0E6FF01C0E6FF010E34253E
:10028C00E16E000E3521E26E39C2E6FF030E3A151F
:10029C00036E36C2E9FF37C2EAFFEECF02F0060E5C
:1002AC00016E02C000F0015004E000360090FF0F18
:1002BC00FBD70350001234C2E1FF35C2E2FF3351C9
:0602CC000010E66E1200B6
:1002D200016A026A02013851025C02E13751015C93
:1002E20017E201503525E16E02503621E26E0150CF
:1002F2003225F66E02503321F76E000E3421F86E6D
:100302000900F5CF00F000C0E6FF014A022AE2D759
:020312001200D7
:100314000B0E006E000E016E2BC204F0000E056E73
:100324001BDF640E0026000E012200C02EF201C065
:100334002FF2010E0024E16E000E0120E26E2CC2A9
:10034400E6FF2DC2E6FF030E02012E25E16E000E2C
:100354002F21E26E080E2E25E96E000E2F21EA6E83
:10036400EECFE6FFEECFE6FF050E2E25E16E000E82
:100374002F21E26E080E2E25E96E000E2F21EA6E63
:10038400EECFE6FFEECFE6FF2BC200F0000E016ECB
:100394000036013600900036013600900A0E2E25F4
:1003A400D96E000E2F21DA6EDE500024036E000E8B
:1003B4000120046E03C000F004C001F00036009078
:1003C4000136003600900136000E0026040E01228C
:1003D40000C030F201C031F2020E0024E16E000EC2
:1003E4000120E26E010E2E25E96E000E2F21EA6E29
:1003F400EECFE6FFEECFE6FF010E3025E16E000EF4
:100404003121E26E080E2E25E96E000E2F21EA6ED0
:10041400EECFE6FF080E2E25E96E000E2F21EA6EC0
:10042400EECF03F0EECF04F004C000F0016A030E37
:100434000014036E2EC2E9FF2FC2EAFFEECF02F0D2
:10044400060E016E02C000F0015004E00036009078
:10045400FF0FFBD70350001230C2E1FF31C2E2FFAD
:08046400880E0010E66E120084
:10046C00C00E0001656F040E666F080E676F000EFC
:10047C00686F080E696F000E6A6F646B0201326B55
:08048C008C0E336F8DDE1200AF
:1004940075D0680E006E230E016E000E026E00C051
:1004A40032F201C033F202C034F26D0E0201356F34
:1004B400010E366F00C0F6FF01C0F7FF02C0F8FF5F
:1004C4000900F5CF37F2000E386F01DF6D0E006EB4
:1004D400010E016E67D0370E326F230E336F000E9C
:1004E400346F6D0E356F010E366FB8DD6D0E006E14
:1004F400010E016E57D0480E326F230E336F000E7B
:10050400346F6D0E356F010E366FA8DD6D0E006E03
:10051400010E016E47D0580E326F230E336F000E5A
:10052400346F6D0E356F010E366F98DD6D0E006EF3
:10053400010E016E37D00E0E326F230E336F000E94
:10054400346F6D0E356F010E366F88DD6D0E006EE3
:10055400010E016E27D0F40E326F220E336F000E9F
:10056400346F6D0E356F010E366F78DD6D0E006ED3
:10057400010E016E17D0006A016A14D002012B51DA
:10058400000A87E02B51010AA6E02B51020AB3E0CE
:100594002B51030AC0E02B51040ACDE02B51050A6C
:0605A400DAE0E9D71200C5
:0605AA00040E5E6E12005B
:1005B000E80E006E000E016E010E0024E16E000ECA
:1005C0000120E26E22C2E6FF23C2E6FF030E0024F2
:1005D000E16E000E0120E26E24C2E6FF25C2E6FFB6
:1005E000050E0024E16E000E0120E26E24C2E6FF3B
:1005F00025C2E6FF00C0E1FF01C0E2FF010EE66E8A
:06060000020E5E6E120006
:100606000001E96BEA6BEB6BEC6BED6BEE6B010ECD
:10061600E86F800E0201326F840E336FC4DD23DF74
:020626001200C0
:1006280060D0250E006E230E016E000E026E00C013
:1006380032F201C033F202C034F26D0E0201356F9E
:10064800010E366F00C0F6FF01C0F7FF02C0F8FFC9
:100658000900F5CF37F2000E386F37DE6D0E006EE9
:10066800010E016E49D0AA0E006E220E016E000E18
:10067800026E00C032F201C033F202C034F26D0ED5
:10068800356F010E366F020E0024F66E000E012043
:10069800F76E000E0220F86E0900F5CF04F0030E85
:1006A8000024F66E000E0120F76E000E0220F86E90
:1006B8000900F5CF03F003C001F0006A04500024DC
:1006C800376F000E0120386F00DE6D0E006E010ED0
:1006D800016E12D023C22BF2D9DE0ED0006A016A55
:1006E8000BD002012251010A9CE02251020ABBE010
:0A06F8002251030AEFE0F2D71200CE
:1007020009D0010E02012B6F000E2C6F050E2D6F0A
:0E07120000DE04D002012251050AF3E01200BD
:100720000F0E02012215286F296B2A6B22AF06D00B
:10073000E80E266F000E276F298305D0640E266F02
:10074000000E276F29850B0E006E000E016E28C269
:1007500004F0000E056E02DD26510026275101220D
:1007600000C026F201C027F2070E0024E16E000E41
:100770000120E26E23C2E6FF26C2E1FF27C2E2FFAC
:10078000E66A080E2625E16E000E2721E26E24C2DD
:10079000E6FF25C2E6FF29872351010AD8A429894B
:1007A000700E016E0F0E026E28510126D8B0022A7B
:1007B00001C0E9FF02C0EAFF2951EE10006E01C03E
:0C07C000E1FF02C0E2FF00C0E6FF1200F3
:1007CC00020E0201226F1BC223F2000E246F256B56
:1007DC00266B24DF00C01EF201C01FF2020E0024A3
:1007EC00E96E000E0120EA6EEECF05F0030E002438
:1007FC00E96E000E0120EA6EEECF03F0000E046EDF
:10080C0003C001F0006A055000241C6F000E01208B
:10081C001D6F010E1E25E96E000E1F21EA6EEE50B3
:10082C00050A2FE1020E1E25E96E000E1F21EA6E4D
:10083C00EECF22F2030E1E25E96E000E1F21EA6E8A
:10084C00EECF06F0040E1E25E96E000E1F21EA6E97
:10085C00EECF05F0050E1E25E96E000E1F21EA6E87
:10086C00EECF03F0000E046E03C001F0006A0550D9
:10087C000024246F000E0120256F030E0614236F35
:10088C0049DF1EC2D9FF1FC2DAFFDE501C5D006EAD
:10089C00000E1D59016E00C01CF201C01DF200506B
:1008AC0001100AE01EC2E9FF1FC2EAFFEECF00F002
:1008BC0000501E27000E1F231C511D11AAE1100E03
:0A08CC005C6E050E226F17DF1200AC
:1008D60002011D6B1E6B1BC2E9FF1CC2EAFFEECFB5
:1008E60000F0600E0014216F2ED1010E1B251F6F24
:1008F600000E1C21206F31D0020E1B25E96E000E62
:100906001C21EA6EEECF34F04DDE58D0340E226F45
:10091600000E236F010E246F000E256F46DE4ED0AB
:10092600020E1B25E96E000E1C21EA6EEECF03F0C7
:10093600EECF04F004C000F0016A00C033F032DEEE
:100946003DD0330E226F000E236F010E246F000E72
:10095600256F2BDE33D054DEFED01FC2E9FF20C246
:10096600EAFFEECF01F0000E000A02E10B0E0118BD
:10097600C3E01FC2E9FF20C2EAFFEECF01F0000E7E
:10098600000A02E1030E0118C1E01FC2E9FF20C2FE
:10099600EAFFEECF01F0000E000A02E10A0E01188E
:1009A600BFE01FC2E9FF20C2EAFFEECF01F0000E52
:1009B600000A02E1020E0118C4E0CDD7CCD0010E28
:1009C6001B251F6F000E1C21206FA6D0020E1B25B3
:1009D600E96E000E1C21EA6EEECF03F0EECF04F0B6
:1009E60004C001F0026A0250000A02E1220E011858
:1009F60033E1060E1B25E96E000E1C21EA6EEECFD2
:100A060001F0EECF02F001C01DF202C01EF2000E90
:100A1600006E0250005C02E10150210804E2210E42
:100A26001D6F000E1E6FD30E326F220E336F000E37
:100A3600346F6D0E356F010E366F1DC237F21EC252
:100A460038F244DC6D0E226F010E236F1DC224F2B4
:100A56001EC225F2AADD4BD0020E1B25E96E000E42
:100A66001C21EA6EEECF03F0EECF04F004C001F0D5
:100A7600026A000E021802E1210E011838E1060E84
:100A86001B25E96E000E1C21EA6EEECF01F0EECFBB
:100A960002F001C01DF202C01EF2000E006E0250EE
:100AA600005C02E10150090804E2090E1D6F000E08
:100AB6001E6FAA0E326F220E336F000E346F120EA7
:100AC6003227000E332334236D0E356F010E366F39
:100AD6001DC237F21EC238F269EC01F06D0E226FAC
:100AE600010E236F1DC224F21EC225F25EDD2AD03E
:100AF600320E226F000E236F010E246F000E256F3B
:100B060054DD20D0020E1B25E96E000E1C21EA6E74
:100B1600EECF32F047DD16D01FC2E9FF20C2EAFF52
:100B2600EE50060AD8B452D71FC2E9FF20C2EAFF28
:100B3600EE500A0ADDE01FC2E9FF20C2EAFFEE50CE
:100B46000B0AE0E008D02151200AD8B4CED62151B4
:080B5600000AD8B434D71200E4
:100B5E001BC2E9F01CC2EAF01DC2EBF01EC2ECF0A3
:0E0B6E001DC2EDF01EC2EEF0020E5E6E120011
:100B7C0011C2E9FF12C2EAFFEECF00F01F0E001403
:100B8C0002011A6F7ED06CC118F2000E196F85D05D
:100B9C00186B196B82D0040E1125056E000E1221F4
:100BAC00066E05C0E9FF06C0EAFF0F0EEE14016EDB
:100BBC0001C013F201C003F0000E046E03360436BC
:100BCC00039003360436039003C000F004C001F018
:100BDC00003600900136003600900136000E0024DD
:100BEC00146F040E0120156F05C0E9FF06C0EAFF63
:100BFC00EECF02F0EECF03F002AE09D0E80E166F86
:100C0C00000E176F080E1427000E152304D0640E67
:100C1C00166F000E176F0B0E006E000E016E13C2D6
:100C2C0004F0000E056EAEEC00F0165100261751C4
:100C3C00012200C016F201C017F200C0E9FF01C08A
:100C4C00EAFFEECF03F003C000F0000E016E003699
:100C5C0000900136003600900136145100261551D3
:100C6C00012200C014F201C015F200C0E9FF01C05E
:100C7C00EAFFEECF00F0186B00B4182B000E196FC2
:100C8C000CD01A51000AD8B47ED71A51010AD8B424
:100C9C007FD71A51020AD8B47ED7180E1B6F020EDA
:0E0CAC001C6F020E1D6F000E1E6F53DF120034
:100CBA00010E02011125E96E000E1221EA6EEE50B4
:100CCA00030A03E1010E186F01D0186B11C2E9FF84
:100CDA0012C2EAFFEECF00F01F0E0014196F1CD1EA
:100CEA00020E1125E96E000E1221EA6EEECF01F016
:100CFA00EECF02F0000E021802E1010E011817E110
:100D0A00040E5E6E185307E0020E01016C11006EAC
:100D1A0000C06CF10BD00101FD0E6C15006E00C015
:100D2A006CF111C21BF212C21CF2D0DD1BD00201FF
:100D3A00185316E0020E1125E96E000E1221EA6E12
:100D4A00EECF01F0EECF02F0000E021802E1020E21
:100D5A00011805E111C21BF212C21CF2B7DD02D062
:100D6A00060E5E6EE5D011C21BF212C21CF2AEDD97
:100D7A00DFD0020E1125E96E000E1221EA6EEECFC7
:100D8A0001F0EECF02F0000E021802E1000E011887
:100D9A00D8A4BCD0040E1125E96E000E1221EA6E09
:100DAA000F0EEE14006EEECF01F0000E0116005089
:100DBA000110D8B4A8D0040E1125056E000E122118
:100DCA00066E05C0E9FF06C0EAFF0F0EEE14016EBB
:100DDA0001C013F201C003F0000E046E033604369C
:100DEA00039003360436039003C000F004C001F0F8
:100DFA00003600900136003600900136000E0024BD
:100E0A00146F040E0120156F05C0E9FF06C0EAFF42
:100E1A00EECF02F0EECF03F002AE04D0080E142794
:100E2A00000E1523185322E014C2E9FF15C2EAFF87
:100E3A0014C2E1FF15C2E2FF840EEE12040E14255D
:100E4A00016E000E1521026E01C014F202C015F2E5
:100E5A0001C0E9FF02C0EAFF840EEE10006E01C075
:100E6A00E1FF02C0E2FF00C0E6FF4DD014C2E9FF75
:100E7A0015C2EAFF14C2E1FF15C2E2FF7B0EEE16AD
:100E8A00040E1425016E000E1521026E01C014F223
:100E9A0002C015F201C0E9FF02C0EAFF7B0EEE14A0
:100EAA00006E01C0E1FF02C0E2FF00C0E6FF040ECF
:100EBA001125E96E000E1221EA6EEECF02F0EECF96
:100ECA0003F002AE05D0E80E166F000E176F04D0BD
:100EDA00640E166F000E176F0B0E006E000E016E79
:100EEA0013C204F0000E056EAEEC00F01651002697
:100EFA001751012200C016F201C017F200C0E1FF2B
:100F0A0001C0E2FFE66A040E5E6E05D011C21BF252
:100F1A0012C21CF2DBDC0CD01951000AD8B4E0D69C
:100F2A001951010AD8B41FD71951020AD8B421D7C6
:020F3A001200A3
:100F3C00020E02011125E96E000E1221EA6EEECFAF
:100F4C0001F0EECF02F002C018F2196B91D0010E35
:100F5C00226F236B246B256B266B14EC03F000C003
:100F6C0013F201C014F26E50000A05E1080E166F60
:100F7C00000E176F0AD013C2E9FF14C2EAFFEECFBE
:100F8C0016F2000E176F000E176F86D0020E112589
:100F9C00E96E000E1221EA6EEECF01F001C015F2DF
:100FAC0001500001615D03E2060E5E6E98D0020EE8
:100FBC000201226F15C223F2000E246F256B266BE3
:100FCC0014EC03F000C013F201C014F2020E002462
:100FDC00E96E000E0120EA6EEECF05F0030E002440
:100FEC00E96E000E0120EA6EEECF03F0000E046EE7
:100FFC0003C001F0006A05500024166F000E01209A
:10100C00176F4AD0030E226F020E1125E96E000EE7
:10101C001221EA6EFF0EEE14236FEECF24F2000EB7
:10102C002417040E1125E96E000E1221EA6EEECF84
:10103C0025F2EECF26F214EC03F000C013F201C03F
:10104C0014F2000E011802E1000E001803E1060E66
:10105C005E6E45D013C2E9FF14C2EAFFEECF16F262
:10106C00000E176F000E176F17D0060E5E6E37D07E
:10107C00000E191902E1010E1819D8B468D7000E28
:10108C00191902E1020E181981E0000E191902E17A
:10109C00030E1819B7E0E9D7060E1125D96E000E0C
:1010AC001221DA6EDECF01F0DECF02F01751025CB6
:1010BC0002E11651015C0AE2060E1125E96E000EE2
:1010CC001221EA6EEECF16F2EECF17F213C21BF21C
:1010DC0014C21CF216C21DF217C21EF23ADD120027
:1010EC00020E02011125E96E000E1221EA6EEECFFE
:1010FC0001F001C013F201500001615D03E2060E24
:10110C005E6E2CD05C50080A12E102011351000AE9
:10111C0003E1040E5E6E08D0100E5C6E040E5E6E63
:10112C0013C21BF2E6EC03F013C262F017D05C5052
:10113C00100A12E102011351000A05E1080E5C6E5F
:10114C00040E5E6E06D0040E5E6E13C21BF2E6EC4D
:0E115C0003F013C262F002D0060E5E6E1200A7
:0E116A0002010D51010A02E1010E316E120068
:10117800010E02010D250F6F000E0E21106F63D0B6
:101188000DC211F20EC212F2F5DCABD00DC211F293
:101198000EC212F28EDDA5D0020E02010D25006EE0
:1011A800000E0E21016E00C0E9FF01C0EAFFEECF7C
:1011B80063F000C0E9FF01C0EAFFEECF02F0EECF16
:1011C80003F0000E031802E1000E021803E0080EF7
:1011D8005C6E02D0040E5C6E040E5E6E82D00DC290
:1011E800E9FF0EC2EAFFEECF00F01F0E0014016EF9
:1011F8000150000A06E10DC211F20EC212F29ADE87
:1012080006D00DC21BF20EC21CF26BEC04F069D0C2
:101218000201620E1B6F000E1C6F010E1D6F000E87
:101228001E6F99DC5ED00DC211F20EC212F25ADFA7
:1012380058D00DC21BF20EC21CF26BEC04F051D058
:10124800060E5E6E4ED00FC2E9FF10C2EAFFEE50E6
:10125800000A96E00FC2E9FF10C2EAFFEE50010A49
:1012680095E00FC2E9FF10C2EAFFEE50030A8EE0D4
:101278000FC2E9FF10C2EAFFEE50050A8DE00FC267
:10128800E9FF10C2EAFFEE50060AA9E00FC2E9FF23
:1012980010C2EAFFEE50080ABBE00FC2E9FF10C215
:1012A800EAFFEE50090ABFE00FC2E9FF10C2EAFFE9
:1012B800EE50070ABEE00FC2E9FF10C2EAFFEE5087
:1012C8000C0AB7E00FC2E9FF10C2EAFFEE500A0AA3
:1012D800B0E00FC2E9FF10C2EAFFEE500B0AA9E026
:0412E800AFD712006A
:1012EC0002010D51010A0AE1010E306E010E2B6F45
:0E12FC00000E2C6F050E2D6F8AEC01F0120013
:10130A00700E5A6E0F0E5B6E586A596A000E595C5F
:10131A0002E10C0E585C0AE25AC0E1FF5BC0E2FF30
:0E132A00E66A5A4A5B2A584A592AF0D712003E
:10133800000E5A6E040E5B6E586A596A000E595CAC
:1013480002E1C00E585C0AE25AC0E1FF5BC0E2FF4E
:10135800E66A5A4A5B2A584A592AF0D75C0E5A6EEE
:10136800000E5B6E586A596A010E595C02E1110E53
:10137800585C0AE25AC0E1FF5BC0E2FFE66A5A4ADB
:0A1388005B2A584A592AF0D71200D8
:1013920016D00001E96BEA6BEB6BEC6BED6BEE6B5D
:1013A2000001010EE86F800E0201326F880E336F6A
:1013B200D6EC00F017D016D003EC03F013D0000ED9
:1013C200000A02E1040E5E18E4E0000E000A02E1E7
:1013D200020E5E18E5E0000E000A02E1030E5E183E
:0613E200EAE0EAD7120068
:1013E800FEC1EDF1FFC1EEF1030E0101FE25036E12
:1013F800000EFF21046E03C0E9FF04C0EAFFEECF30
:1014080000F0000E00BE010E416E03C0E9FF04C0EB
:10141800EAFFEECF02F002C000F00036009003C0F1
:10142800E1FF04C0E2FF00C0E6FF030EED25E16E18
:10143800000EEE21E26E020EED25E96E000EEE21A1
:10144800EA6EEECF00F000BE02D0E69001D0E68052
:10145800020EED25E16E000EEE21E26E41B002D0E3
:08146800E69E01D0E68E1200A1
:10147000A69CFEC1A9FFA69EA680A8CF00F01200E0
:101480006B6A6A6A696A686A40DF160E6F6E6E6A16
:1014900053DF9F0E6B6E7B0E696E6D8C6D9C160E0E
:0C14A000706E080E6D6E5C6A5E6A1200D1
:1014AC00A6A202D00000FCD7A69CFEC1A9FFFFC1DA
:1014BC00A8FFA69EA684F2CF00F0F29E550EA76E52
:1014CC00AA0EA76EA68200BE02D0F29E01D0F28EAA
:0414DC00A6941200C0
:1014E0004AC0E9FF4BC0EAFFEECF00F03C0E00140B
:1014F000016E01C006F00632069E0632069E06C048
:1015000009F2010E4A24E96E000E4B20EA6EEECF7E
:1015100005F04AC0E9FF4BC0EAFFEECF00F0000E35
:10152000016E030E0014036E01C004F0000E0416D9
:1015300003C001F0006A0050051002010A6F000E9E
:1015400001100B6F06500D0A42E17F0E04010815D1
:10155000006E00C008F47F0E0C15006E00C00CF485
:101560004CC0E9FF4DC0EAFFEECF00F04CC0E1FFF8
:101570004DC0E2FF7F0E0014E66E500E02013B6F7D
:10158000000E3C6FC00E3D6F040E3E6F080E3F6FA5
:101590000EEC00F000C007F201C008F200C0E9FF45
:1015A00001C0EAFF600EEE14016E0150000A06E170
:1015B00007C20DF208C20EF2DFDD06D007C21BF231
:1015C00008C21CF26BEC04F06D98E3DE99D10201C5
:1015D0000951010AD8A4BAD0000E000A02E1050E92
:1015E0005E1804E15E6A36EC02F0AFD0000E000A2D
:1015F00002E1030E5E18D8A4A8D00201010E4E2409
:10160000E96E000E4F20EA6EEECF3BF2EECF3CF2D9
:10161000C00E3D6F040E3E6F0AC23FF20EEC00F0AA
:10162000050E4E24026E000E4F20036E02C0E9FF2D
:1016300003C0EAFF0A51EE5C006E0B51EE58016EDA
:1016400002C0E1FF03C0E2FF00C0E6FF01C0E6FF09
:10165000010E4E24026E000E4F20036E02C0E9FF01
:1016600003C0EAFF0A51EE24006E0B51EE20016E1A
:1016700002C0E1FF03C0E2FF00C0E6FF01C0E6FFD9
:10168000030E4E24026E000E4F20036E02C0E9FFCF
:1016900003C0EAFF0A51EE24006E0B51EE20016EEA
:1016A00002C0E1FF03C0E2FF00C0E6FF01C0E6FFA9
:1016B000000E0B5D04E10001605102010A5D2DE2A4
:1016C000E80E056F000E066F010E0525E16E000E97
:1016D0000621E26EC00EE66E040EE66E030E0525D0
:1016E000E16E000E0621E26EE66AE66A050E052549
:1016F000E16E000E0621E26EE66AE66A05C2E1FFCF
:1017000006C2E2FF010EE66E800E326F880E336F66
:10171000D6EC00F0040E5E6E12D04EC0E9FF4FC052
:10172000EAFFEECF00F04EC0E1FF4FC0E2FF010E36
:101730000018E66E326B880E336FD6EC00F00D6B3E
:101740000AC20EF20BC20FF210DDDAD002010C6BEE
:10175000050E4E24E96E000E4F20EA6EEECF01F02A
:10176000EECF02F0000E021803E1000160510118F3
:101770000CE1000E006E5750005C03E10001565072
:10178000605D03E2010E02010C6F0201050E4E24A2
:10179000026E000E4F20036E02C0E9FF03C0EAFF95
:1017A0000A51EE5C006E0B51EE58016E02C0E1FF73
:1017B00003C0E2FF00C0E6FF01C0E6FF010E4E24B9
:1017C000026E000E4F20036E02C0E9FF03C0EAFF65
:1017D0000A51EE24006E0B51EE20016E02C0E1FFB3
:1017E00003C0E2FF00C0E6FF01C0E6FF050E4E2485
:1017F000E96E000E4F20EA6EEECF01F0EECF02F060
:10180000000E006E0250005C02E10150000816E379
:10181000050E4E24E96E000E4F20EA6EEECF01F069
:10182000EECF02F0000E021802E1000E011805E1F1
:1018300002010C51010A01E101D015D002014EC094
:10184000E9FF4FC0EAFFEECF00F04EC0E1FF4FC00E
:10185000E2FF010E0018E66E800E326F880E336FC5
:10186000D6EC00F04BD00201800E326F840E336F45
:10187000D6EC00F0000E000A02E1020E5E1830E124
:10188000050E5E6E640E056F000E066F010E0525D7
:10189000E16E000E0621E26EC00EE66E040EE66EEC
:1018A000030E0525E16E000E0621E26E080EE66EBF
:1018B000000EE66E050E0525E16E000E0621E26EB5
:1018C000080EE66E000EE66E05C2E1FF06C2E2FFFC
:1018D000010EE66E326B880E336FD6EC00F00ED040
:1018E000000E000A02E1040E5E1808E15C50080ACE
:1018F00002E163C06EFF5E6A36EC02F00D6BF6DC4F
:021900001200D3
:1019020003500718D8A495EF0CF002500618D8A47B
:1019120095EF0CF001500518D8A495EF0CF000508B
:0E1922000418D8B4D8841200D8941200120011
:10193000FEC1C9FFC7B002D00000FCD7C9CF00F07C
:02194000120093
:101942000900F5CFE6FF0006FBE10106F9E112000E
:02195200120081
:101954008B9C376A3C6A0101F5A102D0800E376E78
:10196400F5A302D0010E3C6EF5A501D03C82080E11
:101974003C10FE6FDBDF37C0FEF1D8DF1F0E001412
:10198400366E0101FE6BD2DF00C035F08B8C36A8B9
:0C19940004D0000E3512E00E36121200D6
:0819A000806A816A826A12006C
:0419A800F26A1200CD
:1019AC00300E386E190E396EFE0E3A6E010E3B6E0D
:1019BC00FF0E466EFF0E476EFF0E486EFF0E496E11
:1019CC00949E0101F551040A02E1938201D0939295
:1019DC009380C66AF551C612F751C612F651C7125A
:1019EC00F75305E0F851000AD8B4C78C03D0F8536C
:0819FC00D8A4C78CC68A1200B2
:0A1A0400060EC16E070EB46E12004C
:0A1A0E008B8C949C356A366A120036
:101A180001C53DF002C53EF003C53FF004C540F0E6
:101A28003D0E0101FE6F000EFF6FDADC3DC000F0D5
:101A38003EC001F03FC002F040C003F0046A056AEE
:101A4800066A076A5ADF000ED8A4010E006E00521B
:101A580052E0FE6B01C5FFF125DD4E0E0C6EEB0E5C
:101A68000D6E0D2EFED70C2EFCD7010E0101FE6F58
:101A780002C5FFF117DD4E0E0C6EEB0E0D6E0D2E2E
:101A8800FED70C2EFCD7020E0101FE6F03C5FFF135
:101A980009DD4E0E0C6EEB0E0D6E0D2EFED70C2EC4
:101AA800FCD7030E0101FE6F04C5FFF1FBDC4E0EEF
:101AB8000C6EEB0E0D6E0D2EFED70C2EFCD7040E01
:101AC8000101FE6F05C5FFF1EDDC4E0E0C6EEB0E4D
:101AD8000D6E0D2EFED70C2EFCD7050E0101FE6FE4
:101AE80006C5FFF1DFDC4E0E0C6EEB0E0D6E0D2EF3
:101AF800FED70C2EFCD707C542F008C543F009C530
:101B080044F00AC545F0420E0101FE6F000EFF6F5A
:101B180067DC42C000F043C001F044C002F045C099
:101B280003F0046A056A066A076AE7DE000ED8A4AD
:101B3800010E006E005253E0060EFE6F07C5FFF15E
:101B4800B1DC4E0E0C6EEB0E0D6E0D2EFED70C2E6C
:101B5800FCD7070E0101FE6F08C5FFF1A3DC4E0E8E
:101B68000C6EEB0E0D6E0D2EFED70C2EFCD7080E4C
:101B78000101FE6F09C5FFF195DC4E0E0C6EEB0EF0
:101B88000D6E0D2EFED70C2EFCD7090E0101FE6F2F
:101B98000AC5FFF187DC4E0E0C6EEB0E0D6E0D2E96
:101BA800FED70C2EFCD70A0E0101FE6F0BC5FFF104
:101BB80079DC4E0E0C6EEB0E0D6E0D2EFED70C2E34
:101BC800FCD70B0E0101FE6F0CC5FFF16BDC4E0E4E
:101BD8000C6EEB0E0D6E0D2EFED70C2EFCD71200E0
:101BE8005C50000A07E1080E6D6E010E5C6E686AB3
:101BF800020E5C6E68506914016E01A413D05DC0BA
:101C08005CF0080E0201226F81EC03F06994FF0E6C
:101C1800006F68A407D000C200F00007005202E07D
:101C28006894F7D768506914016E01A042D024DC8B
:101C3800010E0201226F236B246B256B266B14ECBB
:101C480003F0070E0024E96E000E0120EA6EEECFC5
:101C580060F0110E0024E96E000E0120EA6EEECF4E
:101C680061F0040E5C6E60C06CF0000E00016D6FD8
:101C780060C0F0F0000EF16F020E0201226F81ECDD
:101C880003F0C00E0001656F040E666F080E676FE3
:101C9800000E686F080E696F000E6A6F646B65C08E
:101CA80002F466C003F4080E0401016F8C0E006F85
:101CB800689068506914016E01A80BD0689869840F
:101CC8005CC05DF0200E5C6E060E0201226F81EC96
:101CD80003F068506914016E01AC06D00201689CDB
:101CE800080E226F81EC03F068506914016E01AA96
:101CF80003D070B07090689A68506914016E01A2A0
:101D080002D06A6A6892040E5C5C02E2A19ACAD0A8
:101D18000201036B040E035DD8B0C3D06850691488
:101D2800016E01A6BBD06CCF5FF05FC000F000323F
:101D3800009E0032009E0032009E0F0E0014016EBD
:101D480001C004F2689601C003F0000E046E033669
:101D58000436039003360436039003C000F004C031
:101D680001F0003600900136003600900136000E72
:101D780000244A6E040E01204B6E5FA409D0E80EC1
:101D88004E6E000E4F6E080E4A26000E4B2204D0EF
:101D9800640E4E6E000E4F6E0B0E006E000E016E3E
:101DA80004C204F0000E056EAEEC00F000504E26A2
:101DB80001504F22040E4A244C6E000E4B204D6EEB
:101DC8005FA208D04AC04CF04BC04DF0040E4A2622
:101DD800000E4B2202010A0E4E24016E000E4F2007
:101DE800026E01C0E9FF02C0EAFF010EEE18006EA4
:101DF80001C0E1FF02C0E2FF00C0E6FF0451000A93
:101E080003E170EC0AF04AD05FA412D04EC0E9FF9B
:101E18004FC0EAFFEECF00F04EC0E1FF4FC0E2FF37
:101E2800010E0018E66E04C20DF276EC09F036D009
:101E38000201010E4A24E96E000E4B20EA6EEECF35
:101E480005F04AC0E9FF4BC0EAFFEECF00F0000EF4
:101E5800016E030E0014036E01C004F0000E041698
:101E680003C001F0006A00500510016F000E011058
:101E7800026F4EC0E9FF4FC0EAFFEECF00F04EC040
:101E8800E1FF4FC0E2FF010E0018E66E04C20DF23A
:101E980001C20EF202C20FF2B5EC08F00201032BE8
:061EA80039D7A19A1200D7
:101EAE000B0E006E000E016EF5C104F0000E056EF5
:101EBE00AEEC00F0E80E0026000E012200C0FAF192
:101ECE0001C0FBF1010E0024E16E000E0120E26E56
:101EDE00F6C1E6FFF7C1E6FF030E0101FA25E16E3A
:101EEE00000EFB21E26EF8C1E6FFF9C1E6FF050E1A
:101EFE00FA25E16E000EFB21E26EF8C1E6FFF9C194
:101F0E00E6FFF5C100F0000E016E003601360090BE
:101F1E00003601360090020E0026000E01220A0E37
:101F2E00FA25D96E000EFB21DA6EDE500024036E08
:101F3E00000E0120046E03C000F004C001F0003654
:101F4E0000900136003600900136000E0026040E79
:101F5E00012200C0FCF101C0FDF1020E0024E16E71
:101F6E00000E0120E26EF6C1E6FFF7C1E6FF010E9C
:101F7E00FC25E16E000EFD21E26EF8C1E6FFF9C10F
:101F8E0000F0016A030E0014036EFAC1E9FFFBC1F3
:101F9E00EAFFEECF02F0060E016E02C000F0015015
:101FAE0004E000360090FF0FFBD703500012FCC177
:0E1FBE00E1FFFDC1E2FF880E0010E66E12008A
:101FCC000101FE6B38EC0AF000C074F5010EFE6FD7
:101FDC0038EC0AF000C075F5020EFE6F38EC0AF012
:101FEC0000C076F5030EFE6F38EC0AF000C077F5F2
:101FFC00040EFE6F38EC0AF000C078F5050EFE6F8B
:10200C0038EC0AF000C079F5060EFE6F38EC0AF0D9
:10201C0000C07AF5070EFE6F38EC0AF000C07BF5B5
:10202C00080EFE6F38EC0AF000C07CF5090EFE6F4E
:10203C0038EC0AF000C07DF50A0EFE6F38EC0AF0A1
:10204C0000C07EF50B0EFE6F38EC0AF000C07FF579
:02205C00120070
:06205E005CC000F012005E
:10206400B6EC11F00101EF6BF06BF16BF26BF36BFB
:10207400F46B94DCC5DC96DC010EF56FF66BF76B44
:10208400010EF86F91DC63DC40EC0AF0D08EA28A7A
:10209400A08AF28EBADC98DFE0DF0050100A01E07B
:1020A400FBD78B9494948B84315207E00501005143
:1020B400A30A02E1AFDC88DF316A0101F06BEF6B48
:1020C400190EEF5D67E2F56B43DC36AE31D035C0F7
:1020D40000F036C001F0FF0E046EFF0E056EAEEC8C
:1020E40000F000C0F3F101C0F4F10101F15100244A
:1020F400036EF2510120046E03C000F004C001F02D
:1021040001320032019E00C035F001C036F0FF0EEE
:10211400046EFF0E056EAEEC00F000C035F001C099
:1021240036F0130E0D6E0D2EFED70000000012D0F7
:10213400010135C0F3F136C0F4F1F1513526F25105
:10214400362236323532369E3B0E0D6E0D2EFED7BC
:1021540000000000F3C1F1F1F4C1F2F1400EE16EB0
:10216400050EE26EF051E126D8B0E22A35C0E6FF52
:10217400F051010F006E016A000E0122400E00248E
:10218400E16E050E0120E26E36C0E6FF020EF02776
:10219400EF2B96D7020EF56FAAEC0CF035C072F552
:1021A40036C073F58B94306A010E0101F56F400E51
:1021B400F66F050EF76F400EF86F000EF96F75DEBF
:0A21C400305201E1FDD76FD7FFD7BD
:1021CE00156ED8CF16F0E0CF17F01750E06E165000
:0821DE00D86E153A1538100007
:1021E60000C023F001C022F002C021F003C020F09D
:1021F60004C01FF005C01EF006C01DF007C01CF08D
:1022060008C01BF009C01AF00AC019F00BC018F07C
:10221600D9CF2EF0DACF2FF0E1CF2CF0E2CF2DF090
:10222600E9CF2AF0EACF2BF0F3CF28F0F4CF29F04C
:10223600F5CF27F0F8CF24F0F7CF25F0F6CF26F02C
:10224600D0DC27C0F5FF24C0F8FF25C0F7FF26C065
:10225600F6FF28C0F3FF29C0F4FF23C000F022C018
:1022660001F021C002F020C003F01FC004F01EC020
:1022760005F01DC006F01CC007F01BC008F01AC010
:1022860009F019C00AF018C00BF02AC0E9FF2BC0EC
:10229600EAFF2CC0E1FF2DC0E2FF2EC0D9FF2FC000
:0422A600DAFF11004A
:10236C0010EE30F0050E006E010E016E630EF66E6F
:0E237C00230EF76E000EF86EA1EC0CF01200AE
:1022AA0009022900010104E03209040000020300C6
:1022BA0000050921010100012221000705810340CF
:0922CA00000107050103400001B9
:1022D3000600FF0901A10119012940150026FF008D
:1022E30075089540810219012940750895409102AE
:0122F300C02A
:1022F40048494420496E746572666163652064656B
:0A230400736320737472696E670042
:10230E0048494420436F6E66696720646573632095
:07231E00737472696E670021
:102325001201000200000040BD1F03000001010270
:022335000301A2
:102337004D696B726F656C656B74726F6E696B61FB
:012347000095
:1023480048494420437573746F6D2044656D6F0070
:0B23580030783030303030303033004F
:012363000079
:012364000078
:012365000077
:012366000076
:012367000075
:04236800040309045D
:020000040030CA
:0E000000240E3E1EFF0381FF08800FE00F401C
:0200000400F00A
:100000000000803F00000000803F0000FFFFFFFF76
:10001000FFFFFFFFFFFFFFFFFFFFFFFFFFFFFFFFF0
:10002000FFFFFFFFFFFFFFFFFFFFFFFFFFFFFFFFE0
:10003000FFFFFFFFFFFFFFFFFFFFFFFFFFFFFFFFD0
:10004000FFFFFFFFFFFFFFFFFFFFFFFFFFFFFFFFC0
:10005000FFFFFFFFFFFFFFFFFFFFFFFFFFFFFFFFB0
:10006000FFFFFFFFFFFFFFFFFFFFFFFFFFFFFFFFA0
:10007000FFFFFFFFFFFFFFFFFFFFFFFFFFFFFFFF90
:10008000FFFFFFFFFFFFFFFFFFFFFFFFFFFFFFFF80
:10009000FFFFFFFFFFFFFFFFFFFFFFFFFFFFFFFF70
:1000A000FFFFFFFFFFFFFFFFFFFFFFFFFFFFFFFF60
:1000B000FFFFFFFFFFFFFFFFFFFFFFFFFFFFFFFF50
:1000C000FFFFFFFFFFFFFFFFFFFFFFFFFFFFFFFF40
:1000D000FFFFFFFFFFFFFFFFFFFFFFFFFFFFFFFF30
:1000E000FFFFFFFFFFFFFFFFFFFFFFFFFFFFFFFF20
:1000F000FFFFFFFFFFFFFFFFFFFFFFFFFFFFFFFF10
:00000001FF

