:100000008CEF0FF00000000049EF10F0000000003E
:0C00100000000000000000003DEF10F0B8
:10001C0031C204F032C205F02FC202F030C203F03C
:10002C0033C200F00201330700520FE004C0E9FFB5
:10003C0005C0EAFF02C0E1FF03C0E2FFEECFE6FF1E
:10004C00024A032A044A052AEBD72FC200F030C219
:04005C0001F012009D
:1000600002012B6B2C6B26C201F027C202F028C2C2
:1000700003F0000E046E000E006E041808E100503C
:10008000031805E10050021802E10150000A65E082
:1000900026C205F027C206F028C207F005C0F6FF09
:1000A00006C0F7FF07C0F8FF0900F5CF01F00150C7
:1000B000000A07E02C2B010E0526000E062207225F
:1000C000EDD72CC200F000360090020E002600C0D2
:1000D0002CF226C205F027C206F028C207F02B51E9
:1000E0002925E16E000E2A21E26E00C0E6FF2B2BCF
:1000F0002B512925E16E000E2A21E26E030EE66ED9
:100100002B2B05C0F6FF06C0F7FF07C0F8FF09005C
:10011000F5CF01F00150000A20E02B512925E16EB6
:10012000000E2A21E26E05C0F6FF06C0F7FF07C0E9
:10013000F8FF0900F5CF00F000C0E6FF2B2B010E01
:100140000526000E062207222B512925E16E000EFE
:0C0150002A21E26EE66A2B2BD4D71200A5
:10015C000B6A0A6A096A00500402F4CF09F0F3CF63
:10016C0008F001500502F4CF0BF0F3CF0AF0005069
:10017C000502F3500926F4500A22E86A0B220150BA
:10018C000402F3500926F4500A22E86A0B2208C034
:10019C0000F009C001F00AC002F00BC003F012001D
:1001AC00020126AF07D0C50E2A6F000E2B6F020E70
:1001BC002C6F05D0410E2A6F000E2B6F2C6B0A0E84
:1001CC002A25D96E000E2B21DA6EDE502C25036EFB
:1001DC00046A000E042203C000F004C001F00036D3
:1001EC0000900136003600900136000E0024286F76
:1001FC00040E0120296F050E2A25E96E000E2B2115
:10020C00EA6EEECF01F0EECF02F0000E006E02505F
:10021C00005C02E101503D5C05E23DC02DF2000E98
:10022C002E6F0AD0050E2A25E96E000E2B21EA6EE0
:10023C00EECF2DF2EECF2EF2C00E2F6F040E306FDC
:10024C00010E2A25E96E000E2B21EA6EEECF31F25B
:10025C00EECF32F22DC233F2DBDE020E2825E16E38
:10026C00000E2921E26EC00E006E040E016E00C05D
:10027C00E6FF01C0E6FF010E2825E16E000E2921E4
:10028C00E26E2DC2E6FF030E2E15036E2AC2E9FFA5
:10029C002BC2EAFFEECF02F0060E016E02C000F098
:1002AC00015004E000360090FF0FFBD70350001202
:1002BC0028C2E1FF29C2E2FF27510010E66E1200AE
:1002CC00016A026A02012C51025C02E12B51015CB1
:1002DC0017E201502925E16E02502A21E26E0150ED
:1002EC002625F66E02502721F76E000E2821F86E97
:1002FC000900F5CF00F000C0E6FF014A022AE2D760
:02030C001200DD
:10030E000B0E006E000E016E1FC204F0000E056E85
:10031E001EDF410E0026000E012200C022F201C097
:10032E0023F2010E0024E16E000E0120E26E20C2C7
:10033E00E6FF21C2E6FF030E02012225E16E000E4A
:10034E002321E26E080E2225E96E000E2321EA6EAD
:10035E00EECFE6FFEECFE6FF050E2225E16E000E94
:10036E002321E26E080E2225E96E000E2321EA6E8D
:10037E00EECFE6FFEECFE6FF1FC200F0000E016EDD
:10038E000036013600900036013600900A0E222506
:10039E00D96E000E2321DA6EDE500024036E000E9D
:1003AE000120046E03C000F004C001F0003600907E
:1003BE000136003600900136000E0026040E012292
:1003CE0000C024F201C025F2020E0024E16E000EE0
:1003DE000120E26E010E2225E96E000E2321EA6E47
:1003EE00EECFE6FFEECFE6FF010E2425E16E000E06
:1003FE002521E26E080E2225E96E000E2321EA6EFB
:10040E00EECFE6FF080E2225E96E000E2321EA6EDE
:10041E00EECF03F0EECF04F004C000F0016A030E3D
:10042E000014036E22C2E9FF23C2EAFFEECF02F0F0
:10043E00060E016E02C000F0015004E0003600907E
:10044E00FF0FFBD70350001224C2E1FF25C2E2FFCB
:08045E00880E0010E66E12008A
:10046600C00E426E040E436E080E446E000E456EBC
:10047600080E466E000E476E416A0201266B8C0E10
:06048600276F91DE120059
:10048C0075D0040E006E220E016E000E026E00C0BE
:10049C0026F201C027F202C028F2620E0201296F77
:1004AC00010E2A6F00C0F6FF01C0F7FF02C0F8FF73
:1004BC000900F5CF2BF2000E2C6F02DF620E006EDE
:1004CC00010E016E67D0D30E266F210E276F000E22
:1004DC00286F620E296F010E2A6FBCDD620E006E52
:1004EC00010E016E57D0E40E266F210E276F000E01
:1004FC00286F620E296F010E2A6FACDD620E006E42
:10050C00010E016E47D0F40E266F210E276F000EE0
:10051C00286F620E296F010E2A6F9CDD620E006E31
:10052C00010E016E37D0AA0E266F210E276F000E1A
:10053C00286F620E296F010E2A6F8CDD620E006E21
:10054C00010E016E27D0900E266F210E276F000E24
:10055C00286F620E296F010E2A6F7CDD620E006E11
:10056C00010E016E17D0006A016A14D002011F51EE
:10057C00000A87E01F51010AA6E01F51020AB3E0EE
:10058C001F51030AC0E01F51040ACDE01F51050A98
:06059C00DAE0E9D71200CD
:0605A200040E3B6E120086
:1005A800C50E006E000E016E010E0024E16E000EF5
:1005B8000120E26E16C2E6FF17C2E6FF030E002412
:1005C800E16E000E0120E26E18C2E6FF19C2E6FFD6
:1005D800050E0024E16E000E0120E26E18C2E6FF4F
:1005E80019C2E6FF00C0E1FF01C0E2FF010EE66E9E
:0605F800020E3B6E120032
:1005FE000001C66BC76BC86BC96BCA6BCB6B010EA8
:10060E00C56F800E0201266F840E276FC8DD24DFB2
:02061E001200C8
:1006200060D0C10E006E210E016E000E026E00C081
:1006300026F201C027F202C028F2620E0201296FE1
:10064000010E2A6F00C0F6FF01C0F7FF02C0F8FFDD
:100650000900F5CF2BF2000E2C6F38DE620E006E13
:10066000010E016E49D0460E006E210E016E000E85
:10067000026E00C026F201C027F202C028F2620E0C
:10068000296F010E2A6F020E0024F66E000E012063
:10069000F76E000E0220F86E0900F5CF04F0030E8D
:1006A0000024F66E000E0120F76E000E0220F86E98
:1006B0000900F5CF03F003C001F0006A04500024E4
:1006C0002B6F000E01202C6F01DE620E006E010EFA
:1006D000016E12D017C21FF2D9DE0ED0006A016A75
:1006E0000BD002011651010A9CE01651020ABBE030
:0A06F0001651030AEFE0F2D71200E2
:1006FA0009D0010E02011F6F000E206F050E216F37
:0E070A0001DE04D002011651050AF3E01200D0
:100718000F0E020116151C6F1D6B1E6B16AF06D04F
:10072800C50E1A6F000E1B6F1D8305D0410E1A6F80
:10073800000E1B6F1D850B0E006E000E016E1CC295
:1007480004F0000E056E06DD1A5100261B51012229
:1007580000C01AF201C01BF2070E0024E16E000E61
:100768000120E26E17C2E6FF1AC2E1FF1BC2E2FFD8
:10077800E66A080E1A25E16E000E1B21E26E18C209
:10078800E6FF19C2E6FF1D871751010AD8A41D8983
:10079800700E016E0F0E026E1C510126D8B0022A8F
:1007A80001C0E9FF02C0EAFF1D51EE10006E01C052
:0C07B800E1FF02C0E2FF00C0E6FF1200FB
:1007C4000201116B126B0FC2E9FF10C2EAFFEECFF8
:1007D40000F0600E0014156F2DD1010E0F25136F5C
:1007E400000E1021146F31D0020E0F25E96E000E99
:1007F4001021EA6EEECF32F0D2DE58D0320E166FF0
:10080400000E176F010E186F000E196FCBDE4ED05D
:10081400020E0F25E96E000E1021EA6EEECF03F0F2
:10082400EECF04F004C000F0016A00C031F0B7DE7E
:100834003DD0310E166F000E176F010E186F000EAB
:10084400196FB0DE33D0D9DEFDD013C2E9FF14C274
:10085400EAFFEECF01F0000E000A02E10B0E0118D0
:10086400C3E013C2E9FF14C2EAFFEECF01F0000EA9
:10087400000A02E1030E0118C1E013C2E9FF14C229
:10088400EAFFEECF01F0000E000A02E10A0E0118A1
:10089400BFE013C2E9FF14C2EAFFEECF01F0000E7D
:1008A400000A02E1020E0118C4E0CDD7CBD0010E3C
:1008B4000F25136F000E1021146FA5D0020E0F2503
:1008C400E96E000E1021EA6EEECF03F0EECF04F0D5
:1008D40004C001F0026A0250000A02E1220E01186B
:1008E40033E1060E0F25E96E000E1021EA6EEECFFD
:1008F40001F0EECF02F001C011F202C012F2000EBC
:10090400006E0250005C02E10150210804E2210E55
:10091400116F000E126F6F0E266F210E276F000EDF
:10092400286F620E296F010E2A6F11C22BF212C2B8
:100934002CF2CADC620E166F010E176F11C218F288
:1009440012C219F22FDE4AD0020E0F25E96E000EF4
:100954001021EA6EEECF03F0EECF04F004C001F0F4
:10096400026A000E021802E1210E011837E1060E98
:100974000F25E96E000E1021EA6EEECF01F0EECFE6
:1009840002F001C011F202C012F2000E006E025019
:10099400005C02E10150090804E2090E116F000E27
:1009A400126F460E266F210E276F000E286F120E4F
:1009B4002627000E27232823620E296F010E2A6F93
:1009C40011C22BF212C22CF27FDC620E166F010EE2
:1009D400176F11C218F212C219F2E4DD2AD0300ED8
:1009E400166F000E176F010E186F000E196FDADD07
:1009F40020D0020E0F25E96E000E1021EA6EEECF14
:100A040030F0CDDD16D013C2E9FF14C2EAFFEE5078
:100A1400060AD8B453D713C2E9FF14C2EAFFEE5052
:100A24000A0ADDE013C2E9FF14C2EAFFEE500B0A22
:100A3400E0E008D01551200AD8B4CFD61551000AE9
:060A4400D8B435D7120002
:100A4A00020E0201166F0FC217F2000E186F196B11
:100A5A001A6BE1DD00C012F201C013F2020E00248B
:100A6A00E96E000E0120EA6EEECF05F0030E0024B7
:100A7A00E96E000E0120EA6EEECF03F0000E046E5E
:100A8A0003C001F0006A05500024106F000E012017
:100A9A00116F010E1225E96E000E1321EA6EEE5057
:100AAA00050A2FE1020E1225E96E000E1321EA6EE5
:100ABA00EECF16F2030E1225E96E000E1321EA6E2E
:100ACA00EECF06F0040E1225E96E000E1321EA6E2F
:100ADA00EECF05F0050E1225E96E000E1321EA6E1F
:100AEA00EECF03F0000E046E03C001F0006A055059
:100AFA000024186F000E0120196F030E0614176FD9
:100B0A0006DE12C2D9FF13C2DAFFDE50105D006E94
:100B1A00000E1159016E00C010F201C011F200500E
:100B2A0001100AE012C2E9FF13C2EAFFEECF00F099
:100B3A0000501227000E132310511111AAE1100EB2
:0A0B4A00396E050E166FD4DD12009F
:100B54000FC2C6F010C2C7F011C2C8F012C2C9F069
:0E0B640011C2CAF012C2CBF0020E3B6E12009C
:100B7200020E02010525E96E000E0621EA6EEECF95
:100B820001F001C007F201503E5C03E2060E3B6E2B
:100B920028D03950080A10E10751000A03E1040E77
:100BA2003B6E07D0100E396E040E3B6E07C20FF279
:100BB2004BDF07C23FF015D03950100A10E1075140
:100BC200000A05E1080E396E040E3B6E05D0040ED4
:100BD2003B6E07C20FF238DF07C23FF002D0060EAB
:040BE2003B6E120054
:100BE600010E02010525E96E000E0621EA6EEE50A1
:100BF600030A03E1010E0C6F01D00C6B05C2E9FF7D
:100C060006C2EAFFEECF00F01F0E00140D6F1CD1D6
:100C1600020E0525E96E000E0621EA6EEECF01F002
:100C2600EECF02F0000E021802E1010E011817E1E4
:100C3600040E3B6E0C5307E0020E01014911006ED3
:100C460000C049F10BD00101FD0E4915006E00C030
:100C560049F105C20FF206C210F2B1DD1BD0020146
:100C66000C5316E0020E0525E96E000E0621EA6E0B
:100C7600EECF01F0EECF02F0000E021802E1020EF6
:100C8600011805E105C20FF206C210F298DD02D086
:100C9600060E3B6EE5D005C20FF206C210F28FDDDE
:100CA600DFD0020E0525E96E000E0621EA6EEECFB4
:100CB60001F0EECF02F0000E021802E1000E01185C
:100CC600D8A4BCD0040E0525E96E000E0621EA6EF6
:100CD6000F0EEE14006EEECF01F0000E011600505E
:100CE6000110D8B4A8D0040E0525056E000E062105
:100CF600066E05C0E9FF06C0EAFF0F0EEE14016E90
:100D060001C007F201C003F0000E046E033604367C
:100D1600039003360436039003C000F004C001F0CC
:100D2600003600900136003600900136000E002491
:100D3600086F040E0120096F05C0E9FF06C0EAFF2F
:100D4600EECF02F0EECF03F002AE04D0080E082775
:100D5600000E09230C5322E008C2E9FF09C2EAFF8C
:100D660008C2E1FF09C2E2FF840EEE12040E082556
:100D7600016E000E0921026E01C008F202C009F2DE
:100D860001C0E9FF02C0EAFF840EEE10006E01C04A
:100D9600E1FF02C0E2FF00C0E6FF4DD008C2E9FF56
:100DA60009C2EAFF08C2E1FF09C2E2FF7B0EEE16A6
:100DB600040E0825016E000E0921026E01C008F21C
:100DC60002C009F201C0E9FF02C0EAFF7B0EEE1481
:100DD600006E01C0E1FF02C0E2FF00C0E6FF040EA4
:100DE6000525E96E000E0621EA6EEECF02F0EECF83
:100DF60003F002AE05D0C50E0A6F000E0B6F04D0CD
:100E0600410E0A6F000E0B6F0B0E006E000E016E88
:100E160007C204F0000E056EAEEC00F00A51002683
:100E26000B51012200C00AF201C00BF200C0E1FF23
:100E360001C0E2FFE66A040E3B6E05D005C20FF262
:100E460006C210F2BCDC0CD00D51000AD8B4E0D6B4
:100E56000D51010AD8B41FD70D51020AD8B421D7B3
:020E6600120078
:100E680005C2E9FF06C2EAFFEECF00F01F0E00142C
:100E780002010E6F7ED049C10CF2000E0D6F85D0B5
:100E88000C6B0D6B82D0040E0525056E000E062135
:100E9800066E05C0E9FF06C0EAFF0F0EEE14016EEC
:100EA80001C007F201C003F0000E046E03360436D9
:100EB800039003360436039003C000F004C001F029
:100EC800003600900136003600900136000E0024EE
:100ED800086F040E0120096F05C0E9FF06C0EAFF8C
:100EE800EECF02F0EECF03F002AE09D0C50E0A6FC6
:100EF800000E0B6F080E0827000E092304D0410EC0
:100F08000A6F000E0B6F0B0E006E000E016E07C20B
:100F180004F0000E056EAEEC00F00A5100260B51ED
:100F2800012200C00AF201C00BF200C0E9FF01C0B3
:100F3800EAFFEECF03F003C000F0000E016E0036AA
:100F480000900136003600900136085100260951FC
:100F5800012200C008F201C009F200C0E9FF01C087
:100F6800EAFFEECF00F00C6B00B40C2B000E0D6FF7
:100F78000CD00E51000AD8B47ED70E51010AD8B44D
:100F88007FD70E51020AD8B47ED70C0E0F6F020E0F
:0E0F9800106F020E116F000E126FD8DD1200E6
:100FA600020E02010525E96E000E0621EA6EEECF5D
:100FB60001F0EECF02F002C00CF20D6B8FD0010EE5
:100FC600166F176B186B196B1A6B10EC03F000C0D9
:100FD60007F201C008F26E50000A05E1080E0A6F1A
:100FE600000E0B6F0AD007C2E9FF08C2EAFFEECF78
:100FF6000AF2000E0B6F000E0B6F84D0020E052551
:10100600E96E000E0621EA6EEECF01F001C009F28C
:1010160001503E5C03E2060E3B6E97D0020E166F41
:1010260009C217F2000E186F196B1A6B10EC03F059
:1010360000C007F201C008F2020E0024E96E000E9D
:101046000120EA6EEECF05F0030E0024E96E000ED5
:101056000120EA6EEECF03F0000E046E03C001F02D
:10106600006A055000240A6F000E01200B6F4AD05B
:10107600030E166F020E0525E96E000E0621EA6EB6
:10108600FF0EEE14176FEECF18F2000E1817040EAF
:101096000525E96E000E0621EA6EEECF19F2EECFB7
:1010A6001AF210EC03F000C007F201C008F2000EBD
:1010B600011802E1000E001803E1060E3B6E45D052
:1010C60007C2E9FF08C2EAFFEECF0AF2000E0B6F75
:1010D600000E0B6F17D0060E3B6E37D0000E0D19A3
:1010E60002E1010E0C19D8B46AD7000E0D1902E1FF
:1010F600020E0C1983E0000E0D1902E1030E0C1905
:10110600B7E0E9D7060E0525D96E000E0621DA6E80
:10111600DECF01F0DECF02F00B51025C02E10A5194
:10112600015C0AE2060E0525E96E000E0621EA6E4E
:10113600EECF0AF2EECF0BF207C20FF208C210F2A0
:0C1146000AC211F20BC212F202DD12000C
:1011520002010051010A0AE1010E2F6E010E1F6FFA
:0E116200000E206F050E216F87EC01F01200C9
:1011700016D00001C66BC76BC86BC96BCA6BCB6B53
:101180000001010EC56F800E0201266F880E276FC9
:10119000D6EC00F017D016D0FFEC02F013D0000E02
:1011A000000A02E1040E3B18E4E0000E000A02E12E
:1011B000020E3B18E5E0000E000A02E1030E3B18A8
:0611C000EAE0EAD712008C
:1011C600010E02010125036F000E0221046F62D099
:1011D60001C205F202C206F244DEAAD001C205F23D
:1011E60002C206F2FDDCA4D0020E02010125006E49
:1011F600000E0221016E00C0E9FF01C0EAFFEECF3A
:1012060040F000C0E9FF01C0EAFFEECF02F0EECFEA
:1012160003F0000E031802E1000E021803E0080EA8
:10122600396E02D0040E396E040E3B6E81D001C2B7
:10123600E9FF02C2EAFFEECF00F01F0E0014016EB6
:101246000150000A06E101C205F202C206F2A8DE5A
:1012560006D001C20FF202C210F2E2EC03F068D02F
:101266003F0E0F6F000E106F010E116F000E126F02
:101276006EDC5ED001C205F202C206F277DC58D0FF
:1012860001C20FF202C210F2E2EC03F051D0060ED8
:101296003B6E4ED003C2E9FF04C2EAFFEE50000ADD
:1012A60097E003C2E9FF04C2EAFFEE50010A96E0A6
:1012B60003C2E9FF04C2EAFFEE50030A8FE003C24D
:1012C600E9FF04C2EAFFEE50050A8EE003C2E9FF19
:1012D60004C2EAFFEE50060AAAE003C2E9FF04C20E
:1012E600EAFFEE50080ABCE003C2E9FF04C2EAFFC7
:1012F600EE50090ABFE003C2E9FF04C2EAFFEE505E
:10130600070ABEE003C2E9FF04C2EAFFEE500C0A78
:10131600B7E003C2E9FF04C2EAFFEE500A0AB0E0F2
:1013260003C2E9FF04C2EAFFEE500B0AA9E0AFD7F9
:021336001200A3
:10133800700E0101606F0F0E616F5E6B5F6B000EC8
:101348005F5D02E10C0E5E5D0AE260C1E1FF61C112
:10135800E2FFE66A604B612B5E4B5F2BF0D7120011
:10136800000E0101606F040E616F5E6B5F6B000E13
:101378005F5D02E1C00E5E5D0AE260C1E1FF61C12E
:10138800E2FFE66A604B612B5E4B5F2BF0D7390EAC
:10139800606F000E616F5E6B5F6B010E5F5D02E157
:1013A800110E5E5D0AE260C1E1FF61C1E2FFE66A1B
:0C13B800604B612B5E4B5F2BF0D71200E6
:0E13C40002010151010A02E1010E2E6E12001B
:1013D2006B6A6A6A696A686AAEDF160E6F6E6E6A57
:1013E200C2DF9F0E6B6E7B0E696E6D8C6D9C160E4E
:0C13F200706E080E6D6E396A3B6A1200C6
:1013FE00F1C1C9FFC7B002D00000FCD7C9CF00F0C1
:02140E001200CA
:10141000A69CF1C1A9FFA69EA680A8CF00F012004D
:10142000A6A202D00000FCD7A69CF1C1A9FFF2C180
:10143000A8FFA69EA684F2CF00F0F29E550EA76EDE
:10144000AA0EA76EA68200BE02D0F29E01D0F28E36
:04145000A69412004C
:1014540050C1E9FF51C1EAFFEECF00F03C0E001489
:10146400016E01C006F00632069E0632069E06C0D4
:10147400FCF1010E01015025E96E000E5121EA6EC6
:10148400EECF05F050C1E9FF51C1EAFFEECF00F005
:10149400000E016E030E0014036E01C004F0000E72
:1014A400041603C001F0006A00500510FD6F000E21
:1014B4000110FE6F06500D0A42E17F0E040108156B
:1014C400006E00C008F47F0E0C15006E00C00CF412
:1014D40052C1E9FF53C1EAFFEECF00F052C1E1FF70
:1014E40053C1E2FF7F0E0014E66E560E02012F6F09
:1014F400010E306FC00E316F040E326F080E336F61
:101504000EEC00F000C0FAF101C0FBF100C0E9FFED
:1015140001C0EAFF600EEE14016E0150000A06E1FC
:10152400FAC101F2FBC102F24CDE06D0FAC10FF29D
:10153400FBC110F2E2EC03F06D9818DE98D10101C2
:10154400FC51010AD8A4BCD0000E000A02E1050E29
:101554003B1804E13B6A33EC02F0B1D0000E000A00
:1015640002E1030E3B18D8A4AAD0010E01015425B0
:10157400E96E000E5521EA6EEECF2FF2EECF30F277
:10158400C00E0201316F040E326FFDC133F20EEC56
:1015940000F0050E01015425026E000E5521036E64
:1015A40002C0E9FF03C0EAFFFD51EE5C006EFE518C
:1015B400EE58016E02C0E1FF03C0E2FF00C0E6FF87
:1015C40001C0E6FF010E5425026E000E5521036E84
:1015D40002C0E9FF03C0EAFFFD51EE24006EFE5194
:1015E400EE20016E02C0E1FF03C0E2FF00C0E6FF8F
:1015F40001C0E6FF030E5425026E000E5521036E52
:1016040002C0E9FF03C0EAFFFD51EE24006EFE5163
:10161400EE20016E02C0E1FF03C0E2FF00C0E6FF5E
:1016240001C0E6FF000EFE5D02E13D50FD5D2EE2CD
:10163400C50EF86F000EF96F010EF825E16E000E6D
:10164400F921E26EC00EE66E040EE66E030EF82576
:10165400E16E000EF921E26EE66AE66A050EF825EF
:10166400E16E000EF921E26EE66AE66AF8C1E1FF76
:10167400F9C1E2FF010EE66E800E0201266F880EAC
:10168400276FD6EC00F0040E3B6E13D0020154C158
:10169400E9FF55C1EAFFEECF00F054C1E1FF55C1A7
:1016A400E2FF010E0018E66E266B880E276FD6EC5B
:1016B40000F0016BFDC102F2FEC103F281DED7D05E
:1016C4000101FF6B050E5425E96E000E5521EA6EEB
:1016D400EECF01F0EECF02F0000E021802E13D5011
:1016E40001180AE1000E006E5D51005C02E15C51DC
:1016F4003D5C02E2010EFF6F050E5425026E000EE2
:101704005521036E02C0E9FF03C0EAFFFD51EE5C00
:10171400006EFE51EE58016E02C0E1FF03C0E2FF0D
:1017240000C0E6FF01C0E6FF010E5425026E000E64
:101734005521036E02C0E9FF03C0EAFFFD51EE2408
:10174400006EFE51EE20016E02C0E1FF03C0E2FF15
:1017540000C0E6FF01C0E6FF050E5425E96E000E49
:101764005521EA6EEECF01F0EECF02F0000E006ECE
:101774000250005C02E10150000815E3050E5425F7
:10178400E96E000E5521EA6EEECF01F0EECF02F0C5
:10179400000E021802E1000E011804E1FF51010AD3
:1017A40001E101D015D054C1E9FF55C1EAFFEECFE4
:1017B40000F054C1E1FF55C1E2FF010E0018E66ECE
:1017C400800E0201266F880E276FD6EC00F04DD0F4
:1017D4000201800E266F840E276FD6EC00F0000EF7
:1017E400000A02E1020E3B1832E1050E3B6E410E87
:1017F4000101F86F000EF96F010EF825E16E000E7D
:10180400F921E26EC00EE66E040EE66E030EF825B4
:10181400E16E000EF921E26E080EE66E000EE66E31
:10182400050EF825E16E000EF921E26E080EE66E53
:10183400000EE66EF8C1E1FFF9C1E2FF010EE66EAB
:101844000201266B880E276FD6EC00F00ED0000E36
:10185400000A02E1040E3B1808E13950080A02E1CB
:1018640040C06EFF3B6A33EC02F0006B70DC120088
:08187400806A816A826A120099
:10187C000900F5CFE6FF0006FBE10106F9E11200D5
:10188C008B9C346A336A0101E8A102D0800E346E5D
:10189C00E8A302D0010E336EE8A501D03382080E06
:1018AC003310F16FA6DD34C0F1F1A3DD1F0E00146F
:1018BC0001014F6FF16B9DDD00C04EF18B8C01016E
:0E18CC004FA904D0000E4E13E00E4F13120071
:0218DA001200FA
:1018DC00FE0E356E130E366EF10E376E010E386E2F
:1018EC00FF0E01014A6FFF0E4B6FFF0E4C6FFF0E88
:1018FC004D6F949EE851040A02E1938201D09392B9
:10190C009380C66AE851C612EA51C612E951C71251
:10191C00EA5305E0EB51000AD8B4C78C03D0EB5363
:08192C00D8A4C78CC68A120082
:0A193400060EC16E070EB46E12001D
:04193E00F26A120037
:0C1942008B8C949C01014E6B4F6B1200CB
:10194E000101F16B01C5F2F164DD4E0E0C6EEB0E72
:10195E000D6E0D2EFED70C2EFCD7010E0101F16F70
:10196E0002C5F2F156DD4E0E0C6EEB0E0D6E0D2E07
:10197E00FED70C2EFCD7020E0101F16F03C5F2F15A
:10198E0048DD4E0E0C6EEB0E0D6E0D2EFED70C2E90
:10199E00FCD7030E0101F16F04C5F2F13ADD4E0ED4
:1019AE000C6EEB0E0D6E0D2EFED70C2EFCD7040E0C
:1019BE000101F16F05C5F2F12CDD4E0E0C6EEB0E32
:1019CE000D6E0D2EFED70C2EFCD7050E0101F16FFC
:1019DE0006C5F2F11EDD4E0E0C6EEB0E0D6E0D2ECB
:1019EE00FED70C2EFCD7060E0101F16F07C5F2F1E2
:1019FE0010DD4E0E0C6EEB0E0D6E0D2EFED70C2E58
:101A0E00FCD7070E0101F16F08C5F2F102DD4E0E93
:101A1E000C6EEB0E0D6E0D2EFED70C2EFCD7080E97
:101A2E000101F16F09C5F2F1F4DC4E0E0C6EEB0EF6
:101A3E000D6E0D2EFED70C2EFCD7090E0101F16F87
:101A4E000AC5F2F1E6DC4E0E0C6EEB0E0D6E0D2E8F
:101A5E00FED70C2EFCD70A0E0101F16F0BC5F2F169
:101A6E00D8DC4E0E0C6EEB0E0D6E0D2EFED70C2E20
:101A7E00FCD70B0E0101F16F0CC5F2F1CADC4E0E54
:101A8E000C6EEB0E0D6E0D2EFED70C2EFCD712002B
:101A9E003950000A07E1080E6D6E010E396E686A44
:101AAE00020E396E68506914016E01A414D03AC04A
:101ABE0039F0080E0201166F7DEC03F06994FF0EEB
:101ACE000101F36F68A407D0F3C100F0F3070052D1
:101ADE0002E06894F7D768506914016E01A041D0F6
:101AEE0071DC010E0201166F176B186B196B1A6BF6
:101AFE0010EC03F0070E0024E96E000E0120EA6ED2
:101B0E00EECF3DF0110E0024E96E000E0120EA6EBC
:101B1E00EECF3EF0040E396E3DC049F0000E4A6E17
:101B2E003DC0CDF0000E0001CE6F020E0201166F09
:101B3E007DEC03F0C00E426E040E436E080E446E32
:101B4E00000E456E080E466E000E476E416A42C08C
:101B5E0002F443C003F4080E0401016F8C0E006FF3
:101B6E00689068506914016E01A80BD0689869845A
:101B7E0039C03AF0200E396E060E0201166F7DEC5A
:101B8E0003F068506914016E01AC06D00201689C26
:101B9E00080E166F7DEC03F068506914016E01AAF1
:101BAE0003D070B07090689A68506914016E01A2EB
:101BBE0002D06A6A6892040E395C02E2A19AC9D018
:101BCE000101F66B040EF65DD8B0C2D068506914F0
:101BDE00016E01A6BAD06CCF3CF03CC000F00032D2
:101BEE00009E0032009E0032009E0F0E0014016E09
:101BFE0001C0F7F1689601C003F0000E046E0336C3
:101C0E000436039003360436039003C000F004C07C
:101C1E0001F0003600900136003600900136000EBD
:101C2E000024506F040E0120516F3CA409D0C50E44
:101C3E00546F000E556F080E5027000E512304D01E
:101C4E00410E546F000E556F0B0E006E000E016E9E
:101C5E00F7C104F0000E056EAEEC00F000505427F4
:101C6E0001505523040E5025526F000E5121536F13
:101C7E003CA208D050C152F151C153F1040E50276D
:101C8E00000E51230A0E5425016E000E5521026ED0
:101C9E0001C0E9FF02C0EAFF010EEE18006E01C09E
:101CAE00E1FF02C0E2FF00C0E6FFF751000A03E1C8
:101CBE002AEC0AF04AD03CA412D054C1E9FF55C117
:101CCE00EAFFEECF00F054C1E1FF55C1E2FF010E75
:101CDE000018E66EF7C100F2A9EC08F036D0010E3E
:101CEE0001015025E96E000E5121EA6EEECF05F08E
:101CFE0050C1E9FF51C1EAFFEECF00F0000E016EB8
:101D0E00030E0014036E01C004F0000E041603C08F
:101D1E0001F0006A00500510F46F000E0110F56F0F
:101D2E0054C1E9FF55C1EAFFEECF00F054C1E1FF07
:101D3E0055C1E2FF010E0018E66EF7C101F2F4C1C3
:101D4E0002F2F5C103F2E2EC09F00101F62B3AD7EB
:041D5E00A19A120034
:101D62000B0E006E000E016EE8C104F0000E056E4F
:101D7200AEEC00F0C50E0026000E012200C0EDF10F
:101D820001C0EEF1010E0024E16E000E0120E26EB0
:101D9200E9C1E6FFEAC1E6FF030E0101ED25E16EAE
:101DA200000EEE21E26EEBC1E6FFECC1E6FF050E8E
:101DB200ED25E16E000EEE21E26EEBC1E6FFECC115
:101DC200E6FFE8C100F0000E016E00360136009019
:101DD200003601360090020E0026000E01220A0E85
:101DE200ED25D96E000EEE21DA6EDE500024036E70
:101DF200000E0120046E03C000F004C001F00036A2
:101E020000900136003600900136000E0026040EC6
:101E1200012200C0EFF101C0F0F1020E0024E16ED8
:101E2200000E0120E26EE9C1E6FFEAC1E6FF010E03
:101E3200EF25E16E000EF021E26EEBC1E6FFECC190
:101E420000F0016A030E0014036EEDC1E9FFEEC15A
:101E5200EAFFEECF02F0060E016E02C000F0015062
:101E620004E000360090FF0FFBD703500012EFC1D1
:0E1E7200E1FFF0C1E2FF880E0010E66E1200E4
:101E80000101F16B08EC0AF000C074F5010EF16F6E
:101E900008EC0AF000C075F5020EF16F08EC0AF0CC
:101EA00000C076F5030EF16F08EC0AF000C077F57C
:101EB000040EF16F08EC0AF000C078F5050EF16F22
:101EC00008EC0AF000C079F5060EF16F08EC0AF094
:101ED00000C07AF5070EF16F08EC0AF000C07BF540
:101EE000080EF16F08EC0AF000C07CF5090EF16FE6
:101EF00008EC0AF000C07DF50A0EF16F08EC0AF05C
:101F000000C07EF50B0EF16F08EC0AF000C07FF503
:021F10001200BD
:061F120039C000F01200CE
:101F180004EC11F00101E26BE36BE46BE56BE66B3B
:101F2800E76BA4DC03DD07DD010EE86FE96BEA6B04
:101F3800010EEB6FCFDCCDDCE9EC09F0D08EA28A84
:101F4800A08AF28EFADC98DFE0DF0050100A01E088
:101F5800FBD78B9494948B842E5207E00501005193
:101F6800A30A02E1F0DC88DF2E6A0101E36BE26B71
:101F7800190EE25D65E2E86B85DC4FAF30D04EC1EB
:101F880000F04FC101F0FF0E046EFF0E056EAEECBF
:101F980000F000C0E6F101C0E7F1E4510024036E4F
:101FA800E5510120046E03C000F004C001F00132C5
:101FB8000032019E00C04EF101C04FF1FF0E046EC9
:101FC800FF0E056EAEEC00F000C04EF101C04FF1FF
:101FD800130E0D6E0D2EFED70000000011D04EC15D
:101FE800E6F14FC1E7F1E4514E27E5514F234F3356
:101FF8004E334F9F3B0E0D6E0D2EFED70000000096
:10200800E6C1E4F1E7C1E5F1400EE16E050EE26ECE
:10201800E351E126D8B0E22A4EC1E6FFE351010FB1
:10202800006E016A000E0122400E0024E16E050ECA
:102038000120E26E4FC1E6FF020EE327E22B98D79C
:10204800020EE86F1FDC4EC172F54FC173F58B9419
:102058002F6A010EE86F400EE96F050EEA6F400E19
:10206800EB6F000EEC6F79DE2F5201E1FDD773D7CD
:02207800FFD790
:10207A00156ED8CF16F0E0CF17F01750E06E165055
:08208A00D86E153A153810005C
:1020920000C021F001C020F002C01FF003C01EF0FA
:1020A20004C01DF005C01CF008C01BF009C01AF0E6
:1020B2000AC019F00BC018F0D9CF2CF0DACF2DF0EE
:1020C200E1CF2AF0E2CF2BF0E9CF28F0EACF29F0D6
:1020D200F3CF26F0F4CF27F0F5CF25F0F8CF22F09A
:1020E200F7CF23F0F6CF24F0D9DC25C0F5FF22C0CC
:1020F200F8FF23C0F7FF24C0F6FF26C0F3FF27C076
:10210200F4FF21C000F020C001F01FC002F01EC089
:1021120003F01DC004F01CC005F01BC008F01AC07B
:1021220009F019C00AF018C00BF028C0E9FF29C055
:10213200EAFF2AC0E1FF2BC0E2FF2CC0D9FF2DC06D
:04214200DAFF1100AF
:1022080010EE2EF0050E006E010E016EFF0EF66E3A
:0E221800210EF76E000EF86E3EEC0CF0120078
:1021460009022900010104E032090400000203002B
:102156000005092101010001222100070581034034
:092166000001070501034000011E
:10216F000600FF0901A10119012940150026FF00F2
:10217F007508954081021901294075089540910213
:01218F00C08F
:1021900048494420496E74657266616365206465D0
:0A21A000736320737472696E6700A8
:1021AA0048494420436F6E666967206465736320FB
:0721BA00737472696E670087
:1021C1001201000200000040BD1F030000010102D6
:0221D100030108
:1021D3004D696B726F656C656B74726F6E696B6161
:0121E30000FB
:1021E40048494420437573746F6D2044656D6F00D6
:0B21F4003078303030303030303300B5
:0121FF0000DF
:0122000000DD
:0122010000DC
:0122020000DB
:0122030000DA
:0422040004030904C2
:020000040030CA
:0E000000240E3E1EFF0381FF08800FE00F401C
:0200000400F00A
:1000000000000000000000000000000000FFFFFFF3
:10001000FFFFFFFFFFFFFFFFFFFFFFFFFFFFFFFFF0
:10002000FFFFFFFFFFFFFFFFFFFFFFFFFFFFFFFFE0
:10003000FFFFFFFFFFFFFFFFFFFFFFFFFFFFFFFFD0
:10004000FFFFFFFFFFFFFFFFFFFFFFFFFFFFFFFFC0
:10005000FFFFFFFFFFFFFFFFFFFFFFFFFFFFFFFFB0
:10006000FFFFFFFFFFFFFFFFFFFFFFFFFFFFFFFFA0
:10007000FFFFFFFFFFFFFFFFFFFFFFFFFFFFFFFF90
:10008000FFFFFFFFFFFFFFFFFFFFFFFFFFFFFFFF80
:10009000FFFFFFFFFFFFFFFFFFFFFFFFFFFFFFFF70
:1000A000FFFFFFFFFFFFFFFFFFFFFFFFFFFFFFFF60
:1000B000FFFFFFFFFFFFFFFFFFFFFFFFFFFFFFFF50
:1000C000FFFFFFFFFFFFFFFFFFFFFFFFFFFFFFFF40
:1000D000FFFFFFFFFFFFFFFFFFFFFFFFFFFFFFFF30
:1000E000FFFFFFFFFFFFFFFFFFFFFFFFFFFFFFFF20
:1000F000FFFFFFFFFFFFFFFFFFFFFFFFFFFFFFFF10
:00000001FF

