:1000000091EF10F000000000BFEF11F000000000C1
:0C0010000000000000000000B3EF11F041
:10001C0043C204F044C205F041C202F042C203F0F4
:10002C0045C200F00201450700520FE004C0E9FF91
:10003C0005C0EAFF02C0E1FF03C0E2FFEECFE6FF1E
:10004C00024A032A044A052AEBD741C200F042C2F5
:04005C0001F012009D
:1000600002013D6B3E6B38C201F039C202F03AC268
:1000700003F0000E046E000E006E041808E100503C
:10008000031805E10050021802E10150000A65E082
:1000900038C205F039C206F03AC207F005C0F6FFD3
:1000A00006C0F7FF07C0F8FF0900F5CF01F00150C7
:1000B000000A07E03E2B010E0526000E062207224D
:1000C000EDD73EC200F000360090020E002600C0C0
:1000D0003EF238C205F039C206F03AC207F03D518F
:1000E0003B25E16E000E3C21E26E00C0E6FF3D2B99
:1000F0003D513B25E16E000E3C21E26E030EE66EA3
:100100003D2B05C0F6FF06C0F7FF07C0F8FF09004A
:10011000F5CF01F00150000A20E03D513B25E16E92
:10012000000E3C21E26E05C0F6FF06C0F7FF07C0D7
:10013000F8FF0900F5CF00F000C0E6FF3D2B010EEF
:100140000526000E062207223D513B25E16E000EDA
:0C0150003C21E26EE66A3D2BD4D7120081
:10015C000B6A0A6A096A00500402F4CF09F0F3CF63
:10016C0008F001500502F4CF0BF0F3CF0AF0005069
:10017C000502F3500926F4500A22E86A0B220150BA
:10018C000402F3500926F4500A22E86A0B2208C034
:10019C0000F009C001F00AC002F00BC003F012001D
:1001AC00020138AF07D0710E3C6F010E3D6F020E8D
:1001BC003E6F05D0ED0E3C6F000E3D6F3E6B0A0E90
:1001CC003C25D96E000E3D21DA6EDE503E25036EC5
:1001DC00046A000E042203C000F004C001F00036D3
:1001EC0000900136003600900136000E00243A6F64
:1001FC00040E01203B6F050E3C25E96E000E3D21DF
:10020C00EA6EEECF01F0EECF02F0000E006E02505F
:10021C00005C03E101500001E95D06E2E9C03FF238
:10022C00000E0201406F0BD00201050E3C25E96E59
:10023C00000E3D21EA6EEECF3FF2EECF40F2C00E43
:10024C00416F040E426F010E3C25E96E000E3D21FC
:10025C00EA6EEECF43F2EECF44F23FC245F2D8DE67
:10026C00020E3A25E16E000E3B21E26EC00E006ECE
:10027C00040E016E00C0E6FF01C0E6FF010E3A2538
:10028C00E16E000E3B21E26E3FC2E6FF030E40150D
:10029C00036E3CC2E9FF3DC2EAFFEECF02F0060E50
:1002AC00016E02C000F0015004E000360090FF0F18
:1002BC00FBD7035000123AC2E1FF3BC2E2FF3951B7
:0602CC000010E66E1200B6
:1002D200016A026A02013E51025C02E13D51015C87
:1002E20017E201503B25E16E02503C21E26E0150C3
:1002F2003825F66E02503921F76E000E3A21F86E5B
:100302000900F5CF00F000C0E6FF014A022AE2D759
:020312001200D7
:100314000B0E006E000E016E31C204F0000E056E6D
:100324001BDFED0E0026000E012200C034F201C0D6
:1003340035F2010E0024E16E000E0120E26E32C29D
:10034400E6FF33C2E6FF030E02013425E16E000E20
:100354003521E26E080E3425E96E000E3521EA6E71
:10036400EECFE6FFEECFE6FF050E3425E16E000E7C
:100374003521E26E080E3425E96E000E3521EA6E51
:10038400EECFE6FFEECFE6FF31C200F0000E016EC5
:100394000036013600900036013600900A0E3425EE
:1003A400D96E000E3521DA6EDE500024036E000E85
:1003B4000120046E03C000F004C001F00036009078
:1003C4000136003600900136000E0026040E01228C
:1003D40000C036F201C037F2020E0024E16E000EB6
:1003E4000120E26E010E3425E96E000E3521EA6E1D
:1003F400EECFE6FFEECFE6FF010E3625E16E000EEE
:100404003721E26E080E3425E96E000E3521EA6EBE
:10041400EECFE6FF080E3425E96E000E3521EA6EB4
:10042400EECF03F0EECF04F004C000F0016A030E37
:100434000014036E34C2E9FF35C2EAFFEECF02F0C6
:10044400060E016E02C000F0015004E00036009078
:10045400FF0FFBD70350001236C2E1FF37C2E2FFA1
:08046400880E0010E66E120084
:10046C00C00E0001EE6F040EEF6F080EF06F000E61
:10047C00F16F080EF26F000EF36FED6B0201386B2B
:08048C008C0E396F8DDE1200A9
:1004940075D0D30E006E240E016E000E026E00C0E5
:1004A40038F201C039F202C03AF2650E02013B6F24
:1004B400000E3C6F00C0F6FF01C0F7FF02C0F8FF5A
:1004C4000900F5CF3DF2000E3E6F01DF650E006EB0
:1004D400000E016E67D0BF0E386F240E396F000E08
:1004E4003A6F650E3B6F000E3C6FB8DD650E006E13
:1004F400000E016E57D08C0E386F240E396F000E2B
:100504003A6F650E3B6F000E3C6FA8DD650E006E02
:10051400000E016E47D0B30E386F240E396F000EF3
:100524003A6F650E3B6F000E3C6F98DD650E006EF2
:10053400000E016E37D0D80E386F240E396F000EBE
:100544003A6F650E3B6F000E3C6F88DD650E006EE2
:10055400000E016E27D0D70E386F240E396F000EAF
:100564003A6F650E3B6F000E3C6F78DD650E006ED2
:10057400000E016E17D0006A016A14D002013151D5
:10058400000A87E03151010AA6E03151020AB3E0C2
:100594003151030AC0E03151040ACDE03151050A5A
:0605A400DAE0E9D71200C5
:0805AA00040E0001E76F1200CE
:1005B200710E006E010E016E010E0024E16E000E3E
:1005C2000120E26E28C2E6FF29C2E6FF030E0024E4
:1005D200E16E000E0120E26E2AC2E6FF2BC2E6FFA8
:1005E200050E0024E16E000E0120E26E2AC2E6FF33
:1005F2002BC2E6FF00C0E1FF01C0E2FF010EE66E82
:08060200020E0001E76F120077
:10060A000101726B736B746B756B766B776B010E92
:10061A00716F800E0201386F840E396FC2DD21DFDF
:02062A001200BC
:10062C0060D0A10E006E240E016E000E026E00C092
:10063C0038F201C039F202C03AF2650E02013B6F8A
:10064C00000E3C6F00C0F6FF01C0F7FF02C0F8FFC0
:10065C000900F5CF3DF2000E3E6F35DE650E006EE3
:10066C00000E016E49D0420E006E240E016E000E7B
:10067C00026E00C038F201C039F202C03AF2650EC7
:10068C003B6F000E3C6F020E0024F66E000E012034
:10069C00F76E000E0220F86E0900F5CF04F0030E81
:1006AC000024F66E000E0120F76E000E0220F86E8C
:1006BC000900F5CF03F003C001F0006A04500024D8
:1006CC003D6F000E01203E6FFEDD650E006E000ECC
:1006DC00016E12D029C231F2D7DE0ED0006A016A47
:1006EC000BD002012851010A9CE02851020ABBE000
:0A06FC002851030AEFE0F2D71200C4
:1007060009D0010E0201316F000E326F050E336FF4
:0E071600FEDD04D002012851050AF3E01200B6
:100724000F0E020128152E6F2F6B306B28AF06D0E9
:10073400710E2C6F010E2D6F2F8305D0ED0E2C6FD3
:10074400000E2D6F2F850B0E006E000E016E2EC253
:1007540004F0000E056E00DD2C5100262D510122FF
:1007640000C02CF201C02DF2070E0024E16E000E31
:100774000120E26E29C2E6FF2CC2E1FF2DC2E2FF96
:10078400E66A080E2C25E16E000E2D21E26E2AC2C7
:10079400E6FF2BC2E6FF2F872951010AD8A42F892F
:1007A400700E016E0F0E026E2E510126D8B0022A71
:1007B40001C0E9FF02C0EAFF2F51EE10006E01C034
:0C07C400E1FF02C0E2FF00C0E6FF1200EF
:1007D000020E0201286F21C229F2000E2A6F2B6B34
:1007E0002C6B24DF00C024F201C025F2020E00248D
:1007F000E96E000E0120EA6EEECF05F0030E002434
:10080000E96E000E0120EA6EEECF03F0000E046EDA
:1008100003C001F0006A05500024226F000E012081
:10082000236F010E2425E96E000E2521EA6EEE509D
:10083000050A2FE1020E2425E96E000E2521EA6E3D
:10084000EECF28F2030E2425E96E000E2521EA6E74
:10085000EECF06F0040E2425E96E000E2521EA6E87
:10086000EECF05F0050E2425E96E000E2521EA6E77
:10087000EECF03F0000E046E03C001F0006A0550D5
:1008800000242A6F000E01202B6F030E0614296F1F
:1008900049DF24C2D9FF25C2DAFFDE50225D006E97
:1008A000000E2359016E00C022F201C023F2005055
:1008B00001100AE024C2E9FF25C2EAFFEECF00F0F2
:1008C00000502427000E252322512311AAE1100EE7
:0E08D0000001E56F050E0201286F15DF120012
:1008DE000201236B246B21C2E9FF22C2EAFFEECF95
:1008EE0000F0600E0014276F37D1010E2125256F01
:1008FE00000E2221266F35D00201020E2125E96E4F
:10090E00000E2221EA6EEECF38F048DE5BD0380EB4
:10091E000201286F000E296F010E2A6F000E2B6F39
:10092E0041DE50D0020E02012125E96E000E222179
:10093E00EA6EEECF03F0EECF04F004C000F0016AD1
:10094E0000C037F02BDE3ED0370E0201286F000EAE
:10095E00296F010E2A6F000E2B6F24DE33D04EDE70
:10096E0004D125C2E9FF26C2EAFFEECF01F0000E48
:10097E00000A02E10B0E0118BFE025C2E9FF26C2F4
:10098E00EAFFEECF01F0000E000A02E1030E01189D
:10099E00BEE025C2E9FF26C2EAFFEECF01F0000E4F
:1009AE00000A02E10A0E0118BDE025C2E9FF26C2C7
:1009BE00EAFFEECF01F0000E000A02E1020E01186E
:1009CE00C3E0CDD7D2D00201010E2125256F000E36
:1009DE002221266FAAD00201020E2125E96E000EF9
:1009EE002221EA6EEECF03F0EECF04F004C001F048
:1009FE00026A0250000A02E1220E011833E1060ECD
:100A0E002125E96E000E2221EA6EEECF01F0EECF27
:100A1E0002F001C023F202C024F2000E006E02505A
:100A2E00005C02E10150210804E2210E236F000E4A
:100A3E00246F6B0E386F240E396F000E3A6F650EF1
:100A4E003B6F000E3C6F23C23DF224C23EF23ADCF5
:100A5E00650E286F000E296F23C22AF224C22BF2D4
:100A6E00A1DD4CD0020E02012125E96E000E2221DD
:100A7E00EA6EEECF03F0EECF04F004C001F0026A8E
:100A8E00000E021802E1210E011838E1060E212592
:100A9E00E96E000E2221EA6EEECF01F0EECF02F0EB
:100AAE0001C023F202C024F2000E006E0250005C60
:100ABE0002E10150090804E2090E236F000E246FB3
:100ACE00420E386F240E396F000E3A6F120E382711
:100ADE00000E39233A23650E3B6F000E3C6F23C286
:100AEE003DF224C23EF269EC01F0650E286F000E55
:100AFE00296F23C22AF224C22BF254DD2CD0360EDB
:100B0E000201286F000E296F010E2A6F000E2B6F47
:100B1E0049DD21D0020E02012125E96E000E2221AF
:100B2E00EA6EEECF36F03ADD16D025C2E9FF26C2C8
:100B3E00EAFFEE50060AD8B44ED725C2E9FF26C208
:100B4E00EAFFEE500A0ADBE025C2E9FF26C2EAFF01
:100B5E00EE500B0ADFE009D002012751200AD8B46B
:0C0B6E00C4D62751000AD8B42ED71200BC
:100B7A0021C272F122C273F123C274F124C275F147
:100B8A0023C276F124C277F1020E0001E76F120048
:100B9A0017C2E9FF18C2EAFFEECF00F01F0E0014D9
:100BAA000201206F7ED0F5C11EF2000E1F6F85D0A4
:100BBA001E6B1F6B82D0040E1725056E000E1821BE
:100BCA00066E05C0E9FF06C0EAFF0F0EEE14016EBD
:100BDA0001C019F201C003F0000E046E0336043698
:100BEA00039003360436039003C000F004C001F0FA
:100BFA00003600900136003600900136000E0024BF
:100C0A001A6F040E01201B6F05C0E9FF06C0EAFF38
:100C1A00EECF02F0EECF03F002AE09D0710E1C6FD8
:100C2A00010E1D6F080E1A27000E1B2304D0ED0EAD
:100C3A001C6F000E1D6F0B0E006E000E016E19C2A6
:100C4A0004F0000E056EAEEC00F01C5100261D519A
:100C5A00012200C01CF201C01DF200C0E9FF01C060
:100C6A00EAFFEECF03F003C000F0000E016E00367B
:100C7A00009001360036009001361A5100261B51A9
:100C8A00012200C01AF201C01BF200C0E9FF01C034
:100C9A00EAFFEECF00F01E6B00B41E2B000E1F6F92
:100CAA000CD02051000AD8B47ED72051010AD8B4FA
:100CBA007FD72051020AD8B47ED71E0E216F020EAA
:0E0CCA00226F020E236F000E246F52DF120005
:100CD800010E02011725E96E000E1821EA6EEE508A
:100CE800030A03E1010E1E6F01D01E6B17C2E9FF54
:100CF80018C2EAFFEECF00F01F0E00141F6F21D1BB
:100D0800020E1725E96E000E1821EA6EEECF01F0EB
:100D1800EECF02F0000E021802E1010E011819E1EF
:100D2800040E0001E76F02011E5307E0020E0101E5
:100D3800F511006E00C0F5F10BD00101FD0EF5159F
:100D4800006E00C0F5F117C221F218C222F2C3DD0D
:100D58001CD002011E5316E0020E1725E96E000E84
:100D68001821EA6EEECF01F0EECF02F0000E021865
:100D780002E1020E011805E117C221F218C222F29F
:100D8800AADD03D0060E0001E76FE8D017C221F2F2
:100D980018C222F2A0DDE2D0020E02011725E96E88
:100DA800000E1821EA6EEECF01F0EECF02F0000E31
:100DB800021802E1000E0118D8A4BDD0040E1725B0
:100DC800E96E000E1821EA6E0F0EEE14006EEECFDB
:100DD80001F0000E011600500110D8B4A8D0040E7E
:100DE8001725056E000E1821066E05C0E9FF06C01E
:100DF800EAFF0F0EEE14016E01C019F201C003F0F4
:100E0800000E046E0336043603900336043603904E
:100E180003C000F004C001F000360090013600362F
:100E280000900136000E00241A6F040E01201B6F7B
:100E380005C0E9FF06C0EAFFEECF02F0EECF03F0EF
:100E480002AE04D0080E1A27000E1B231E5322E000
:100E58001AC2E9FF1BC2EAFF1AC2E1FF1BC2E2FF86
:100E6800840EEE12040E1A25016E000E1B21026E6E
:100E780001C01AF202C01BF201C0E9FF02C0EAFF7A
:100E8800840EEE10006E01C0E1FF02C0E2FF00C058
:100E9800E6FF4DD01AC2E9FF1BC2EAFF1AC2E1FF02
:100EA8001BC2E2FF7B0EEE16040E1A25016E000E21
:100EB8001B21026E01C01AF202C01BF201C0E9FF39
:100EC80002C0EAFF7B0EEE14006E01C0E1FF02C013
:100ED800E2FF00C0E6FF040E1725E96E000E182198
:100EE800EA6EEECF02F0EECF03F002AE05D0710E3F
:100EF8001C6F010E1D6F04D0ED0E1C6F000E1D6FD0
:100F08000B0E006E000E016E19C204F0000E056E85
:100F1800AEEC00F01C5100261D51012200C01CF24D
:100F280001C01DF200C0E1FF01C0E2FFE66A040E45
:100F38000001E76F05D017C221F218C222F2CBDCFC
:100F48000DD002011F51000AD8B4DAD61F51010A88
:0E0F5800D8B41CD71F51020AD8B41ED71200FD
:100F6600020E02011725E96E000E1821EA6EEECF79
:100F760001F001C019F201500001EA5D03E2060E1C
:100F8600E76F31D0E551080A13E102011951000A51
:100F960004E1040E0001E76F08D00001100EE56FB2
:100FA600040EE76F19C221F210DC19C2EBF01BD058
:100FB6000001E551100A14E102011951000A06E187
:100FC600080E0001E56F040EE76F07D00001040E5E
:100FD600E76F19C221F2E8EC03F019C2EBF003D077
:080FE600060E0001E76F120086
:100FEE00020E02011725E96E000E1821EA6EEECFF1
:100FFE0001F0EECF02F002C01EF21F6B94D0010E74
:10100E00286F296B2A6B2B6B2C6B16EC03F000C030
:10101E0019F201C01AF26E50000A05E1080E1C6F9B
:10102E00000E1D6F0AD019C2E9FF1AC2EAFFEECFF9
:10103E001CF2000E1D6F000E1D6F8BD0020E1725B9
:10104E00E96E000E1821EA6EEECF01F001C01BF220
:10105E0001500001EA5D03E2060EE76F9DD0020E1D
:10106E000201286F1BC229F2000E2A6F2B6B2C6B0C
:10107E0016EC03F000C019F201C01AF2020E0024A1
:10108E00E96E000E0120EA6EEECF05F0030E00248D
:10109E00E96E000E0120EA6EEECF03F0000E046E34
:1010AE0003C001F0006A055000241C6F000E0120E1
:1010BE001D6F4FD0030E286F020E1725E96E000E1E
:1010CE001821EA6EFF0EEE14296FEECF2AF2000EF3
:1010DE002A17040E1725E96E000E1821EA6EEECFC0
:1010EE002BF2EECF2CF216EC03F000C019F201C079
:1010FE001AF2000E011802E1000E001804E1060EAD
:10110E000001E76F49D019C2E9FF1AC2EAFFEECF1C
:10111E001CF2000E02011D6F000E1D6F1AD0060E7E
:10112E000001E76F39D0000E02011F1902E1010E16
:10113E001E19D8B464D7000E1F1902E1020E1E1933
:10114E00D8B47CD7000E1F1902E1030E1E19B2E0AF
:10115E00E6D7060E1725D96E000E1821DA6EDECFF1
:10116E0001F0DECF02F01D51025C02E11C51015C68
:10117E000AE2060E1725E96E000E1821EA6EEECF72
:10118E001CF2EECF1DF219C221F21AC222F21CC2BB
:0A119E0023F21DC224F2EADC120065
:1011A80002011351010A0AE1010E346E010E316F7A
:0E11B800000E326F050E336F8AEC01F012004C
:1011C60016D00101726B736B746B756B766B776BF4
:1011D6000101010E716F800E0201386F880E396FA2
:1011E600D6EC00F01AD019D005EC03F016D0000E9C
:1011F600000A03E1040E0001E719E3E0000E000A0D
:1012060003E10001020EE719E3E0000E000A03E124
:0C1216000001030EE719E7E0E7D7120023
:0E12220002011351010A02E1010E356E1200A5
:10123000010E02011325156F000E1421166F66D0E2
:1012400013C217F214C218F2A8DCAED013C217F200
:1012500014C218F241DDA8D0020E02011325006E5F
:10126000000E1421016E00C0E9FF01C0EAFFEECFBD
:10127000ECF000C0E9FF01C0EAFFEECF02F0EECFD4
:1012800003F0000E031802E1000E021804E0080E3D
:101290000001E56F03D00001040EE56F040EE76F57
:1012A00083D013C2E9FF14C2EAFFEECF00F01F0E95
:1012B0000014016E0150000A06E113C217F214C2B5
:1012C00018F295DE06D013C221F214C222F26FEC9E
:1012D00004F06AD0EB0E0201216F000E226F010EA6
:1012E000236F000E246F49DC5FD013C217F214C2C3
:1012F00018F239DE59D013C221F214C222F26FEC77
:1013000004F052D0060E0001E76F4ED015C2E9FF7F
:1013100016C2EAFFEE50000A93E015C2E9FF16C2BA
:10132000EAFFEE50010A92E015C2E9FF16C2EAFF99
:10133000EE50030A8BE015C2E9FF16C2EAFFEE5039
:10134000050A8AE015C2E9FF16C2EAFFEE50060A56
:10135000A8E015C2E9FF16C2EAFFEE50080ABAE09B
:1013600015C2E9FF16C2EAFFEE50090ABEE015C237
:10137000E9FF16C2EAFFEE50070ABDE015C2E9FF19
:1013800016C2EAFFEE500C0AB6E015C2E9FF16C21B
:10139000EAFFEE500A0AAFE015C2E9FF16C2EAFF03
:0A13A000EE500B0AA8E0AED71200D1
:1013AA00700E5B6E0F0E5C6E596A5A6A000E5A5CBA
:1013BA0002E10C0E595C0AE25BC0E1FF5CC0E2FF8D
:0E13CA00E66A5B4A5C2A594A5A2AF0D712009A
:1013D800000E5B6E040E5C6E596A5A6A000E5A5C07
:1013E80002E1C00E595C0AE25BC0E1FF5CC0E2FFAB
:1013F800E66A5B4A5C2A594A5A2AF0D7E50E5B6EC0
:10140800000E5C6E596A5A6A010E5A5C02E1110EAE
:10141800595C0AE25BC0E1FF5CC0E2FFE66A5B4A36
:0A1428005C2A594A5A2AF0D7120034
:10143200FDC15DF0FEC15EF0030E0101FD25036EEC
:10144200000EFE21046E03C0E9FF04C0EAFFEECFE6
:1014520000F0000E00BE010E5F6E03C0E9FF04C083
:10146200EAFFEECF02F002C000F00036009003C0A7
:10147200E1FF04C0E2FF00C0E6FF030E5D24E16E5F
:10148200000E5E20E26E020E5D24E96E000E5E200A
:10149200EA6EEECF00F000BE02D0E69001D0E68008
:1014A200020E5D24E16E000E5E20E26E5FB002D09D
:0814B200E69E01D0E68E120057
:1014BA00A69CFDC1A9FFA69EA680A8CF00F0120097
:1014CA006B6A6A6A696A686A6BDF160E6F6E6E6AA1
:1014DA007EDF9F0E6B6E7B0E696E6D8C6D9C160E99
:0E14EA00706E080E6D6E0001E56BE76B120070
:1014F80003500718D8A490EF0AF002500618D8A491
:1015080090EF0AF001500518D8A490EF0AF00050A7
:0E1518000418D8B4D8841200D894120012001F
:10152600FDC1C9FFC7B002D00000FCD7C9CF00F08B
:021536001200A1
:101538004BC0E9FF4CC0EAFFEECF00F03C0E0014B0
:10154800016E01C006F00632069E0632069E06C0EF
:101558000FF2010E4B24E96E000E4C20EA6EEECF1E
:1015680005F04BC0E9FF4CC0EAFFEECF00F0000EDB
:10157800016E030E0014036E01C004F0000E041681
:1015880003C001F0006A005005100201106F000E40
:101598000110116F06500D0A42E17F0E0401081573
:1015A800006E00C008F47F0E0C15006E00C00CF42D
:1015B80057C0E9FF58C0EAFFEECF00F057C0E1FF7F
:1015C80058C0E2FF7F0E0014E66E4F0E0201416F15
:1015D800000E426FC00E436F040E446F080E456F35
:1015E8000EEC00F000C00DF201C00EF200C0E9FFE1
:1015F80001C0EAFF600EEE14016E0150000A06E118
:101608000DC213F20EC214F20FDE06D00DC221F283
:101618000EC222F26FEC04F06D98D1DDA5D1020163
:101628000F51010AD8A4C0D0000E000A03E1050E2C
:101638000001E71905E10001E76B36EC02F0B3D0D1
:10164800000E000A03E1030E0001E719D8A4ABD08D
:10165800010E4D24E96E000E4E20EA6EEECF41F2E7
:10166800EECF42F2C00E0201436F040E446F10C267
:1016780045F20EEC00F0050E4D24026E000E4E20D1
:10168800036E02C0E9FF03C0EAFF1051EE5C006E72
:101698001151EE58016E02C0E1FF03C0E2FF00C025
:1016A800E6FF01C0E6FF010E4D24026E000E4E203B
:1016B800036E02C0E9FF03C0EAFF1051EE24006E7A
:1016C8001151EE20016E02C0E1FF03C0E2FF00C02D
:1016D800E6FF01C0E6FF030E4D24026E000E4E2009
:1016E800036E02C0E9FF03C0EAFF1051EE24006E4A
:1016F8001151EE20016E02C0E1FF03C0E2FF00C0FD
:10170800E6FF01C0E6FF000E115D04E10001E951AA
:101718000201105D2EE2710E0B6F010E0C6F010EAF
:101728000B25E16E000E0C21E26EC00EE66E040E73
:10173800E66E030E0B25E16E000E0C21E26EE66AE2
:10174800E66A050E0B25E16E000E0C21E26EE66AD4
:10175800E66A0BC2E1FF0CC2E2FF010EE66E800EE4
:10176800386F880E396FD6EC00F0040E0001E76F71
:1017780013D04DC0E9FF4EC0EAFFEECF00F04DC0D8
:10178800E1FF4EC0E2FF010E0018E66E0201386B61
:10179800880E396FD6EC00F00201136B10C214F2F8
:1017A80011C215F23ADDE0D00201126B050E4D248C
:1017B800E96E000E4E20EA6EEECF01F0EECF02F099
:1017C800000E021803E10001E95101180CE1000EB6
:1017D800006E5650005C03E100015550E95D03E2DC
:1017E800010E0201126F0201050E4D24026E000E59
:1017F8004E20036E02C0E9FF03C0EAFF1051EE5C01
:10180800006E1151EE58016E02C0E1FF03C0E2FF05
:1018180000C0E6FF01C0E6FF010E4D24026E000E77
:101828004E20036E02C0E9FF03C0EAFF1051EE2408
:10183800006E1151EE20016E02C0E1FF03C0E2FF0D
:1018480000C0E6FF01C0E6FF050E4D24E96E000E5C
:101858004E20EA6EEECF01F0EECF02F0000E006EE1
:101868000250005C02E10150000816E3050E4D2409
:10187800E96E000E4E20EA6EEECF01F0EECF02F0D8
:10188800000E021802E1000E011805E102011251D2
:10189800010A01E101D015D002014DC0E9FF4EC097
:1018A800EAFFEECF00F04DC0E1FF4EC0E2FF010EAF
:1018B8000018E66E800E386F880E396FD6EC00F08F
:1018C80050D00201800E386F840E396FD6EC00F0CC
:1018D800000E000A03E1020E0001E71932E10001DF
:1018E800050EE76FED0E02010B6F000E0C6F010E77
:1018F8000B25E16E000E0C21E26EC00EE66E040EA2
:10190800E66E030E0B25E16E000E0C21E26E080E4A
:10191800E66E000EE66E050E0B25E16E000E0C213C
:10192800E26E080EE66E000EE66E0BC2E1FF0CC218
:10193800E2FF010EE66E386B880E396FD6EC00F0C8
:1019480010D0000E000A03E1040E0001E71909E1B6
:101958000001E551080A02E1ECC06EFFE76B36ECC6
:0A19680002F00201136B1CDC1200F8
:10197200A6A202D00000FCD7A69CFDC1A9FFFEC111
:10198200A8FFA69EA684F2CF00F0F29E550EA76E87
:10199200AA0EA76EA68200BE02D0F29E01D0F28EDF
:0419A200A6941200F5
:1019A6000B0E006E000E016E01C204F0000E056EF5
:1019B600AEEC00F0710E0026010E012200C0FDF112
:1019C60001C0FEF1010E0024E16E000E0120E26E60
:1019D60002C2E6FF03C2E6FF030E0101FD25E16E2A
:1019E600000EFE21E26E04C2E6FF05C2E6FF050E0A
:1019F600FD25E16E000EFE21E26E04C2E6FF05C281
:101A0600E6FF01C200F0000E016E003601360090BE
:101A1600003601360090020E0026000E01220A0E44
:101A2600FD25D96E000EFE21DA6EDE500024036E0F
:101A3600000E0120046E03C000F004C001F0003661
:101A460000900136003600900136000E0026040E86
:101A5600012200C006F201C007F2020E0024E16E68
:101A6600000E0120E26E02C2E6FF03C2E6FF010E8F
:101A760002010625E16E000E0721E26E04C2E6FFB2
:101A860005C200F0016A030E0014036EFDC1E9FFF2
:101A9600FEC1EAFFEECF02F0060E016E02C000F0B4
:101AA600015004E000360090FF0FFBD703500012F0
:101AB60006C2E1FF07C2E2FF880E0010E66E1200C2
:101AC6000900F5CFE6FF0006FBE10106F9E1120089
:021AD6001200FC
:101AD8008A94396A3C6A0101F9A102D0800E396EF4
:101AE800F9A301D03C80F9A501D03C82080E3C1036
:101AF800FD6F15DD39C0FDF112DD1F0E0014466EB5
:101B08000101FD6B0CDD00C045F08A8446A804D0B5
:0A1B1800000E4512E00E4612120006
:081B2200806A816A826A1200E8
:041B2A00F26A120049
:101B2E00260E476E150E486EFD0E496E010E4A6E5C
:101B3E00FF0E0001616FFF0E626FFF0E636FFF0EEF
:101B4E00646F949E0101F951040A02E1938201D05F
:101B5E0093929380C66AF951C612FB51C612FA517E
:101B6E00C712FB5305E0FC51000AD8B4C78C03D052
:0A1B7E00FC53D8A4C78CC68A1200DD
:0A1B8800060EC16E070EB46E1200C7
:0A1B92008A849394456A466A1200A3
:101B9C0001C541F002C542F003C543F004C544F051
:101BAC00410E0101FD6F000EFE6F3DDC41C000F0E7
:101BBC0042C001F043C002F044C003F0046A056A5D
:101BCC00066A076A93DC000ED8A4010E006E005260
:101BDC0052E0FD6B01C5FEF1C6DE4E0E0C6EEB0E37
:101BEC000D6E0D2EFED70C2EFCD7010E0101FD6FD4
:101BFC0002C5FEF1B8DE4E0E0C6EEB0E0D6E0D2E08
:101C0C00FED70C2EFCD7020E0101FD6F03C5FEF1B1
:101C1C00AADE4E0E0C6EEB0E0D6E0D2EFED70C2E9C
:101C2C00FCD7030E0101FD6F04C5FEF19CDE4E0EC8
:101C3C000C6EEB0E0D6E0D2EFED70C2EFCD7040E7B
:101C4C000101FD6F05C5FEF18EDE4E0E0C6EEB0E26
:101C5C000D6E0D2EFED70C2EFCD7050E0101FD6F5F
:101C6C0006C5FEF180DE4E0E0C6EEB0E0D6E0D2ECB
:101C7C00FED70C2EFCD707C53DF008C53EF009C5B4
:101C8C003FF00AC540F03D0E0101FD6F000EFE6FE6
:101C9C0019EC0AF03DC000F03EC001F03FC002F06C
:101CAC0040C003F0046A056A066A076A1FDC000E6E
:101CBC00D8A4010E006E005253E0060EFD6F07C54E
:101CCC00FEF151DE4E0E0C6EEB0E0D6E0D2EFED790
:101CDC000C2EFCD7070E0101FD6F08C5FEF143DE8B
:101CEC004E0E0C6EEB0E0D6E0D2EFED70C2EFCD781
:101CFC00080E0101FD6F09C5FEF135DE4E0E0C6EAE
:101D0C00EB0E0D6E0D2EFED70C2EFCD7090E01011D
:101D1C00FD6F0AC5FEF127DE4E0E0C6EEB0E0D6E3E
:101D2C000D2EFED70C2EFCD70A0E0101FD6F0BC534
:101D3C00FEF119DE4E0E0C6EEB0E0D6E0D2EFED757
:101D4C000C2EFCD70B0E0101FD6F0CC5FEF10BDE4A
:101D5C004E0E0C6EEB0E0D6E0D2EFED70C2EFCD710
:021D6C00120063
:101D6E000001E551000A07E1080E6D6E010EE56FE8
:101D7E00686A020EE56F68506914016E01A414D0F2
:101D8E00E6C0E5F0080E0201286F83EC03F06994BB
:101D9E00FF0E0101FF6F68A407D0FFC100F0FF071F
:101DAE00005202E06894F7D768506914016E01A0E2
:101DBE0044D065EC0AF0010E0201286F296B2A6BE4
:101DCE002B6B2C6B16EC03F0070E0024E96E000E45
:101DDE000120EA6EEECFE9F0110E0024E96E000E3E
:101DEE000120EA6EEECFEAF0040E0001E56FE9C0C5
:101DFE00F5F0000EF66FE9C079F1000E01017A6F71
:101E0E00020E0201286F83EC03F0C00E0001EE6F8C
:101E1E00040EEF6F080EF06F000EF16F080EF26FEA
:101E2E00000EF36FED6BEEC002F4EFC003F4080E7C
:101E3E000401016F8C0E006F689068506914016E7A
:101E4E0001A80CD068986984E5C0E6F0200E000168
:101E5E00E56F060E0201286F83EC03F068506914DB
:101E6E00016E01AC06D00201689C080E286F83EC4F
:101E7E0003F068506914016E01AA03D070B070901F
:101E8E00689A68506914016E01A202D06A6A68925B
:101E9E00040E0001E55D02E2A19ACCD00201006BB6
:101EAE00040E005DD8B0C5D068506914016E01A64D
:101EBE00BDD06CCFE8F0E8C000F00032009E0032DA
:101ECE00009E0032009E0F0E0014016E01C00AF239
:101EDE00689601C003F0000E046E033604360390BC
:101EEE0003360436039003C000F004C001F0003640
:101EFE0000900136003600900136000E00244B6E25
:101F0E00040E01204C6E0001E8A509D0710E4D6E35
:101F1E00010E4E6E080E4B26000E4C2204D0ED0E16
:101F2E004D6E000E4E6E0B0E006E000E016E0AC24E
:101F3E0004F0000E056EAEEC00F000504D26015080
:101F4E004E22040E4B24576E000E4C20586EE8A302
:101F5E0008D04BC057F04CC058F0040E4B26000E64
:101F6E004C220A0E4D24016E000E4E20026E01C050
:101F7E00E9FF02C0EAFF010EEE18006E01C0E1FF9C
:101F8E0002C0E2FF00C0E6FF02010A51000A03E1AF
:101F9E009CEC0AF04BD00001E8A512D04DC0E9FF31
:101FAE004EC0EAFFEECF00F04DC0E1FF4EC0E2FFA3
:101FBE00010E0018E66E0AC213F2D4EC08F036D009
:101FCE000201010E4B24E96E000E4C20EA6EEECF9C
:101FDE0005F04BC0E9FF4CC0EAFFEECF00F0000E5B
:101FEE00016E030E0014036E01C004F0000E041601
:101FFE0003C001F0006A00500510086F000E0110BA
:10200E00096F4DC0E9FF4EC0EAFFEECF00F04DC0A4
:10201E00E1FF4EC0E2FF010E0018E66E0AC213F297
:10202E0008C214F209C215F211EC09F00201002BDC
:06203E0037D7A19A120041
:10204400346A010E0201016F400E026F050E036F28
:10205400400E046F000E056FA4DCE80E3A6E030E0A
:102064003B6E34520DE1000E3B1802E1000E3A18AB
:1020740002E1006A07D0010E3A5E000E3B5AF1D726
:06208400FF0E006E1200C9
:10208A000101FD6B5DEC0AF000C074F5010EFD6FF5
:10209A005DEC0AF000C075F5020EFD6F5DEC0AF00A
:1020AA0000C076F5030EFD6F5DEC0AF000C077F50F
:1020BA00040EFD6F5DEC0AF000C078F5050EFD6FA9
:1020CA005DEC0AF000C079F5060EFD6F5DEC0AF0D2
:1020DA0000C07AF5070EFD6F5DEC0AF000C07BF5D3
:1020EA00080EFD6F5DEC0AF000C07CF5090EFD6F6D
:1020FA005DEC0AF000C07DF50A0EFD6F5DEC0AF09A
:10210A0000C07EF50B0EFD6F5DEC0AF000C07FF596
:02211A001200B1
:06211C00E5C000F0120016
:102122006DEC12F00001606B0101F66BF76BF86B5E
:10213200F7DC29DDF9DC010EF96FFA6BFB6B010E9E
:10214200FC6FF4DCC7DC65EC0AF0D08EA28AA08AB0
:10215200F28E1EDD606B400E605D0EE20501016BCA
:10216200400EE16E050EE26E00016051E126D8B02C
:10217200E22AE66A602BEFD787DFCFDF0050100A32
:1021820001E0FBD7899092908980355207E00501E2
:102192000051A30A02E101DD77DF356A0101F66B26
:1021A2000001606B0C0E605D68E20101F96B93DC6B
:1021B20046AE30D045C000F046C001F0FF0E046EBE
:1021C200FF0E056EAEEC00F000C0F7F101C0F8F1B1
:1021D20032500024036E33500120046E03C000F01D
:1021E20004C001F001320032019E00C045F001C07E
:1021F20046F0FF0E046EFF0E056EAEEC00F000C05E
:1022020045F001C046F0130E0D6E0D2EFED70000F4
:10221200000011D045C0F7F146C0F8F13250452612
:102222003350462246324532469E3B0E0D6E0D2EEF
:10223200FED700000000F7C132F0F8C133F0400EC3
:10224200E16E050EE26E0101F651E126D8B0E22AF6
:1022520045C0E6FFF651010F006E016A000E012231
:10226200400E0024E16E050E0120E26E46C0E6FF3C
:10227200020EF6270001602B95D7180E0101F66FAA
:102282000001606B0C0E605D69E2020E0101F96FE4
:1022920022DC46AE30D045C000F046C001F0FF0E51
:1022A200046EFF0E056EAEEC00F000C0F7F101C047
:1022B200F8F130500024036E31500120046E03C047
:1022C20000F004C001F001320032019E00C045F06E
:1022D20001C046F0FF0E046EFF0E056EAEEC00F07C
:1022E20000C045F001C046F0130E0D6E0D2EFED754
:1022F2000000000011D045C0F7F146C0F8F130509F
:1023020045263150462246324532469E3B0E0D6EE0
:102312000D2EFED700000000F7C130F0F8C131F0F9
:10232200400EE16E050EE26E0101F651E126D8B0D3
:10233200E22A45C0E6FFF651010F006E016A000E67
:102342000122400E0024E16E050E0120E26E46C01D
:10235200E6FF020EF6270001602B94D7899071DE0A
:0423620013D7FFD7B7
:10236600156ED8CF16F0E0CF17F01750E06E165066
:08237600D86E153A153810006D
:10237E0000C023F001C022F002C021F003C020F003
:10238E0004C01FF005C01EF006C01DF007C01CF0F3
:10239E0008C01BF009C01AF00AC019F00BC018F0E3
:1023AE00D9CF2EF0DACF2FF0E1CF2CF0E2CF2DF0F7
:1023BE00E9CF2AF0EACF2BF0F3CF28F0F4CF29F0B3
:1023CE00F5CF27F0F8CF24F0F7CF25F0F6CF26F093
:1023DE00C7DC27C0F5FF24C0F8FF25C0F7FF26C0D5
:1023EE00F6FF28C0F3FF29C0F4FF23C000F022C07F
:1023FE0001F021C002F020C003F01FC004F01EC087
:10240E0005F01DC006F01CC007F01BC008F01AC076
:10241E0009F019C00AF018C00BF02AC0E9FF2BC052
:10242E00EAFF2CC0E1FF2DC0E2FF2EC0D9FF2FC066
:04243E00DAFF1100B0
:1024DA0010EE30F0090E006E010E016ECA0EF66E95
:0E24EA00240EF76E000EF86E63EC0DF012007B
:1024420009022900010104E032090400000203002C
:102452000005092101010001222100070581034035
:092462000001070501034000011F
:10246B000600FF0901A10119012940150026FF00F3
:10247B007508954081021901294075089540910214
:01248B00C090
:10248C00555342204261747465727920416E616CBF
:05249C00797A65720071
:1024A1001201000200000040BD1F040000010102F2
:0224B100030125
:0C24B30049545542413031303030310086
:0B24BF00494E465241205465636800FE
:0224CA00000010
:0224CC0000000E
:0124CE00000D
:0124CF00000C
:0124D000000B
:0124D100000A
:0124D2000009
:0424D30004030904F1
:0124D7000004
:0124D8000003
:020000040030CA
:0E000000240E3E1EFF0381FF00800FE00F4024
:0200000400F00A
:100000000000803F00000000803F0000FFFFFFFF76
:10001000FFFFFFFFFFFFFFFFFFFFFFFFFFFFFFFFF0
:10002000FFFFFFFFFFFFFFFFFFFFFFFFFFFFFFFFE0
:10003000FFFFFFFFFFFFFFFFFFFFFFFFFFFFFFFFD0
:10004000FFFFFFFFFFFFFFFFFFFFFFFFFFFFFFFFC0
:10005000FFFFFFFFFFFFFFFFFFFFFFFFFFFFFFFFB0
:10006000FFFFFFFFFFFFFFFFFFFFFFFFFFFFFFFFA0
:10007000FFFFFFFFFFFFFFFFFFFFFFFFFFFFFFFF90
:10008000FFFFFFFFFFFFFFFFFFFFFFFFFFFFFFFF80
:10009000FFFFFFFFFFFFFFFFFFFFFFFFFFFFFFFF70
:1000A000FFFFFFFFFFFFFFFFFFFFFFFFFFFFFFFF60
:1000B000FFFFFFFFFFFFFFFFFFFFFFFFFFFFFFFF50
:1000C000FFFFFFFFFFFFFFFFFFFFFFFFFFFFFFFF40
:1000D000FFFFFFFFFFFFFFFFFFFFFFFFFFFFFFFF30
:1000E000FFFFFFFFFFFFFFFFFFFFFFFFFFFFFFFF20
:1000F000FFFFFFFFFFFFFFFFFFFFFFFFFFFFFFFF10
:00000001FF

